S0100000626C756570696C6C2E73726563BB
S315080000000004002041010008760100087801000874
S3150800001076010008760100087601000876010008D6
S3150800002076010008760100087601000876010008C6
S315080000307601000876010008110F0008A10E0008D5
S3150800004076010008760100087601000876010008A6
S315080000507601000876010008760100087601000896
S315080000607601000876010008760100087601000886
S315080000707601000876010008760100087601000876
S315080000807601000876010008760100087601000866
S315080000907601000876010008760100087601000856
S315080000A07601000876010008760100087601000846
S315080000B07601000876010008760100087601000836
S315080000C07601000876010008760100087601000826
S315080000D07601000876010008760100087601000816
S311080000E076010008760100087601000889
S30D080000EC00010008E00100080C
S309080000F4A001000851
S3150800010018309FE5000053E31EFF2F0110402DE92C
S315080001100C009FE5610500EB1040BDE81EFF2FE1CE
S3150800012000000000C01600080000000000000000E3
S315080001300DC0A0E1F8DF2DE904B04CE20000000094
S3150800014072B60E4885460E4880F30988022080F369
S315080001501488BFF36F8F0B4A90470B4A90470B489A
S315080001600B490C4A9047002000218646EC460A4A6D
S3150800017090470A4A9047FEE7FFF7FEBF00040020B3
S3150800018000080020F102000811020008301D0020B6
S3150800019000500020011300087114000831030008FC
S315080001A010402DE928409FE50030D4E5000053E3D0
S315080001B00500001A1C309FE5000053E318009F1540
S315080001C000F020130130A0E30030C4E51040BDE87C
S315080001D01EFF2FE14C0C002000000000B01800089C
S315080001E01C309FE5000053E31EFF2F0110402DE948
S315080001F010109FE510009FE500F020E31040BDE8D1
S315080002001EFF2FE100000000500C0020B018000867
S3150800021080B500AF2A4800F0B3FB4FF4407000F0F9
S31508000220C7FC40F2023000F0C3FC40F2033000F095
S31508000230BFFC4FF4417000F0BBFC40F2053000F003
S31508000240B7FC4FF4207000F0B3FC40F2822000F0B7
S31508000250AFFC40F2862000F0ABFC40F20E3000F016
S31508000260A7FC40F2913000F0A3FC40F28B3000F07E
S315080002709FFC4FF4677000F09BFC40F2973000F04B
S3150800028097FC40F20D3000F093FC4FF40053002227
S3150800029002210C4800F014FC0B4800F049FD00F060
S315080002A017F8034619464FF47A7000F0C1F800F0C3
S315080002B007F900F015F900F05BF800BF80BD00BF34
S315080002C08018000800100140000800200000000007
S315080002D080B400AF024B1846BD4680BC704700BFCD
S315080002E000A24A0400000000000000000000000010
S315080002F080B500AF084A094BD31A1A460849074879
S3150800030000F05EFF074A084BD31A1A460021064832
S3150800031000F0AEFF00BF80BD4C0C00200008002096
S31508000320B0180008301D00204C0C0020000000000A
S3150800033080B582B000AF0A4B7B6007E07B681B681C
S315080003403B603B6898477B6804337B607B68054A5B
S315080003509342F3D100BF00BF0837BD4680BD00BF3A
S31508000360F4000008F8000008000000000000000083
S31508000370BFF36F8F62B6704700BF00000000000031
S31508000380EFF30980704700231846000000000000BC
S3150800039080B400AF044B5B68034A43F000735360B4
S315080003A000BFBD4680BC704700ED00E000000000BD
S315080003B080B400AF044B5B68034A43F000635360A4
S315080003C000BFBD4680BC704700ED00E0000000009D
S315080003D008B5044B5B68034A43F08053536008BD75
S315080003E000BF00BF00ED00E00000000000000000B4
S315080003F080B483B000AF78607B684FF00452DA634C
S3150800040000BF0C37BD4680BC7047000000000000E6
S3150800041080B483B000AF7860044A7B6823F07F43DA
S31508000420136000BF0C37BD4680BC704714E000E07F
S3150800043080B584B000AF786039603A687B68B2FBF3
S31508000440F3F3FB60FB680F4A934201D9002314E0DB
S31508000450FB686FF07F42934206D3FB68DB08FB60BC
S31508000460002000F015F802E0042000F011F8FB68FF
S31508000470013B1846FFF7CCFF012318461037BD4647
S3150800048080BD00BFF7FFFF07000000000000000066
S3150800049080B483B000AF0346FB71074B1B6823F09B
S315080004A00402FB7903F00403034913430B6000BFFE
S315080004B00C37BD4680BC704710E000E00000000025
S315080004C080B400AF044B1B68034A43F00203136071
S315080004D000BFBD4680BC704710E000E00000000089
S315080004E080B400AF044B1B68034A43F00103136052
S315080004F000BFBD4680BC704710E000E00000000069
S3150800050080B483B000AF0346FB71FB79062B57D83E
S3150800051001A252F823F000BF350500084905000876
S315080005205D0500087105000885050008990500089D
S31508000530AD050008254B1B6803F00073002B14BF9C
S3150800054001230023DBB23CE0204B1B6803F0006369
S31508000550002B14BF01230023DBB232E01B4B1B68C0
S3150800056003F00053002B14BF01230023DBB228E05D
S31508000570164B1B6803F40033002B14BF012300231A
S31508000580DBB21EE0114B1B6803F00203002B14BFFD
S3150800059001230023DBB214E00D4B1B6803F00203B2
S315080005A0002B14BF01230023DBB20AE0094B1B68AA
S315080005B003F00203002B14BF01230023DBB200E083
S315080005C0002318460C37BD4680BC70470010024011
S315080005D02010024024100240000000000000000025
S315080005E080B582B000AF0346FB7100BFFB791846A1
S315080005F0FFF786FF034683F00103DBB2002BF5D134
S3150800060000BF00BF0837BD4680BD000000000000DF
S3150800061080B483B000AF0346FB71FB79062B42D842
S3150800062001A252F823F000BF450600085306000849
S31508000630610600086F0600087D0600088B0600089C
S31508000640990600081A4B1B68194A43F08073136011
S3150800065029E0174B1B68164A43F08063136022E0B3
S31508000660134B1B68124A43F0805313601BE0104B70
S315080006701B680F4A43F48033136014E00C4B1B6865
S315080006800B4A43F0010313600DE00A4B1B68094A45
S3150800069043F00103136006E0074B1B68064A43F064
S315080006A00103136000BF00BF0C37BD4680BC70470E
S315080006B000100240201002402410024000000000F2
S315080006C080B483B000AF7860064B1B6823F0030242
S315080006D004497B6813430B6000BF0C37BD4680BCDA
S315080006E0704700BF04100240000000000000000030
S315080006F080B483B000AF7860064B1B6823F4701291
S315080007007B689B04034913430B6000BF0C37BD4647
S3150800071080BC704704100240000000000000000082
S3150800072080B483B000AF7860064B1B6823F4706210
S315080007307B681B02034913430B6000BF0C37BD4699
S3150800074080BC70472C10024000000000000000002A
S3150800075080B483B000AF7860064B1B6823F4704200
S315080007607B681B03034913430B6000BF0C37BD4668
S3150800077080BC70472C1002400000000000000000FA
S3150800078080B483B000AF7860064B1B6823F48032D0
S315080007907B681B04034913430B6000BF0C37BD4637
S315080007A080BC7047041002400000000000000000F2
S315080007B080B483B000AF7860064B1B6823F4003220
S315080007C07B685B04034913430B6000BF0C37BD46C7
S315080007D080BC7047041002400000000000000000C2
S315080007E080B483B000AF7860064B1B6823F44042A0
S315080007F07B689B03034913430B6000BF0C37BD4658
S3150800080080BC704704100240000000000000000091
S3150800081080B483B000AF7860064B1B6823F460523F
S315080008207B68DB02034913430B6000BF0C37BD46E8
S3150800083080BC704704100240000000000000000061
S3150800084080B483B000AF7860064B1B6823F4E0627F
S315080008507B681B02034913430B6000BF0C37BD4678
S3150800086080BC704704100240000000000000000031
S3150800087080B483B000AF7860064B1B6823F0F002A3
S315080008807B681B01034913430B6000BF0C37BD4649
S3150800089080BC704704100240000000000000000001
S315080008A080B483B000AF78607B68002B06D0094B14
S315080008B01B68084A43F48003136005E0054B1B6870
S315080008C0044A23F48003136000BF0C37BD4680BC7E
S315080008D0704700BF0410024000000000000000003E
S315080008E080B483B000AF7860064B1B6823F00F0214
S315080008F004497B6813430B6000BF0C37BD4680BCB8
S31508000900704700BF2C1002400000000000000000E5
S3150800091080B483B000AF7860064B1B6823F0F00202
S315080009207B681B01034913430B6000BF0C37BD46A8
S3150800093080BC70472C100240000000000000000038
S3150800094080B483B000AF78607B68002B06D0094B73
S315080009501B68084A43F48033136005E0054B1B689F
S31508000960044A23F48033136000BF0C37BD4680BCAD
S31508000970704700BF2C100240000000000000000075
S3150800098080B582B000AF78607B685B78012B06D1B2
S315080009900320FFF73DFE0320FFF722FE05E00420B3
S315080009A0FFF736FE0420FFF71BFE7B689B78184688
S315080009B0FFF75EFF7B68DB781846FFF741FF7B6829
S315080009C01B791846FFF724FF7B685B791846FFF703
S315080009D007FF7B681B7B1846FFF762FF7B689B79DE
S315080009E0184600F00DF97B681B781846FFF780FE5D
S315080009F07B685B781846FFF7C3FE7B68DB79012BBB
S31508000A0005D97B68DB791846FFF76AFF04E07B683F
S31508000A10DB791846FFF7CCFE7B681B7A002B04D0DF
S31508000A207B681B7A1846FFF78BFF7B685B7A002B7F
S31508000A3004D07B685B7A1846FFF76AFF7B689B7A67
S31508000A40002B0AD07B689B7A1846FFF769FE0120BF
S31508000A50FFF7DEFD0120FFF7C3FD7B68DB7A002B7D
S31508000A600AD07B68DB7A1846FFF772FE0220FFF78A
S31508000A70CFFD0220FFF7B4FD0020FFF7C9FD0020D7
S31508000A80FFF7AEFD0220FFF71BFE7B681B69074ACE
S31508000A9013607B685B69064A13607B689B69054A35
S31508000AA0136000BF0837BD4680BD00BF1008002090
S31508000AB0080800200C0800200000000000000000C4
S31508000AC080B489B000AF7860084611461A460346D6
S31508000AD0FB700B46BB7013463B8000237B820023CA
S31508000AE0BB6100237B610023FB607B681B68BB61DD
S31508000AF07B6804331B687B610023FB8344E03A88E8
S31508000B00FB8B42FA03F303F00103002B38D0FB8B6F
S31508000B10072B03D8FB8B9B009BB204E0FB8B083B9F
S31508000B209BB29B009BB27B82FB8B072B01D8BB69D0
S31508000B3000E07B69FB607B8A0F2202FA03F3DB4342
S31508000B401A46FB681340FB60FA787B8A9A40B978A4
S31508000B507B8A023301FA03F313431A46FB681343ED
S31508000B60FB60FB8B072B01D8FB6800E0BB69BB6108
S31508000B70FB8B072B01D9FB6800E07B697B6100E0F2
S31508000B8000BFFB8B0133FB83FB8B0F2BB7D97B682D
S31508000B90BA691A607B6804331A467B69136000BF1A
S31508000BA02437BD4680BC70470000000000000000E6
S31508000BB080B483B000AF0346FB80FB885B099BB219
S31508000BC003F1804303F504331A68FB8803F01F0317
S31508000BD0012101FA03F31846FB885B099BB203F16E
S31508000BE0804303F50433194642EA00030B6000BF4D
S31508000BF00C37BD4680BC70470000000000000000AE
S31508000C0080B485B000AF7860094B1B68FB60FB6851
S31508000C1023F00703FB60FA687B681343FB60044A0A
S31508000C20FB68136000BF1437BD4680BC704700BF21
S31508000C300020024000000000000000000000000044
S31508000C4080B483B000AF78600B467B807B68103336
S31508000C501A467B88136000BF0C37BD4680BC7047B8
S31508000C6080B483B000AF78600B467B807B881A041B
S31508000C707B6810331A6000BF0C37BD4680BC7047CE
S31508000C8080B582B000AF78600B467B80786800F04C
S31508000C902FF803461A467B8813409BB21846083736
S31508000CA0BD4680BD000000000000000000000000F6
S31508000CB080B485B000AF78600B467B807B680C33C8
S31508000CC01B68FB607A88FB6813401A04FB68D943E3
S31508000CD07B880B407968103113430B6000BF1437CB
S31508000CE0BD4680BC70470000000000000000000000
S31508000CF080B483B000AF78607B6808331B689BB20A
S31508000D0018460C37BD4680BC70470000000000003E
S31508000D1080B582B000AF78607B681A687B689B886C
S31508000D2019461046FFF7C4FF00BF0837BD4680BD09
S31508000D3080B582B000AF78607B681A687B689B884C
S31508000D4019461046FFF77CFF00BF0837BD4680BD31
S31508000D5080B582B000AF78607B681A687B689B882C
S31508000D6019461046FFF77CFF00BF0837BD4680BD11
S31508000D7080B582B000AF78607B681A687B689B880C
S31508000D8019461046FFF77CFF0346002B14BF0123C4
S31508000D900023DBB218460837BD4680BD00000000B8
S31508000DA080B582B000AF1E4B5B785BB2002B0BDCC4
S31508000DB01B4B9B785BB2DBB2013BDBB25BB2184ADA
S31508000DC019469170002B08DD154B1B78DBB2144AC7
S31508000DD01B01134420331B681EE000237B6017E0C9
S31508000DE000F03EF80346DBB2184600F021F83860FA
S31508000DF03B685B7A5BB2002B07DD3B685B7A5AB2CD
S31508000E00074B9A703B68DB6806E07B6801337B60BA
S31508000E107B68072BE4DD002318460837BD4680BDEE
S31508000E20680C002000000000000000000000000020
S31508000E3080B483B000AF0346FB71FB79072B06D855
S31508000E40FB7901331B01054A1344043300E00023F0
S31508000E5018460C37BD4680BC704700BF680C00209A
S31508000E6080B400AF0B4B1B78DBB2062B04D9094BB9
S31508000E7000221A70002308E0064B1B78DBB2013308
S31508000E80DAB2044B1146197013461846BD4680BCA3
S31508000E90704700BF680C002000000000000000003A
S31508000EA000BF00B5EFF3098020E9F00F80F3098849
S31508000EB0144B1B78DBB21C46FFF762FA024611494F
S31508000EC023010B4420331A600E4B5B6801330D4A2D
S31508000ED05360FFF75DFA0B4B9B68002B02D0094B5A
S31508000EE09B689847FFF75CFF0446002C01D084F303
S31508000EF00988EFF30980B0E8F00F80F3098800BD90
S31508000F0000BF00BF680C00200000000000000000C1
S31508000F1000BF00B5EFF3098020E9F00F80F30988D8
S31508000F20134B1B78DBB21C46FFF72AFA0246104918
S31508000F3023010B4420331A60FFF73AFA0C4B0022C0
S31508000F409A700B4BDB68002B02D0094BDB6898477D
S31508000F50FFF726FF0446002C01D084F30988EFF337
S31508000F600980B0E8F00F80F3098800BD00BF00BF14
S31508000F70680C0020000000000000000000000000CF
S31508000F8080B586B002AF7860942200210F4800F041
S31508000F906FF90023FB6009E00C4AFB681B01134448
S31508000FA01D33FF221A70FB680133FB60FB68072BB1
S31508000FB0F2DD00230093002300220021786800F068
S31508000FC067F8034618461037BD4680BD680C0020F2
S31508000FD080B400AF024B5B681846BD4680BC7047BC
S31508000FE0680C00200000000000000000000000005F
S31508000FF080B582B000AF78600121786800F098F873
S3150800100000BF0837BD4680BD000000000000000094
S3150800101080B400AF064B5B785BB2DBB20133DBB260
S315080010205AB2034B5A7000BFBD4680BC704700BF1A
S31508001030680C00200000000000000000000000000E
S3150800104080B400AF064B5B785BB2DBB2013BDBB228
S315080010505AB2034B5A7000BFBD4680BC704700BFEA
S31508001060680C0020000000000000000000000000DE
S3150800107080B500AFFFF7ACF900BF80BD00000000E7
S3150800108080B400AFFEE7000000000000000000008A
S3150800109080B588B000AFF860B9607A603B6000F050
S315080010A067F8F861FB69002B35DBFB69DBB218468C
S315080010B0FFF7BEFEB861BB68002B06D13B68002B64
S315080010C003D1BB6901225A721FE010237B61BA6AF9
S315080010D07B69D31A9B003A6813443B61402200217E
S315080010E0386900F0C5F87A683B691A620C4A3B69A8
S315080010F05A63BA683B699A633869FFF779F9BB6935
S315080011003A69DA60BB6900225A72BB690822F96833
S31508001110184600F0CDF8FB6918462037BD4680BD55
S315080011208110000800000000000000000000000018
S3150800113080B584B000AF78600B46FB707B68DBB285
S315080011401846FFF775FEF860FB68002B04D0FB68AD
S31508001150FA785A727B6801E04FF0FF331846103769
S31508001160BD4680BD00000000000000000000000031
S3150800117080B483B000AF00237B6015E00F4A7B681C
S315080011801B0113441D331B785BB2B3F1FF3F08D133
S315080011900A4A7B681B0113441D3300221A707B68B8
S315080011A007E07B6801337B607B68072BE6DD4FF041
S315080011B0FF3318460C37BD4680BC7047680C0020C4
S315080011C0B0B485B000AFF860B9607A607B68082B68
S315080011D035D9FC68BD6809E02A46551C23465C1CBF
S315080011E092F900201A707B68013B7B607B68002BB4
S315080011F013D0234603F00303002BEDD12B4603F04F
S315080012000303002BE8D108E02A46151D23461C1DBA
S3150800121012681A607B68043B7B607B68032BF3D8F3
S3150800122009E02A46551C23465C1C92F900201A70D0
S315080012307B68013B7B607B68002BF2D10FE0FC6882
S31508001240BD6809E02A46551C23465C1C92F9002015
S315080012501A707B68013B7B607B68002BF2D1FB68C8
S3150800126018461437BD46B0BC7047000000000000A1
S3150800127080B487B000AFF860B9607A60FB687B61BC
S3150800128005E07B695A1C7A61BA68D2B21A707B6823
S315080012905A1E7A60002BF4D1FB6818461C37BD46E7
S315080012A080BC70470000000000000000000000003D
S315080012B080B487B000AFF860B9607A60FB687B617C
S315080012C000BF7B685A1E7A60002B0CD0BA68531C84
S315080012D0BB60FB68591CF96092F900201A7093F9F3
S315080012E00030002BEDD17B6918461C37BD4680BC03
S315080012F07047000000000000000000000000000029
S3150800130080B586B000AF78603960FFF781FE544B30
S315080013101B680133524A1360514B1B68013B514A03
S31508001320136000BF4E4B1B68012BFBDC4D4B1A6844
S315080013301346DB009B1A9B004B4A13441C220021D0
S315080013401846FFF795FF3A687B68D31A7B617B6975
S315080013509B0A3B613B69DB007A69D31AFB60FB6831
S315080013605909404B1A6808463F491346DB009B1A41
S315080013709B000B44103318603A4B1A683A491346D7
S31508001380DB009B1A9B000B4410331B685B09990012
S31508001390344B1A68084634491346DB009B1A9B00EF
S315080013A00B44083318602F4B1A682F491346DB0085
S315080013B09B1A9B000B447A681A603B699A007B6803
S315080013C0D118284B1A68084627491346DB009B1A8A
S315080013D09B000B44043318603B69DA007B68D1181C
S315080013E0204B1A68084620491346DB009B1A9B00C7
S315080013F00B440C3318601B4B1A681B491346DB0059
S315080014009B1A9B000B441868164B1A681649134614
S31508001410DB009B1A9B000B4408331B681A46002105
S31508001420FFF726FF0F4B1A680F491346DB009B1A76
S315080014309B000B44043318680A4B1A680A4913467A
S31508001440DB009B1A9B000B4408331B681A460021D5
S31508001450FFF70EFFFFF7F4FD00BF1837BD4680BD46
S31508001460180D00201C0D0020FC0C002000000000B8
S3150800147080B582B002AF1348FFF782FD0346124AD1
S315080014801360114B1B68002B17DB4FF48063009326
S315080014900E4B00220E490F48FFF7FAFD03460E4A87
S315080014A013600D4B1B68002B07DB0B4B1B6818469C
S315080014B0FFF79EFD00F014F8FCE700231846BD462A
S315080014C080BD00BFF017000818080020200D002076
S315080014D071160008F817000814080020000000001C
S315080014E080B500AFFFF7C4FD00BF80BD0000000057
S315080014F080B584B000AFF860B9601346FB710C2262
S315080015000021F868FFF7B4FEFB68BA681A60FB6842
S31508001510FA791A7100BF1037BD4680BD0000000079
S3150800152080B582B000AF78607B685B79002B24D0E9
S31508001530FFF74EFD02467B689B68D31A7A68D28805
S3150800154093421AD9786800F03BF87B685B79FF2BE1
S315080015500ED0786800F044F8034683F00103DBB246
S31508001560002B05D07B685B79013BDAB27B685A7140
S31508001570FFF72EFD02467B689A6000BF0837BD4616
S3150800158080BD000000000000000000000000000010
S3150800159080B582B000AF78607B681B79002B05D0D8
S315080015A07B681B681846FFF7D3FB04E07B681B685B
S315080015B01846FFF7BDFB00BF0837BD4680BD0000D3
S315080015C080B582B000AF78607B681B681846FFF765
S315080015D09FFB00BF0837BD4680BD00000000000025
S315080015E080B582B000AF78607B681B79002B11D07C
S315080015F07B681B681846FFF7BBFB0346002B14BF26
S3150800160001230023DBB283F00103DBB203F00103FD
S31508001610DBB205E07B681B681846FFF7A9FB0346A3
S3150800162018460837BD4680BD0000000000000000CF
S3150800163080B582B000AF78600B46FB7013463B80DE
S315080016407B685B79002B0DD17B68FA785A717B68C9
S315080016503A88DA807868FFF79BFFFFF7B9FC0246FD
S315080016607B689A6000BF0837BD4680BD0000000051
S3150800167080B582B000AF7860012206490648FFF7B8
S3150800168037FF4022FF210448FFF7D2FF0248FFF741
S3150800169047FFFBE700080020201D0020000000008F
S315080016A00030A0E310402DE90010A0E10320A0E1DE
S315080016B00300A0E11D0000EB1040BDE81EFF2FE16E
S315080016C070402DE930509FE530409FE5044045E0E5
S315080016D04441B0E10500000A043035E5014044E222
S315080016E00FE0A0E113FF2FE1000054E3F9FFFF1A12
S315080016F06B0000EB7040BDE81EFF2FE1F800000804
S31508001700F4000008000000000000000000000000CF
S315080017101EFF2FE10000000000000000000000008E
S315080017201EFF2FE10000000000000000000000007E
S31508001730F0412DE9A8809FE50040A0E1000098E56A
S315080017400360A0E10150A0E10270A0E1EFFFFFEB0A
S3150800175090309FE5003093E548C193E500005CE3CF
S3150800176053CF830204E09CE548C183051F005EE36E
S31508001770170000CA000054E30800001A01308EE280
S3150800178002E08EE204308CE5000098E50E518CE705
S31508001790E2FFFFEB0000A0E3F041BDE81EFF2FE1EA
S315080017A00130A0E30E118CE0887081E588219CE564
S315080017B0133EA0E1032082E188218CE5086181E5DA
S315080017C0020054E38C219C05033082018C318C0580
S315080017D0E9FFFFEA000098E5D0FFFFEB0000E0E331
S315080017E0ECFFFFEA480C0020A018000800000000E3
S315080017F06D61696E00000000666561747572655FEB
S315080018006D61696E00000000000000000000000025
S3150800181004010004000202000000000000000000AD
S3150800182000A24A040051250200A24A040701000446
S3150800183000020201000000000000000000A24A04A5
S315080018400051250200A24A0407010004000202040E
S31508001850010406000000000000A24A040051250207
S3150800186000A24A0401010000000000000000000078
S315080018700000000000366E0100366E0100366E016B
S315080018800701000400030200000000000000000039
S3150800189000A24A040051250200A24A0400000000E2
S309080018A020080020EE
S311080018A40DC0A0E1F8DF2DE904B04CE20D
S315080018B0001001400020000000127A0000127A0091
S315080018C000127A00FFFFFFFFFFFFFFFF0000000086
S315080018D0000000000C0B0020740B0020DC0B00201D
S315080018E000000000000000000000000000000000EA
S315080018F000000000000000000000000000000000DA
S3150800190000000000000000000000000000000000C9
S3150800191000000000000000000000000000000000B9
S3150800192000000000000000000000000000000000A9
S315080019300000000000000000000000000000000099
S315080019400000000000000000000000000000000089
S315080019500000000000000000000000000000000079
S315080019600000000000000000000000000000000069
S315080019700000000000000000010000000000000058
S315080019800E33CDAB34126DE6ECDE05000B0000001D
S315080019900000000000000000000000000000000039
S315080019A00000000000000000000000000000000029
S315080019B00000000000000000000000000000000019
S315080019C00000000000000000000000000000000009
S31108001CF000000000000000002C1D002071
S70508000141B0
