S0100000626C756570696C6C2E73726563BB
S315080000000004002041010008760100087801000874
S3150800001076010008760100087601000876010008D6
S3150800002076010008760100087601000876010008C6
S31508000030760100087601000841500008D14F0008F3
S3150800004076010008760100087601000876010008A6
S315080000507601000876010008760100087601000896
S315080000607601000876010008760100087601000886
S315080000707601000876010008760100087601000876
S315080000807601000876010008760100087601000866
S315080000907601000876010008760100087601000856
S315080000A07601000876010008760100087601000846
S315080000B07601000876010008760100087601000836
S315080000C07601000876010008760100087601000826
S315080000D07601000876010008760100087601000816
S311080000E076010008760100087601000889
S30D080000EC00010008E00100080C
S309080000F4A001000851
S3150800010018309FE5000053E31EFF2F0110402DE92C
S315080001100C009FE5D91700EB1040BDE81EFF2FE144
S3150800012000000000A06000080000000000000000B9
S315080001300DC0A0E1F8DF2DE904B04CE20000000094
S3150800014072B60E4885460E4880F30988022080F369
S315080001501488BFF36F8F0B4A90470B4A90470B489A
S315080001600B490C4A9047002000218646EC460A4A6D
S3150800017090470A4A9047FEE7FFF7FEBF00040020B3
S315080001800008002091180008F1160008D81F002062
S3150800019000500020B154000821560008D118000864
S315080001A010402DE928409FE50030D4E5000053E3D0
S315080001B00500001A1C309FE5000053E318009F1540
S315080001C000F020130130A0E30030C4E51040BDE87C
S315080001D01EFF2FE18C0C002000000000AC65000813
S315080001E01C309FE5000053E31EFF2F0110402DE948
S315080001F010109FE510009FE500F020E31040BDE8D1
S315080002001EFF2FE100000000900C0020AC650008DE
S3150800021081F0004102E000BF83F0004330B54FEAA9
S3150800022041044FEA430594EA050F08BF90EA020F16
S315080002301FBF54EA000C55EA020C7FEA645C7FEAA9
S31508000240655C00F0E2804FEA5454D4EB5555B8BFCC
S315080002506D420CDD2C4480EA020281EA030382EA3D
S31508000260000083EA010180EA020281EA0303362DCF
S3150800027088BF30BD11F0004F4FEA01314FF4801CA2
S315080002804CEA113102D0404261EB410113F0004FB4
S315080002904FEA03334CEA133302D0524263EB43036B
S315080002A094EA050F00F0A780A4F10104D5F1200E09
S315080002B00DDB02FA0EFC22FA05F2801841F1000164
S315080002C003FA0EF2801843FA05F359410EE0A5F138
S315080002D020050EF1200E012A03FA0EFC28BF4CF069
S315080002E0020C43FA05F3C01851EBE37101F000451F
S315080002F007D54FF0000EDCF1000C7EEB00006EEB2C
S315080003000101B1F5801F1BD3B1F5001F0CD34908B5
S315080003105FEA30004FEA3C0C04F101044FEA44520C
S3150800032012F5800F80F09A80BCF1004F08BF5FEA93
S31508000330500C50F1000041EB045141EA050130BD73
S315080003405FEA4C0C404141EB0101013C28BFB1F585
S31508000350801FE9D291F0000F04BF01460020B1FAD0
S3150800036081F308BF2033A3F10B03B3F120020CDAA3
S315080003700C3208DD02F1140CC2F10C0201FA0CF081
S3150800038021FA02F10CE002F11402D8BFC2F1200CE6
S3150800039001FA02F120FA0CFCDCBF41EA0C0190409C
S315080003A0E41AA2BF01EB0451294330BD6FEA0404E5
S315080003B01F3C1CDA0C340EDC04F11404C4F12002D0
S315080003C020FA04F001FA02F340EA030021FA04F3E2
S315080003D045EA030130BDC4F10C04C4F1200220FA39
S315080003E002F001FA04F340EA0300294630BD21FA77
S315080003F004F0294630BD94F0000F83F4801306BF3D
S3150800040081F480110134013D4EE77FEA645C18BF30
S315080004107FEA655C29D094EA050F08BF90EA020FC7
S3150800042005D054EA000C04BF1946104630BD91EABF
S31508000430030F1EBF0021002030BD5FEA545C05D1C2
S315080004404000494128BF41F0004130BD14F5800401
S315080004503CBF01F5801130BD01F0004545F0FE4175
S3150800046041F470014FF0000030BD7FEA645C1ABFAA
S31508000470194610467FEA655C1CBF0B46024650EAE1
S31508000480013406BF52EA033591EA030F41F400210D
S3150800049030BD00BF90F0000F04BF0021704730B593
S315080004A04FF4806404F132044FF000054FF0000168
S315080004B050E700BF90F0000F04BF0021704730B529
S315080004C04FF4806404F1320410F0004548BF4042FE
S315080004D04FF000013EE700BF42004FEAE2014FEA53
S315080004E031014FEA02701FBF12F07F4393F07F4F2E
S315080004F081F06051704732F07F4208BF704793F031
S315080005007F4F04BF41F40021704730B54FF4607443
S3150800051001F0004521F000411CE700BF50EA010246
S3150800052008BF704730B54FF000050AE050EA0102EF
S3150800053008BF704730B511F0004502D5404261EB5F
S3150800054041014FF4806404F132045FEA915C3FF4A0
S31508000550D8AE4FF003025FEADC0C18BF03325FEA3D
S31508000560DC0C18BF033202EBDC02C2F1200300FAEE
S3150800057003FC20FA02F001FA03FE40EA0E0021FA13
S3150800058002F11444BDE600BF0000000000000000B0
S315080005904FEA410212F5001215D211D56FF478739D
S315080005A0B3EB625212D94FEAC12343F0004343EA40
S315080005B0505311F0004F23FA02F018BF404270471B
S315080005C04FF00000704750EA013005D111F00040A5
S315080005D008BF6FF0004070474FF00000704700BF3B
S315080005E04FEA4102B2F1E04324BFB3F5001CDCF147
S315080005F0FE5C0DD901F0004C4FEAC0024CEA50707F
S31508000600B2F1004F40EB830008BF20F001007047AD
S3150800061011F0804F21D113F13872BCBF01F00040B0
S31508000620704741F480114FEA5252C2F11802C2F1E2
S31508000630200C10FA0CF320FA02F018BF40F0010063
S315080006404FEAC1234FEAD32303FA0CFC40EA0C0015
S3150800065023FA02F34FEA4303CCE77FEA625307D152
S3150800066050EA01331EBF4FF0FE4040F44000704789
S3150800067001F0004040F0FE4040F40000704700BF23
S3150800068080F0004002E000BF81F0004142001FBF39
S315080006905FEA410392EA030F7FEA226C7FEA236C42
S315080006A06AD04FEA1262D2EB1363C1BFD218414037
S315080006B048404140B8BF5B42192B88BF704710F0CD
S315080006C0004F40F4000020F07F4018BF404211F070
S315080006D0004F41F4000121F07F4118BF494292EAD8
S315080006E0030F3FD0A2F1010241FA03FC10EB0C0004
S315080006F0C3F1200301FA03F100F0004302D5494291
S3150800070060EB4000B0F5000F13D3B0F1807F06D33D
S3150800071040084FEA310102F10102FE2A51D2B1F135
S31508000720004F40EBC25008BF20F0010040EA03002A
S315080007307047490040EB0000013A28BFB0F5000FAA
S31508000740EDD2B0FA80FCACF1080CB2EB0C0200FA60
S315080007500CF0AABF00EBC25052421843BCBFD040AF
S315080007601843704792F0000F81F4000106BF80F429
S3150800077000000132013BB5E74FEA41037FEA226CEC
S3150800078018BF7FEA236C21D092EA030F04D092F0B7
S31508000790000F08BF0846704790EA010F1CBF0020EB
S315080007A0704712F07F4F04D1400028BF40F0004048
S315080007B0704712F100723CBF00F50000704700F068
S315080007C0004343F0FE4040F4000070477FEA22628F
S315080007D016BF08467FEA23630146420206BF5FEA60
S315080007E0412390EA010F40F4800070474FF0000360
S315080007F004E000BF10F0004348BF40425FEA000C27
S3150800080008BF704743F0964301464FF000001CE0CE
S3150800081050EA010208BF70474FF000030AE000BF24
S3150800082050EA010208BF704711F0004302D5404262
S3150800083061EB41015FEA010C02BF844601460020D4
S3150800084043F0B64308BFA3F18053A3F50003BCFAEF
S315080008508CF2083AA3EBC25310DB01FA02FC63449C
S3150800086000FA02FCC2F12002BCF1004F20FA02F2A3
S3150800087043EB020008BF20F00100704702F1200296
S3150800088001FA02FCC2F1200250EA4C0021FA02F2F7
S3150800089043EB020008BF20EADC7070470000000046
S315080008A04FF0FF0C1CEAD0521EBF1CEAD15392EA45
S315080008B00C0F93EA0C0F6FD01A4480EA010C400221
S315080008C018BF5FEA41211ED04FF0006343EA50107B
S315080008D043EA5111A0FB01310CF00040B1F5000FBD
S315080008E03EBF490041EAD3715B0040EA010062F16C
S315080008F07F02FD2A1DD8B3F1004F40EBC25008BF56
S3150800090020F00100704790F0000F0CF0004C08BF73
S3150800091049024CEA502040EA51207F3AC2BFD2F140
S31508000920FF0340EAC250704740F400004FF000034E
S31508000930013A5DDC12F1190FDCBF00F00040704788
S31508000940C2F10002410021FA02F1C2F1200200FAC6
S3150800095002FC5FEA310040F1000053EA4C0308BF8D
S3150800096020EADC70704792F0000F00F0004C02BFDE
S31508000970400010F4000F013AF9D040EA0C0093F059
S31508000980000F01F0004C02BF490011F4000F013BB3
S31508000990F9D041EA0C018FE70CEAD15392EA0C0F21
S315080009A018BF93EA0C0F0AD030F0004C18BF31F08C
S315080009B0004CD8D180EA010000F00040704790F062
S315080009C0000F17BF90F0004F084691F0000F91F006
S315080009D0004F14D092EA0C0F01D142020FD193EACC
S315080009E00C0F03D14B0218BF084608D180EA010054
S315080009F000F0004040F0FE4040F40000704740F030
S31508000A00FE4040F4400070474FF0FF0C1CEAD052FD
S31508000A101EBF1CEAD15392EA0C0F93EA0C0F69D059
S31508000A20A2EB030280EA010C49024FEA402037D0C4
S31508000A304FF0805343EA111143EA10130CF00040BB
S31508000A408B4238BF5B0042F17D024FF4000C8B42AB
S31508000A5024BF5B1A40EA0C00B3EB510F24BFA3EB8B
S31508000A60510340EA5C00B3EB910F24BFA3EB91035B
S31508000A7040EA9C00B3EBD10F24BFA3EBD10340EAB5
S31508000A80DC001B0118BF5FEA1C1CE0D1FD2A3FF6FB
S31508000A9050AF8B4240EBC25008BF20F001007047B0
S31508000AA00CF0004C4CEA50207F32C2BFD2F1FF0353
S31508000AB040EAC250704740F400004FF00003013A84
S31508000AC037E792F0000F00F0004C02BF400010F428
S31508000AD0000F013AF9D040EA0C0093F0000F01F03C
S31508000AE0004C02BF490011F4000F013BF9D041EA5E
S31508000AF00C0195E70CEAD15392EA0C0F08D1420291
S31508000B007FF47DAF93EA0C0F7FF470AF084676E763
S31508000B1093EA0C0F04D14B023FF44CAF08466EE73C
S31508000B2030F0004C18BF31F0004CCAD130F000420A
S31508000B307FF45CAF31F000437FF43CAF5FE700BF62
S31508000B404FF0FF3C06E000BF4FF0010C02E000BF8B
S31508000B504FF0010C4DF804CD4FEA40024FEA41032D
S31508000B607FEA226C18BF7FEA236C11D001B052EAE3
S31508000B70530C18BF90EA010F58BFB2EB030088BFA9
S31508000B80C81738BF6FEAE17018BF40F00100704718
S31508000B907FEA226C02D15FEA402C05D17FEA236CFA
S31508000BA0E4D15FEA412CE1D05DF8040B704700BF41
S31508000BB0844608466146FFE70FB5FFF7C9FF0028D8
S31508000BC048BF10F1000F0FBD4DF808EDFFF7F4FF11
S31508000BD00CBF012000205DF808FB00BF4DF808EDAA
S31508000BE0FFF7EAFF34BF012000205DF808FB00BFCD
S31508000BF04DF808EDFFF7E0FF94BF012000205DF8EF
S31508000C0008FB00BF4DF808EDFFF7D2FF94BF01209F
S31508000C1000205DF808FB00BF4DF808EDFFF7C8FF98
S31508000C2034BF012000205DF808FB00BF000000006B
S31508000C304FEA4002B2F1FE4F0FD34FF09E03B3EBDB
S31508000C4012620DD94FEA002343F0004310F0004F1B
S31508000C5023FA02F018BF404270474FF00000704771
S31508000C6012F1610F01D1420205D110F0004008BF10
S31508000C706FF0004070474FF000007047000000001A
S31508000C8053B94AB9002908BF00281CBF4FF0FF31E5
S31508000C904FF0FF3000F07CB9ADF1080C6DE904CED9
S31508000CA000F006F8DDF804E0DDE9022304B0704739
S31508000CB02DE9F047089E0D4604468846002B4DD17F
S31508000CC08A42944668D9B2FA82F252B101FA02F31C
S31508000CD0C2F1200120FA01F10CFA02FC41EA0308EC
S31508000CE094404FEA1C41B8FBF1F71FFA8CFE01FB52
S31508000CF0178807FB0EF0230C43EA084398420AD9E3
S31508000D001CEB030307F1FF3580F01E81984240F281
S31508000D101B81023F63441B1AB3FBF1F001FB10333E
S31508000D2000FB0EFEA4B244EA0344A6450AD91CEB0E
S31508000D30040400F1FF3380F00981A64540F20681DC
S31508000D40644402380021A4EB0E0440EA07401EB1B1
S31508000D500023D440C6E90043BDE8F0878B4208D992
S31508000D60002E00F0EE800021C6E900050846BDE821
S31508000D70F087B3FA83F100294AD1AB4202D3824203
S31508000D8000F2FC80841A65EB030301209846002EC6
S31508000D90E2D0C6E90048DFE702B9FFDEB2FA82F21E
S31508000DA0002A40F09180A1EB0C0001214FEA1C4774
S31508000DB01FFA8CFEB0FBF7F307FB1300250C45EA78
S31508000DC000450EFB03F0A84208D91CEB050503F104
S31508000DD0FF3802D2A84200F2CE8043462D1AB5FB50
S31508000DE0F7F007FB10550EFB00FEA4B244EA0544D3
S31508000DF0A64508D91CEB040400F1FF3502D2A64526
S31508000E0000F2B6802846A4EB0E0440EA03409EE7AB
S31508000E10C1F120078B4022FA07FC4CEA030C25FA9D
S31508000E2007FA4FEA1C49BAFBF9F820FA07F309FB57
S31508000E3018AA8D401FFA8CFE1D4300FA01F308FB21
S31508000E400EF02C0C44EA0A44A04202FA01F20BD92D
S31508000E501CEB040408F1FF3A80F08880A04240F2B7
S31508000E608580A8F102086444241AB4FBF9F009FB4A
S31508000E70104400FB0EFEADB245EA0444A64508D967
S31508000E801CEB040400F1FF356CD2A6456AD902387A
S31508000E90644440EA0840A0FB0295A4EB0E04AC4269
S31508000EA0C846AE4656D353D0002E69D0B3EB0802D7
S31508000EB064EB0E0422FA01F304FA07F71F43CC4049
S31508000EC0C6E90074002147E70CFA02FCC2F12001CA
S31508000ED025FA01F34FEA1C4720FA01F195400D4324
S31508000EE0B3FBF7F107FB11331FFA8CFE280C40EA17
S31508000EF0034001FB0EF3834204FA02F408D91CEB03
S31508000F00000001F1FF382FD283422DD902396044FF
S31508000F10C01AB0FBF7F307FB1300ADB245EA00456C
S31508000F2003FB0EF0A84208D91CEB050503F1FF38B0
S31508000F3016D2A84214D9023B6544281A43EA01414D
S31508000F4038E73146304607E72F46E4E61846F9E61D
S31508000F504B45A9D2B9EB020865EB0C0E0138A3E79D
S31508000F604346EAE7284694E74146D1E7D0467BE779
S31508000F706444023847E7023B65442FE7084606E71C
S31508000F803146E9E60000000000000000000000000D
S31508000F90704700BF000000000000000000000000CD
S31508000FA070402DE9FFC0A0E307CC8CE3214A1CE082
S31508000FB0235A1C100C0034110C0035117500000B57
S31508000FC0054084E0036021E08C1AC1E18C3AC3E154
S31508000FD0015690E103569211011681E3013683E327
S31508000FE01D00000A90C28EE00050A0E391E2A5E041
S31508000FF0022106E290E3A5E00060A0E39153A6E093
S3150800100000003CE301E08E13FF4044E2020C56E385
S31508001010034CC4E20200002A8EE0B0E10550B5E0B8
S315080010200660A6E0861582E1A51A81E18505A0E19C
S31508001030AE0A80E18EE5A0E1FDC054E2070C5C83B0
S315080010401100008A02015EE3A0E0B0010000B0E2F0
S31508001050041AA1E07040BDE81EFF2FE1026106E216
S31508001060011086E1020080E1031021E0AC4054E063
S315080010700C5074C0041A81C17040BDC81EFF2FC130
S31508001080011681E300E0A0E3014054E25D0000CAD6
S31508001090360074E30000A0D3021101D27040BDD817
S315080010A01EFF2FD1004064E2204054E21A0000AA35
S315080010B00C4094E20C0000CA144084E2205064E21A
S315080010C01035A0E13004A0E1110580E1022101E21A
S315080010D00211C1E3A30F90E03114A2E083E09EE180
S315080010E0A30FC0017040BDE81EFF2FE10C4064E26B
S315080010F0205064E21034A0E13005A0E1110480E13B
S31508001100021101E2A30F90E00010A1E283E09EE144
S31508001110A30FC0017040BDE81EFF2FE1205064E216
S3150800112010E58EE13034A0E1113583E13104A0E108
S31508001130021101E23104C0E1A30F80E083E09EE1E1
S31508001140A30FC0017040BDE81EFF2FE1000034E385
S315080011500800001A026101E28000B0E10110A1E076
S31508001160010611E301404402FAFFFF0A061081E175
S31508001170000035E31EFF2F11026103E28220B0E171
S315080011800330A3E0010613E301504502FAFFFF0A04
S31508001190063083E11EFF2FE10C0034E1235A0CE0F0
S315080011A00C0035110700000A816090E183609211F6
S315080011B0E5FFFF1A031021E0021101E20000A0E397
S315080011C07040BDE81EFF2FE1816090E10200A0019A
S315080011D00310A001836092111000000A0C0034E18C
S315080011E00100001A016690E10C00001A0C0035E1B6
S315080011F00300001A036692E10200A0110310A01171
S315080012000600001A031021E0021101E27F1481E3AF
S315080012100F1681E30000A0E37040BDE81EFF2FE132
S315080012207F1481E33E1781E37040BDE81EFF2FE17E
S3150800123070402DE9FFC0A0E307CC8CE3214A1CE0EF
S31508001240235A1C100C0034110C0035115E00000BDB
S31508001250054044E003E021E0035692E10116A0E1CF
S315080012604C00000A0336A0E10152A0E3233285E1CF
S31508001270223C83E10224A0E1215285E1205C85E13C
S315080012800064A0E102110EE2030055E102005601D6
S31508001290FD40A4E2034C84E20100002AA330B0E139
S315080012A06220A0E1026056E00350C5E0A330B0E139
S315080012B06220A0E10106A0E302C7A0E302E056E02F
S315080012C003E0D5E0026046200E50A0210C008021E4
S315080012D0A330B0E16220A0E102E056E003E0D5E0E9
S315080012E0026046200E50A021AC008021A330B0E158
S315080012F06220A0E102E056E003E0D5E00260462065
S315080013000E50A0212C018021A330B0E16220A0E17B
S3150800131002E056E003E0D5E0026046200E50A02128
S31508001320AC01802106E095E10D00000A0552A0E116
S31508001330265E85E10662A0E18331A0E1A23E83E153
S315080013408221A0E12CC2B0E1DBFFFF1A010611E3FE
S315080013500600001A001081E10000A0E302C1A0E324
S31508001360D5FFFFEA010611E3001081010000A00382
S31508001370FDC054E2070C5C8343FFFF8A03C055E0B7
S3150800138002C05600A0C0B0010000B0E2041AA1E0F5
S315080013907040BDE81EFF2FE102E10EE221168EE144
S315080013A0AC4094E00C5074C0041A81C17040BDC8AA
S315080013B01EFF2FC1011681E300E0A0E3014054E2BD
S315080013C031FFFFEA06E085E12FFFFFEA235A0CE02A
S315080013D00C0034E10C00350190FFFF0A0C0034E1E3
S315080013E00600001A014690E18CFFFF1A0C0035E151
S315080013F083FFFF1A0200A0E10310A0E187FFFFEABE
S315080014000C0035E10400001A035692E168FFFF0A52
S315080014100200A0E10310A0E180FFFFEA816090E1ED
S315080014208360921148FFFF1A814090E174FFFF1A0A
S31508001430835092E15EFFFF1A78FFFFEA0000000082
S3150800144000C0E0E3020000EA01C0A0E3000000EAF1
S3150800145001C0A0E304C02DE581C0A0E1CCCAF0E13B
S3150800146083C0A0E1CCCAF0110E00000A04D08DE2B8
S3150800147081C090E183C0920103003111020030015E
S315080014800000A0031EFF2F01000070E3030031E1F6
S315080014900300515102005001C30FA021C30FE031D0
S315080014A0010080E31EFF2FE181C0A0E1CCCAF0E174
S315080014B00100001A01C690E10400001A83C0A0E1E9
S315080014C0CCCAF0E1E8FFFF1A03C692E1E6FFFF0A7D
S315080014D004009DE41EFF2FE100C0A0E10200A0E188
S315080014E00C20A0E101C0A0E10310A0E10C30A0E1AE
S315080014F0FFFFFFEA01402DE9D4FFFFEB000050E3B0
S31508001500000070430140BDE81EFF2FE108E02DE50D
S31508001510F7FFFFEB0100A0030000A01308E09DE41D
S315080015201EFF2FE108E02DE5F1FFFFEB0100A033D8
S315080015300000A02308E09DE41EFF2FE108E02DE54A
S31508001540EBFFFFEB0100A0930000A08308E09DE4F9
S315080015501EFF2FE108E02DE5DEFFFFEB0100A0935B
S315080015600000A08308E09DE41EFF2FE108E02DE5BA
S31508001570D8FFFFEB0100A0330000A02308E09DE49C
S315080015801EFF2FE100000000000000000000000020
S3150800159081C0A0E1CCCAF0E10100001A01C690E1C1
S315080015A00600001A83C0A0E1CCCAF0E10100001AC7
S315080015B003C692E10100001A0000A0E31EFF2FE116
S315080015C00100A0E31EFF2FE100000000000000005C
S315080015D0012051E21EFF2F013600003A010050E1BA
S315080015E02200009A020011E12300000A0E0211E30C
S315080015F08111A0010830A0030130A013010251E3B4
S31508001600000051310112A0310332A031FAFFFF3A2E
S31508001610020151E3000051318110A0318330A0311D
S31508001620FAFFFF3A0020A0E3010050E10100402044
S3150800163003208221A10050E1A1004020A32082219D
S31508001640210150E12101402023218221A10150E1FD
S31508001650A1014020A3218221000050E32332B011CA
S315080016602112A011EFFFFF1A0200A0E11EFF2FE1D1
S315080016700100A0030000A0131EFF2FE1010851E39B
S315080016802118A0211020A0230020A033010C51E32B
S315080016902114A02108208222100051E32112A02142
S315080016A004208222040051E303208282A120829032
S315080016B03002A0E11EFF2FE1000050E30000E01316
S315080016C0C21200EA000051E3FAFFFF0A03402DE9BF
S315080016D0BEFFFFEB0640BDE8920003E0031041E0C1
S315080016E01EFF2FE1000000000000000000000000BF
S315080016F080B500AF284800F013FC4FF4407000F0A6
S3150800170027FD40F2023000F023FD40F2033000F0DE
S315080017101FFD4FF4417000F01BFD40F2053000F04C
S3150800172017FD4FF4207000F013FD40F2822000F000
S315080017300FFD40F2862000F00BFD40F20E3000F05F
S3150800174007FD40F2913000F003FD40F28B3000F0C7
S31508001750FFFC4FF4677000F0FBFC40F20D3000F020
S31508001760F7FC4FF40053002202210C4800F078FCE5
S315080017700B4802F06DFF00F01BF8034619464FF4BC
S315080017807A7000F025F900F06BF900F079F900F0AD
S31508001790BFF800BF80BD00BF2064000800100140EC
S315080017A00008002000000000000000000000000003
S315080017B080B400AF024B1846BD4680BC704700BFD8
S315080017C000A24A040000000000000000000000001B
S315080017D080B582B000AF4FF480530022022114482E
S315080017E000F03EFC4FF48051114800F009FD00233B
S315080017F07B6003E000BF7B6801337B607B680D4A32
S315080018009342F7D94FF4237000F0A2FC0A490B481B
S3150800181002F0C6FE03461A46094B1A604FF40051F9
S31508001820084800F0EDFC00BF0837BD4680BD00BF84
S3150800183000080140FF340C00E0610008406400081D
S31508001840A80C002000100140000000000000000065
S3150800185080B500AF034B1B68184602F0D9FE00BFDF
S3150800186080BD00BFA80C002000000000000000009A
S3150800187080B483B000AF0346FB7100BF0C37BD468A
S3150800188080BC704700000000000000000000000057
S3150800189080B500AF084A094BD31A1A4608490748C3
S315080018A003F026FD074A084BD31A1A4600210648B4
S315080018B003F076FD00BF80BD8C0C002000080020D8
S315080018C0B0650008D81F00208C0C0020000000001E
S315080018D080B582B000AF0A4B7B6007E07B681B6867
S315080018E03B603B6898477B6804337B607B68054AA6
S315080018F09342F3D100BF00BF0837BD4680BD00BF85
S31508001900F4000008F80000080000000000000000CD
S31508001910BFF36F8F62B6704700BF0000000000007B
S31508001920EFF3098070470023184600000000000006
S3150800193080B400AF044B5B68034A43F000735360FE
S3150800194000BFBD4680BC704700ED00E00000000007
S3150800195080B400AF044B5B68034A43F000635360EE
S3150800196000BFBD4680BC704700ED00E000000000E7
S3150800197008B5044B5B68034A43F08053536008BDBF
S3150800198000BF00BF00ED00E00000000000000000FE
S3150800199080B483B000AF78607B684FF00452DA6396
S315080019A000BF0C37BD4680BC704700000000000031
S315080019B080B483B000AF7860044A7B6823F07F4325
S315080019C0136000BF0C37BD4680BC704714E000E0CA
S315080019D080B584B000AF786039603A687B68B2FB3E
S315080019E0F3F3FB60FB680F4A934201D9002314E026
S315080019F0FB686FF07F42934206D3FB68DB08FB6007
S31508001A00002000F015F802E0042000F011F8FB6849
S31508001A10013B1846FFF7CCFF012318461037BD4691
S31508001A2080BD00BFF7FFFF070000000000000000B0
S31508001A3080B483B000AF0346FB71074B1B6823F0E5
S31508001A400402FB7903F00403034913430B6000BF48
S31508001A500C37BD4680BC704710E000E0000000006F
S31508001A6080B400AF044B1B68034A43F002031360BB
S31508001A7000BFBD4680BC704710E000E000000000D3
S31508001A8080B400AF044B1B68034A43F0010313609C
S31508001A9000BFBD4680BC704710E000E000000000B3
S31508001AA080B483B000AF0346FB71FB79062B57D889
S31508001AB001A252F823F000BFD51A0008E91A000857
S31508001AC0FD1A0008111B0008251B0008391B000811
S31508001AD04D1B0008254B1B6803F00073002B14BF31
S31508001AE001230023DBB23CE0204B1B6803F00063B4
S31508001AF0002B14BF01230023DBB232E01B4B1B680B
S31508001B0003F00053002B14BF01230023DBB228E0A7
S31508001B10164B1B6803F40033002B14BF0123002364
S31508001B20DBB21EE0114B1B6803F00203002B14BF47
S31508001B3001230023DBB214E00D4B1B6803F00203FC
S31508001B40002B14BF01230023DBB20AE0094B1B68F4
S31508001B5003F00203002B14BF01230023DBB200E0CD
S31508001B60002318460C37BD4680BC7047001002405B
S31508001B70201002402410024000000000000000006F
S31508001B8080B582B000AF0346FB7100BFFB791846EB
S31508001B90FFF786FF034683F00103DBB2002BF5D17E
S31508001BA000BF00BF0837BD4680BD0000000000002A
S31508001BB080B483B000AF0346FB71FB79062B42D88D
S31508001BC001A252F823F000BFE51B0008F31B00082A
S31508001BD0011C00080F1C00081D1C00082B1C00080F
S31508001BE0391C00081A4B1B68194A43F080731360A6
S31508001BF029E0174B1B68164A43F08063136022E0FE
S31508001C00134B1B68124A43F0805313601BE0104BBA
S31508001C101B680F4A43F48033136014E00C4B1B68AF
S31508001C200B4A43F0010313600DE00A4B1B68094A8F
S31508001C3043F00103136006E0074B1B68064A43F0AE
S31508001C400103136000BF00BF0C37BD4680BC704758
S31508001C50001002402010024024100240000000003C
S31508001C6080B483B000AF7860064B1B6823F003028C
S31508001C7004497B6813430B6000BF0C37BD4680BC24
S31508001C80704700BF0410024000000000000000007A
S31508001C9080B483B000AF7860064B1B6823F47012DB
S31508001CA07B689B04034913430B6000BF0C37BD4692
S31508001CB080BC7047041002400000000000000000CD
S31508001CC080B483B000AF7860064B1B6823F470625B
S31508001CD07B681B02034913430B6000BF0C37BD46E4
S31508001CE080BC70472C100240000000000000000075
S31508001CF080B483B000AF7860064B1B6823F470424B
S31508001D007B681B03034913430B6000BF0C37BD46B2
S31508001D1080BC70472C100240000000000000000044
S31508001D2080B483B000AF7860064B1B6823F480321A
S31508001D307B681B04034913430B6000BF0C37BD4681
S31508001D4080BC70470410024000000000000000003C
S31508001D5080B483B000AF7860064B1B6823F400326A
S31508001D607B685B04034913430B6000BF0C37BD4611
S31508001D7080BC70470410024000000000000000000C
S31508001D8080B483B000AF7860064B1B6823F44042EA
S31508001D907B689B03034913430B6000BF0C37BD46A2
S31508001DA080BC7047041002400000000000000000DC
S31508001DB080B483B000AF7860064B1B6823F460528A
S31508001DC07B68DB02034913430B6000BF0C37BD4633
S31508001DD080BC7047041002400000000000000000AC
S31508001DE080B483B000AF7860064B1B6823F4E062CA
S31508001DF07B681B02034913430B6000BF0C37BD46C3
S31508001E0080BC70470410024000000000000000007B
S31508001E1080B483B000AF7860064B1B6823F0F002ED
S31508001E207B681B01034913430B6000BF0C37BD4693
S31508001E3080BC70470410024000000000000000004B
S31508001E4080B483B000AF78607B68002B06D0094B5E
S31508001E501B68084A43F48003136005E0054B1B68BA
S31508001E60044A23F48003136000BF0C37BD4680BCC8
S31508001E70704700BF04100240000000000000000088
S31508001E8080B483B000AF7860064B1B6823F00F025E
S31508001E9004497B6813430B6000BF0C37BD4680BC02
S31508001EA0704700BF2C100240000000000000000030
S31508001EB080B483B000AF7860064B1B6823F0F0024D
S31508001EC07B681B01034913430B6000BF0C37BD46F3
S31508001ED080BC70472C100240000000000000000083
S31508001EE080B483B000AF78607B68002B06D0094BBE
S31508001EF01B68084A43F48033136005E0054B1B68EA
S31508001F00044A23F48033136000BF0C37BD4680BCF7
S31508001F10704700BF2C1002400000000000000000BF
S31508001F2080B582B000AF78607B685B78012B06D1FC
S31508001F300320FFF73DFE0320FFF722FE05E00420FD
S31508001F40FFF736FE0420FFF71BFE7B689B781846D2
S31508001F50FFF75EFF7B68DB781846FFF741FF7B6873
S31508001F601B791846FFF724FF7B685B791846FFF74D
S31508001F7007FF7B681B7B1846FFF762FF7B689B7928
S31508001F80184600F00DF97B681B781846FFF780FEA7
S31508001F907B685B781846FFF7C3FE7B68DB79012B05
S31508001FA005D97B68DB791846FFF76AFF04E07B688A
S31508001FB0DB791846FFF7CCFE7B681B7A002B04D02A
S31508001FC07B681B7A1846FFF78BFF7B685B7A002BCA
S31508001FD004D07B685B7A1846FFF76AFF7B689B7AB2
S31508001FE0002B0AD07B689B7A1846FFF769FE01200A
S31508001FF0FFF7DEFD0120FFF7C3FD7B68DB7A002BC8
S315080020000AD07B68DB7A1846FFF772FE0220FFF7D4
S31508002010CFFD0220FFF7B4FD0020FFF7C9FD002021
S31508002020FFF7AEFD0220FFF71BFE7B681B69074A18
S3150800203013607B685B69064A13607B689B69054A7F
S31508002040136000BF0837BD4680BD00BF10080020DA
S31508002050080800200C08002000000000000000000E
S3150800206080B489B000AF7860084611461A46034620
S31508002070FB700B46BB7013463B8000237B82002314
S31508002080BB6100237B610023FB607B681B68BB6127
S315080020907B6804331B687B610023FB8344E03A8832
S315080020A0FB8B42FA03F303F00103002B38D0FB8BBA
S315080020B0072B03D8FB8B9B009BB204E0FB8B083BEA
S315080020C09BB29B009BB27B82FB8B072B01D8BB691B
S315080020D000E07B69FB607B8A0F2202FA03F3DB438D
S315080020E01A46FB681340FB60FA787B8A9A40B978EF
S315080020F07B8A023301FA03F313431A46FB68134338
S31508002100FB60FB8B072B01D8FB6800E0BB69BB6152
S31508002110FB8B072B01D9FB6800E07B697B6100E03C
S3150800212000BFFB8B0133FB83FB8B0F2BB7D97B6877
S31508002130BA691A607B6804331A467B69136000BF64
S315080021402437BD4680BC7047000000000000000030
S3150800215080B483B000AF0346FB80FB885B099BB263
S3150800216003F1804303F504331A68FB8803F01F0361
S31508002170012101FA03F31846FB885B099BB203F1B8
S31508002180804303F50433194642EA00030B6000BF97
S315080021900C37BD4680BC70470000000000000000F8
S315080021A080B485B000AF7860094B1B68FB60FB689C
S315080021B023F00703FB60FA687B681343FB60044A55
S315080021C0FB68136000BF1437BD4680BC704700BF6C
S315080021D0002002400000000000000000000000008F
S315080021E080B483B000AF78600B467B807B68103381
S315080021F01A467B88136000BF0C37BD4680BC704703
S3150800220080B483B000AF78600B467B807B881A0465
S315080022107B6810331A6000BF0C37BD4680BC704718
S3150800222080B582B000AF78600B467B80786800F096
S315080022302FF803461A467B8813409BB21846083780
S31508002240BD4680BD00000000000000000000000040
S3150800225080B485B000AF78600B467B807B680C3312
S315080022601B68FB607A88FB6813401A04FB68D9432D
S315080022707B880B407968103113430B6000BF143715
S31508002280BD4680BC7047000000000000000000004A
S3150800229080B483B000AF78607B6808331B689BB254
S315080022A018460C37BD4680BC704700000000000089
S315080022B080B586B000AFF860B9607A603B60FB68AD
S315080022C01B68984738613B69FA68C3F8DC203B69A4
S315080022D0BA681A603B697A685A603B693A689A60D4
S315080022E03B693A6ADA603B690022C3F8E0203B6939
S315080022F00022C3F8E4203B697A6A1A613B693A8D81
S315080023009A823B690D4A1A673B690D4ADA663B6948
S315080023100C4A9A6600237B6108E03B697A69323287
S31508002320002143F822107B6901337B617B69032B0B
S31508002330F3DD3B6918461837BD4680BD31330008C2
S315080023409133000871340008000000000000000006
S3150800235080B584B002AF78607B6800229A757B6886
S315080023600022DA757B681B68DB799BB20022009233
S3150800237000220021786800F023F87B68D3F8DC3067
S315080023805B680021786898477B68DB69002B02D078
S315080023907B68DB69984700BF0837BD4680BD0000EB
S315080023A080B582B000AF78607B68D3F8DC305B6AB2
S315080023B07868984700BF0837BD4680BD0000000012
S315080023C090B585B002AF7860084611461A460346AE
S315080023D0FB700B46BB7013463B807B68D3F8DC303A
S315080023E09C683888BA78F978BB6900930346786898
S315080023F0A04700BF0C37BD4690BD00000000000096
S3150800240090B585B000AFF8607A601A460B46FB7245
S3150800241013463B81FB68D3F8DC30DC693B89F97AE3
S315080024207A68F868A047034618461437BD4690BD33
S3150800243090B585B000AFF8607A601A460B46FB7215
S3150800244013463B81FB68D3F8DC301C6A3B89F97A72
S315080024507A68F868A047034618461437BD4690BD03
S3150800246080B582B000AF78600B46FB701346BB7030
S315080024707B68D3F8DC301B69BA78F97878689847AE
S3150800248000BF0837BD4680BD000000000000000000
S3150800249080B582B000AF78600B46FB707B68D3F8D6
S315080024A0DC309B69FA7811467868984703461846DF
S315080024B00837BD4680BD000000000000000000008F
S315080024C080B582B000AF78600B46FB701346BB70D0
S315080024D07B68D3F8DC305B69BA78F978786898470E
S315080024E000BF0837BD4680BD0000000000000000A0
S315080024F080B500AF40F29730FFF72AFE074B00225F
S315080025001A60074B00221A60064B00221A60034B1A
S315080025104FF41C421A60044B184680BD405C0040CC
S31508002520505C0040445C0040B40C002000000000F1
S3150800253080B487B000AFF860B9601346FB80BB680B
S315080025407B61FB683B61FB8801335B10FB800BE01A
S315080025507B699A1C7A6119883B691A1D3A610A4691
S315080025601A60FB88013BFB80FB88002BF0D100BF7B
S3150800257000BF1C37BD4680BC704700000000000045
S3150800258080B489B000AFF860B9601346FB80FB6879
S31508002590FB61BB68BB61FB88DBB203F00103FB751B
S315080025A0FB885B08FB800DE0BB691B889AB2FB6958
S315080025B01A80BB690433BB61FB690233FB61FB8884
S315080025C0013BFB80FB88002BEED1FB7D002B03D063
S315080025D0BB691A78FB691A7000BF2437BD4680BCF0
S315080025E07047000000000000000000000000000026
S315080025F080B483B000AF78600B46FB70FB7863F05D
S315080026007F03DAB2034B1A6000BF0C37BD4680BCA5
S31508002610704700BF4C5C004000000000000000004E
S3150800262080B487B000AFF8600B467A60FB727B68AF
S315080026303E2B10D97B68013B5B0903F01F037B60C7
S315080026407B689BB201339BB25B01FB827B6843F0DC
S3150800265020037B6007E07B6801335B087B607B684F
S315080026609BB25B00FB827B689BB29B029AB20A4BC9
S315080026701B689BB21946FB7ADB000B4406335B00EA
S3150800268003F1804303F5C0431A60FB8A18461C37DA
S31508002690BD4680BC704700BF505C0040000000008B
S315080026A090B587B000AF7860084611461A460346CB
S315080026B0FB700B46BB7013463B807E4A07F10C0342
S315080026C092E8030083E80300FB7823F07F03FB7599
S315080026D0FB7803F07F03FB70FB789B0003F18043D4
S315080026E003F5B8431B681BB223F4E04323F07F03CA
S315080026F01AB2FB781BB213431BB29AB2FB789B0043
S3150800270003F1804303F5B8431A60FB789B0003F195
S31508002710804303F5B8431B681BB223F4EC4323F04C
S3150800272070031AB2BB785B0007F118010B4433F843
S315080027300C3C1BB213431BB29AB2FB789B0003F105
S31508002740804303F5B8431A60FB7D002B02D1FB7862
S31508002750002B4FD17B681A8B574B1B689BB21946C7
S31508002760FB78DB000B445B0003F1804303F5C043B1
S315080027701A60BB6A002B09D0FA78796813465B00A1
S3150800278013449B000B446833BA6A1A60FB789B00B3
S3150800279003F1804303F5B8431B689BB21946FB78DF
S315080027A09B0003F1804303F5B84348F6CF720A400D
S315080027B01A60FB789B0003F1804303F5B8431B6856
S315080027C09BB223F4E04323F040039CB284F0200339
S315080027D09CB23A4B23439AB2FB789B0003F18043A1
S315080027E003F5B8431A607B681A8B3B8813449AB280
S315080027F07B681A83FB7D002B58D17B681A8B2E4B7E
S315080028001B689BB21946FB78DB000B4404335B005C
S3150800281003F1804303F5C0431A603A88FB781946EA
S315080028207868FFF7FDFE0346BB82BB6A002B09D01A
S31508002830FA78796813465B0013449B000B446C33A3
S31508002840BA6A1A60FB789B0003F1804303F5B84324
S315080028501B689BB21946FB789B0003F1804303F57E
S31508002860B8434CF68F720A401A60FB789B0003F156
S31508002870804303F5B8431B689BB223F4804323F0D7
S3150800288070039CB284F440539CB20C4B23439AB217
S31508002890FB789B0003F1804303F5B8431A607B6815
S315080028A01A8BBB8A13449AB27B681A8300BF1C37FB
S315080028B0BD4690BDF0610008505C00408080FFFF77
S315080028C090B484B000AF78600123FB6030E0FB6809
S315080028D09B0003F1804303F5B8431B689BB223F4BE
S315080028E0E04323F040039CB21A4B23439AB2FB6899
S315080028F09B0003F1804303F5B8431A60FB689B000D
S3150800290003F1804303F5B8431B689BB223F4804365
S3150800291023F070039CB20F4B23439AB2FB689B00CB
S3150800292003F1804303F5B8431A60FB680133FB6083
S31508002930FB68072BCBDD7B681B68DB7920339BB2F2
S315080029405B009AB27B681A8300BF1037BD4690BCFD
S31508002950704700BF8080FFFF0000000000000000F5
S3150800296090B482B000AF78600B46FB701346BB701C
S31508002970FB78002B20D1FB789B0003F1804303F5FD
S31508002980B8431B689BB223F4E04323F040039CB290
S31508002990BB78002B01D0102200E0202223B253403E
S315080029A01BB29CB2434B23439AB2FB789B0003F1BC
S315080029B0804303F5B8431A6097F90330002B3BDAD6
S315080029C0FB7803F07F03FB70FB789B0003F18043E1
S315080029D003F5B8431B689BB223F4E04323F0400396
S315080029E09CB2BB78002B01D0102200E0202223B233
S315080029F053401BB29CB22F4B23439AB2FB789B00E1
S31508002A0003F1804303F5B8431A60BB78002B4CD119
S31508002A10FB789B0003F1804303F5B8431B689BB220
S31508002A201946FB789B0003F1804303F5B84348F643
S31508002A30CF720A401A6038E0BB78002B12D1FB78B7
S31508002A409B0003F1804303F5B8431B689BB2194604
S31508002A50FB789B0003F1804303F5B8434CF68F726D
S31508002A600A401A60FB789B0003F1804303F5B843DC
S31508002A701B689BB223F4804323F070039CB2BB7897
S31508002A80002B02D04FF4805201E04FF4405223B29B
S31508002A9053401BB29CB2074B23439AB2FB789B0068
S31508002AA003F1804303F5B8431A6000BF0837BD46F3
S31508002AB090BC70478080FFFF000000000000000007
S31508002AC080B483B000AF78600B46FB7097F903308B
S31508002AD0002B0EDAFB7803F07F039B0003F180439B
S31508002AE003F5B8431B6803F03003102B0FD10123FD
S31508002AF00EE0FB789B0003F1804303F5B8431B689F
S31508002B0003F44053B3F5805F01D1012300E00023AD
S31508002B1018460C37BD4680BC704700000000000010
S31508002B2090B482B000AF78600B46FB701346BB705A
S31508002B3097F90330002B3CDBFB782049BA78CA5456
S31508002B40BB78002B1AD0FB789B0003F1804303F572
S31508002B50B8431B689BB223F4804323F070039CB2EE
S31508002B6084F400539CB2164B23439AB2FB789B001D
S31508002B7003F1804303F5B8431A601BE0FB789B001A
S31508002B8003F1804303F5B8431B689BB223F48043E3
S31508002B9023F070039CB284F440539CB2084B234341
S31508002BA09AB2FB789B0003F1804303F5B8431A6099
S31508002BB000E000BF0837BD4690BC7047AC0C00204B
S31508002BC08080FFFF000000000000000000000000F9
S31508002BD090B585B000AFF8607A601A460B46FB726E
S31508002BE013463B81FB7A03F07F03FB72FB7A9B005B
S31508002BF003F1804303F5B8431B6803F03003302B19
S31508002C0001D1002343E0244B1B689BB21A46FB7A8A
S31508002C10DB0013445B0003F1804303F5C0431B68E4
S31508002C209BB25B0003F1804303F5C04318463B891A
S31508002C301A467968FFF77CFC174B1B689BB21A4645
S31508002C40FB7ADB00134402335B0003F1804303F590
S31508002C50C0431A463B891360FB7A9B0003F1804305
S31508002C6003F5B8431B689BB223F4E04323F0400303
S31508002C709CB284F030039CB2084B23439AB2FB7A89
S31508002C809B0003F1804303F5B8431A603B89184655
S31508002C901437BD4690BD00BF505C00408080FFFFE2
S31508002CA090B585B000AFF8607A601A460B46FB729D
S31508002CB013463B81FB7A9B0003F1804303F5B84337
S31508002CC01B6803F44053B3F5405F01D1002379E054
S31508002CD03E4B1B689BB21A46FB7ADB00134406334D
S31508002CE05B0003F1804303F5C0431B689BB2C3F343
S31508002CF009023B899A4212DA344B1B689BB21A4680
S31508002D00FB7ADB00134406335B0003F1804303F5CB
S31508002D10C0431B689BB2C3F309039BB200E03B891F
S31508002D203B812A4B1B689BB21A46FB7ADB0013448D
S31508002D3004335B0003F1804303F5C0431B689BB271
S31508002D405B0003F1804303F5C04319463B891A46E5
S31508002D507868FFF715FCFB7A9B0003F1804303F5BF
S31508002D60B8431B681AB240F60F7313401BB243F000
S31508002D7080031BB29AB2FB7A9B0003F1804303F5EA
S31508002D80B8431A60FB7A124AD35C002B19D1FB7A36
S31508002D909B0003F1804303F5B8431B689BB223F4F9
S31508002DA0804323F070039CB284F440539CB2094BD1
S31508002DB023439AB2FB7A9B0003F1804303F5B84399
S31508002DC01A603B8918461437BD4690BD505C0040D2
S31508002DD0AC0C00208080FFFF00000000000000000F
S31508002DE080B584B000AF7860654B1B68BB81BB8932
S31508002DF003F48063002B0AD0614B4FF6FF321A604A
S31508002E007B6840221A837868FFF7A2FAB4E0B7F91C
S31508002E100C30002B6FDABB89DBB203F00F03FB72B1
S31508002E20BB8903F01003002B18D0FB7A9B0003F133
S31508002E30804303F5B8431B6803F40063002B0AD0EC
S31508002E400223FB737B6803F13002F97A082378685A
S31508002E50FFF726FF1DE00123FB731AE00023FB732F
S31508002E60FB7A9B0003F1804303F5B8431B681AB24B
S31508002E7040F60F7313401BB26FEA43436FEA53439E
S31508002E801BB29AB2FB7A9B0003F1804303F5B84361
S31508002E901A60FA7AF87B796813465B001344034490
S31508002EA01A3351F82330002B0ED0FA7AF87B79685A
S31508002EB013465B00134403441A3351F82330FA7A55
S31508002EC011467868984716E0FB7A9B0003F1804321
S31508002ED003F5B8431B681AB240F60F7313401BB2CA
S31508002EE043F080031BB29AB2FB7A9B0003F180433E
S31508002EF003F5B8431A60BB8903F40063002B0AD0B4
S31508002F001F4B4FF2FF721A607B681B6A002B02D0B8
S31508002F107B681B6A9847BB8903F48053002B0AD049
S31508002F20174B4EF6FF721A607B685B6A002B02D05D
S31508002F307B685B6A9847BB8903F40073002B0AD049
S31508002F400F4B4FF6FF521A607B689B6A002B02D024
S31508002F507B689B6A98477B689B6A002B06D0094B5F
S31508002F601B68084A43F40073136005E0054B1B68A9
S31508002F70044A23F4007313601037BD4680BD00BFB2
S31508002F80445C0040405C0040000000000000000077
S31508002F9080B582B000AF7860012200217868FFF71B
S31508002FA05FFA7B68002283F82C2000BF0837BD46ED
S31508002FB080BD0000000000000000000000000000C6
S31508002FC080B483B000AF0346FB800B46BB80134634
S31508002FD0FB70FA88BB889A420DD2FB88002B0AD070
S31508002FE0FB88FA7893FBF2F101FB02F29B1A002B9D
S31508002FF001D1012300E0002318460C37BD4680BCEA
S3150800300070470000000000000000000000000000FB
S3150800301080B487B000AFF8607B600B46FB7213463E
S31508003020BB7200237B6120E0FB687A69093253F89A
S315080030303230002B03D07B6901337B6115E0FA68D7
S315080030407B690933DB001344FA7A1A71FA687B69DB
S315080030500933DB001344BA7A5A71FB687A69093274
S31508003060796843F83210002304E07B69032BDBDD23
S315080030704FF0FF3318461C37BD4680BC704700002A
S3150800308080B582B000AF78607B681B68DB799AB23E
S315080030907B689B8F9A4220D27B689A6B7B681B68F9
S315080030A0DB799BB200217868FFF7AAF97B680222D0
S315080030B083F82C207B689B6B7A681268D2791A444D
S315080030C07B689A637B689A8F7B681B68DB799BB2FF
S315080030D0D31A9AB27B689A871CE07B689A6B7B68DE
S315080030E09B8F00217868FFF78BF97B6893F844304B
S315080030F0002B01D0022200E003227B6883F82C20F3
S315080031007B68002283F844207B6800229A877B68C4
S3150800311000229A6300BF0837BD4680BD0000000044
S3150800312080B584B000AF78607B68DB8E1A467B6812
S315080031309B8FD31A7A681268D2799342A8BF13462E
S31508003140FB817B689B6B7A68928F1A44FB89002106
S315080031507868FFF76DF90346BB81BA89FB899A42FD
S3150800316005D07868FFF714FF4FF0FF3307E07B6858
S315080031709A8FBB8913449AB27B689A87FB8918464B
S315080031801037BD4680BD00000000000000000000AA
S3150800319090B589B002AF7860396000233B617B68DF
S315080031A04833FB6000237B6136E07B69DB00FA6805
S315080031B013441B68002B33D03B681A787B69DB0005
S315080031C0F9680B445B791340DAB27B69DB00F9686E
S315080031D00B441B799A421CD17B69DB00FA681344BD
S315080031E01C687B6803F138027B6803F13C017B6845
S315080031F0403300930B4639687868A04703463B611D
S315080032003B69012B02D03B69002B02D13B69DBB23B
S3150800321011E07B6901337B617B69032BC5DD00E027
S3150800322000BF7B6803F138027B683C3339687868ED
S3150800323000F056FF034618461C37BD4690BD0000F1
S3150800324080B582B000AF786039607B681A697B68A0
S315080032509A633B68DB889AB27B689A87396878688C
S31508003260FFF796FF0346002B23D03B68DB889BB20B
S31508003270002B13D07B68988F3B68DB8899B27B68F4
S315080032801B68DB791A46FFF79BFE03461A467B68DE
S3150800329083F844207868FFF7F3FE0DE00023002248
S315080032A000217868FFF7ACF87B68042283F82C20A5
S315080032B002E07868FFF76CFE00BF0837BD4680BDA0
S315080032C080B582B000AF786039603B68DB889AB217
S315080032D07B689B8A9A4203D97868FFF759FE1DE0F6
S315080032E07B681A697B689A637B6800229A873B68C1
S315080032F0DB889AB27B681B68DB799BB29A4204D951
S315080033007B68052283F82C2003E07B68062283F875
S315080033102C20002200217868FFF7D2F80837BD462E
S3150800332080BD000000000000000000000000000052
S3150800333080B584B000AF78600B46FB707B6830338D
S31508003340FB607B6800221A64012200217868FFF777
S31508003350B7F8FB68DB889BB2002B04D1F96878685C
S31508003360FFF76EFF0DE0FB681B785BB2002B04DAF3
S31508003370F9687868FFF764FF03E0F9687868FFF78B
S315080033809FFF00BF1037BD4680BD0000000000004B
S3150800339080B582B000AF78600B46FB707B6893F807
S315080033A02C30072B3AD0072B51DC052B02D0062BE5
S315080033B016D04CE07868FFF7B3FE0346002B4ADBCD
S315080033C07B68DB8E1A467B689B8FD31A7A681268ED
S315080033D0D279934241DC7B68062283F82C203CE0B4
S315080033E07868FFF79DFE0346002B38DB7B68303391
S315080033F019467868FFF7CCFE0346002B0AD000234F
S31508003400002200217868FEF7FBFF7B68042283F818
S315080034102C2025E07868FFF7BBFD21E00023002279
S3150800342000217868FFF704F87B68002283F82C20CF
S315080034307B681B6C002B06D07B681B6C7A68303265
S315080034401146786898477B6800221A6408E078680D
S31508003450FFF79EFD04E000BF02E000BF00E000BFEA
S3150800346000BF0837BD4680BD000000000000000010
S3150800347080B584B000AF78600B46FB707B6830334C
S31508003480FB607B6893F82C30042B14D0042B35DCB6
S31508003490022B02D0032B04D030E07868FFF7F0FD4A
S315080034A030E07B68072283F82C2000220021786808
S315080034B0FFF706F826E07B681B6C002B06D07B68B6
S315080034C01B6C7A683032114678689847FB681B7817
S315080034D0002B0ED1FB685B78052B0AD17B68D3F8E5
S315080034E0DC305B68FA68528892B2D2B211467868C4
S315080034F098477B68002283F82C2003E07868FFF75A
S3150800350047FD00BF00BF1037BD4680BD0000000064
S3150800351080B485B000AF786039600023FB601CE09A
S315080035207B68FA68323253F82230002B0DD07B685C
S31508003530FA68323253F822303A689A4201D10023A7
S3150800354010E0FB680133FB6007E07B68FA683232FB
S31508003550396843F82210002304E0FB68032BDFDDFB
S315080035604FF0FF3318461437BD4680BC704700003D
S3150800357080B58EB000AFF8607A601A460B46FB72CB
S3150800358013463B817B68FB62FB685968FA7A1346E7
S315080035905B0013449B0013440B44BB620023FB8669
S315080035A00023FB82BB6A1B789BB23A89934228BFE9
S315080035B01346FB84FB8C1A46B96A786801F098FEB4
S315080035C0FB8C7A6813447B603A89FB8CD31A3B815F
S315080035D0FA8EFB8C1344FB86BB6A1B789AB2FB8A6D
S315080035E013449BB2FB820023BB86FEE0BB6AD3F87A
S315080035F00920BB8E1B0113449B68002B28D0BB6A8D
S31508003600D3F80920BB8E1B0113449B683B623B6AB7
S315080036101B789BB23A89934228BF1346FB84FB8CDE
S315080036201A46396A786801F063FEFB8C7A68134497
S315080036307B603A89FB8CD31A3B81FA8EFB8C134448
S31508003640FB863B6A1B789AB2FB8A13449BB2FB82C1
S3150800365000237B86BAE0BB6AD3F80920BB8E1B0120
S315080036601344D9687A8E13465B001344DA00D31ADA
S315080036700B44FB61FB691B789BB23A89934228BFCE
S315080036801346FB84FB8C1A46F969786801F030FE0C
S31508003690FB8C7A6813447B603A89FB8CD31A3B818E
S315080036A0FA8EFB8C1344FB86FB691B789AB2FB8A5D
S315080036B013449BB2FB82FB69D3F80D30002B23D051
S315080036C0FB69D3F80D10FB69D3F811203B899342A7
S315080036D0A8BF1346FB84FB8C1A46786801F008FEDF
S315080036E0FB8C7A6813447B603A89FB8CD31A3B813E
S315080036F0FA8EFB8C1344FB86FB69D3F811309AB219
S31508003700FB8A13449BB2FB8200233B8655E0FB6988
S31508003710D3F809103A8E13461B019B1A0B44BB615A
S31508003720BB691B789BB23A89934228BF1346FB8430
S31508003730FB8C1A46B969786801F0DAFDFB8C7A6861
S3150800374013447B603A89FB8CD31A3B81FA8EFB8C37
S315080037501344FB86BB691B789AB2FB8A13449BB257
S31508003760FB82BB69D3F80730002B23D0BB69D3F89B
S315080037700710BB69D3F80B203B899342A8BF1346B1
S31508003780FB84FB8C1A46786801F0B2FDFB8C7A68DC
S3150800379013447B603A89FB8CD31A3B81FA8EFB8CE7
S315080037A01344FB86BB69D3F80B309AB2FB8A1344E1
S315080037B09BB2FB823B8E01333B86FB691B799BB22E
S315080037C03A8E9A42A3D37B8E01337B86BB6AD3F8A3
S315080037D00920BB8E1B0113441B799BB27A8E9A4231
S315080037E0FFF439AFBB8E0133BB86BB6A1B799BB22C
S315080037F0BA8E9A42FFF4FAAEFB6A023307F1160153
S315080038000222184601F074FDFB8E18463837BD466D
S3150800381080BD00000000000000000000000000005D
S3150800382080B483B000AF0346FB80FB881B0A9BB2BB
S3150800383018460C37BD4680BC7047000000000000E3
S3150800384080B483B000AF0346FB80FB88DBB2184622
S315080038500C37BD4680BC7047000000000000000021
S3150800386080B588B000AFF860B9607A603B60BB6825
S315080038705B889BB21846FFF7E3FFB861BB685B88B5
S315080038809BB21846FFF7CCFF0346032B2CD0032B1D
S3150800389000F3DE80012B02D0022B12D0D8E0FB68A1
S315080038A01A687B681A60FB681B681B789AB23B68C3
S315080038B01B88934228BF13469AB23B681A80012395
S315080038C0C7E0FB681A697B681A60BB69D9B27B686E
S315080038D01A683B681B88F868FFF74AFE03461A46CB
S315080038E03B681A800123B4E0FB681B697B61BB69EE
S315080038F0002B17D17B69002242F009029A70002238
S3150800390042F00402DA707B6904221A707B691B781C
S315080039109AB23B681B88934228BF13469AB23B6803
S315080039201A808DE0FB68D3F8E030BA699A4234D140
S31508003930FB68D3F8E430184601F07AFD03460133F4
S31508003940DBB25B00DAB27B691A707B691B789AB2C4
S315080039503B681B88934228BF13469AB23B681A8075
S315080039600023FB6110E0FB68D3F8E420FB691344ED
S3150800397093F9003099B27A69FB695B0013440A46E9
S315080039805A80FB690133FB613B681B885B089BB265
S31508003990013BFA699A42E6DB52E0BB69013B3B61AF
S315080039A0FB689B68002B01D1002352E0FB68DB68AB
S315080039B03A699A4201DB00234BE0BB689B889BB2BD
S315080039C040F20942934201D0002342E0FB689A681C
S315080039D03B699B0013441B68184601F029FD034602
S315080039E00133DBB25B00DAB27B691A707B691B783C
S315080039F09AB23B681B88934228BF13469AB23B6823
S31508003A001A800023FB6113E0FB689A683B699B00F8
S31508003A1013441A68FB69134493F9003099B27A691A
S31508003A20FB695B0013440A465A80FB690133FB6154
S31508003A303B681B885B089BB2013BFA699A42E3DB49
S31508003A407B6903225A707B687A691A60012300E051
S31508003A50002318462037BD4680BD00000000000040
S31508003A6080B584B000AFF860B9607A603B60BB6827
S31508003A701B78002B04D1BB685B889BB27F2B01D9CE
S31508003A80002318E0BB685B889BB2DAB2FB689A75BC
S31508003A90FB68D3F8DC3093F83030002B0AD0FB688B
S31508003AA0D3F8DC305B68BA68528892B2D2B2114653
S31508003AB0F8689847012318461037BD4680BD0000B0
S31508003AC080B588B000AFF860B9607A603B604FF0A7
S31508003AD0FF33BB61BB685B889BB2002B24D00023F5
S31508003AE0FB6115E0BB685B8899B2FB685868FA69A0
S31508003AF013465B0013449B00134403445B799BB253
S31508003B00994202D1FB69BB6109E0FB690133FB619C
S31508003B10FB681B685B7C1A46FB699342E2D3BB6968
S31508003B20002B01DA00236AE0BB69DBB20133DAB2A3
S31508003B30FB68DA75FB68DB7D002B2AD0FB685968C1
S31508003B40FB68DB7D1A4613465B0013449B0013444F
S31508003B500D3B0B447B610023FB6114E07B69D3F8C2
S31508003B600920FB691B0113441B68002B08D07B69DD
S31508003B70D3F80920FB691B0113441B6800221A703D
S31508003B80FB690133FB617B691B791A46FB69934222
S31508003B90E4D3FB68D3F8DC30DB68F8689847FB6841
S31508003BA0D3F8C830002B29D00023FB6108E0FB6856
S31508003BB0FA690932002143F83210FB690133FB61C7
S31508003BC0FB69032BF3D90023FB6114E0FB68FA6950
S31508003BD0323253F82230002B0AD0FB68FA693232A7
S31508003BE053F82230BA68528892B21146F868984754
S31508003BF0FB690133FB61FB69032BE7D901231846EF
S31508003C002037BD4680BD000000000000000000000F
S31508003C1080B487B000AFF860B9607A603B603B68F3
S31508003C201B88012B02D93B6801221A80FB68DB7DC1
S31508003C30002B12D0FB685968FB68DB7D1A461346D1
S31508003C405B0013449B0013440D3B0B447B617B686C
S31508003C501B687A6952791A7003E07B681B68002230
S31508003C601A70012318461C37BD4680BC70470000F1
S31508003C7080B586B000AFF860B9607A603B60FB68D3
S31508003C805968FB68DB7D1A4613465B0013449B00A4
S31508003C9013440D3B0B447B61BB689B889AB27B69D6
S31508003CA01B799BB29A4201D3002339E07B69D3F88A
S31508003CB00920BB689B889BB21B0113443B61BB6808
S31508003CC05B889AB23B691B799BB29A4201D300235F
S31508003CD026E03B691B68002B07D0BB685B889AB255
S31508003CE03B691B68D2B21A7006E0BB685B889BB258
S31508003CF0002B01D0002313E0FB68D3F8D830002B43
S31508003D000AD0FB68D3F8D830BA68928891B2BA68F4
S31508003D10528892B2F86898473B6800221A800123B5
S31508003D2018461837BD4680BD000000000000000098
S31508003D3080B487B000AFF860B9607A603B60FB6812
S31508003D405968FB68DB7D1A4613465B0013449B00E3
S31508003D5013440D3B0B447B61BB689B889AB27B6915
S31508003D601B799BB29A4201D3002317E03B680122D4
S31508003D701A807B69D3F80920BB689B889BB21B0114
S31508003D8013441B683B613B69002B02D03B691A78D8
S31508003D9000E000227B681B681A70012318461C374E
S31508003DA0BD4680BC7047000000000000000000000F
S31508003DB080B485B000AFF860B9607A603B603B6854
S31508003DC01B88022B02D93B6802221A807B681B6873
S31508003DD000221A707B681B68013300221A700123BF
S31508003DE018461437BD4680BC704700000000000026
S31508003DF080B485B000AFF860B9607A603B603B6814
S31508003E001B88022B02D93B6802221A807B681B6832
S31508003E1000221A707B681B68013300221A7001237E
S31508003E2018461437BD4680BC7047000000000000E5
S31508003E3080B584B000AFF860B9607A603B603B68D3
S31508003E401B88022B02D93B6802221A80BB689B8812
S31508003E509BB2DBB21946F868FEF71AFB0346002B3D
S31508003E6014BF01230023DAB27B681B681A707B68CB
S31508003E701B68013300221A70012318461037BD4605
S31508003E8080BD0000000000000000000000000000E7
S31508003E9080B584B000AFF860B9607A603B60BB68F3
S31508003EA09B889BB2DBB201221946F868FEF7D8FA5E
S31508003EB0012318461037BD4680BD000000000000EB
S31508003EC080B584B000AFF860B9607A603B60BB68C3
S31508003ED09B889BB2DBB200221946F868FEF7C0FA47
S31508003EE0012318461037BD4680BD000000000000BB
S31508003EF090B587B000AFF860B9607A603B60002380
S31508003F007B61BB685B78092B2AD801A252F823F09B
S31508003F105B3F0008393F0008613F0008393F000849
S31508003F20613F0008433F0008553F0008613F00080D
S31508003F304F3F0008493F0008BB685B88BB685B8841
S31508003F400EE00F4B7B610BE00E4B7B6108E00E4BDE
S31508003F507B6105E00D4B7B6102E00D4B7B6100BF89
S31508003F607B69002B01D1002306E07C693B687A68EF
S31508003F70B968F868A047034618461C37BD4690BD81
S31508003F80613A0008C13A0008113C00086138000887
S31508003F90B13D00080000000000000000000000001D
S31508003FA090B587B000AFF860B9607A603B600023CF
S31508003FB07B61BB685B780B2B23D801A252F823F0F0
S31508003FC0FD3F0008034000080340000803400008BE
S31508003FD003400008034000080340000803400008A7
S31508003FE00340000803400008F13F0008F73F0008B7
S31508003FF00C4B7B6105E00C4B7B6102E00B4B7B6154
S3150800400000BF7B69002B01D1002306E07C693B6871
S315080040107A68B968F868A047034618461C37BD464B
S3150800402090BD00BF313D0008713C0008F13D000815
S3150800403090B587B000AFF860B9607A603B6000233E
S315080040407B61BB685B780C2B32D801A252F823F04F
S31508004050A540000885400008B140000895400008C2
S31508004060B1400008B1400008B1400008B14000085E
S31508004070B1400008B1400008B1400008B14000084E
S31508004080B1400008BB685B889BB2002B0DD1104B72
S315080040907B610AE0BB685B889BB2002B07D10D4B9E
S315080040A07B6104E00C4B7B6102E000BF00E000BFCF
S315080040B07B69002B01D1002306E07C693B687A689E
S315080040C0B968F868A047034618461C37BD4690BD30
S315080040D0C13E0008913E0008313E0008000000007D
S315080040E080B584B000AFF860B9607A603B60BB68A1
S315080040F01B7803F06003002B01D0002325E0BB6882
S315080041001B7803F01F03022B16D0022B1CDC002B96
S3150800411002D0012B08D017E03B687A68B968F868BE
S31508004120FFF7E6FE034610E03B687A68B968F86868
S31508004130FFF736FF034608E03B687A68B968F8680F
S31508004140FFF776FF034600E0002318461037BD4602
S3150800415080BD000000000000000000000000000014
S3150800416080B594B000AF78600B46FB700C4B9B682B
S31508004170002B04D007F108030133FB6402E007F1C2
S315080041800803FB64F9784023FA6C7868FEF750F95F
S315080041900346A7F84A3000BF5037BD4680BD00BF6A
S315080041A0FC0E0020000000000000000000000000D7
S315080041B080B596B000AF78600B46FB70274B9B68BE
S315080041C0002B04D007F10C0301337B6502E007F1ED
S315080041D00C037B65214B1B78002B02D0012B06D0E4
S315080041E024E040220021786D01F0DAF81EE0002371
S315080041F03B6517E0194B5B685A1C18494A60184A10
S3150800420082FB03121A445111DA17891A0A469201D7
S31508004210521A991A7A6D3B6D1344CAB21A703B6DDD
S3150800422001333B653B6D3F2BE4D900BFF97840234A
S315080042307A6D7868FEF7E4F80346A7F84E30B7F8C3
S315080042404E30402B06D0B7F84E301A460549064878
S3150800425000F0E6FC00BF5837BD4680BDFC0E0020C6
S31508004260832008824C6200087118000800000000CC
S3150800427080B582B000AF78600B46FB70FB781A46B3
S315080042800349044800F0CCFC00BF0837BD4680BD92
S3150800429064620008711800080000000000000000B1
S315080042A080B596B002AF78600B46FB7007F108023E
S315080042B0F97840237868FEF7BBF80346FB64FB7879
S315080042C063F07F03D9B2FB6C9BB207F108027868EA
S315080042D0FEF796F80346BB64FA78BB6C0093FB6C52
S315080042E00349044800F09CFC00BF5037BD4680BD1A
S315080042F07062000871180008000000000000000045
S3150800430090B589B004AFF860B9607A603B60BB6865
S315080043105B781846BB681B781C46BB689B889BB2B3
S315080043201A46BB68DB889BB21946BB685B889BB29A
S31508004330029301910092234602465849584800F0D4
S315080043406FFCBB685B785C2B40D05C2B00F39C80D1
S31508004350042B11DC002B40F39780013B032B00F262
S31508004360938001A252F823F07F43000823440008F3
S31508004370194400080F4400085B2B0BD084E0494B16
S3150800438000225A60BB685B889BB2DAB2454B1A704A
S3150800439001237EE0BB681B78412B01D0002378E01F
S315080043A0BB685B889BB2002B04D1BB689B889BB219
S315080043B0002B01D000236CE0BB68DB889BB2B3F509
S315080043C0A07F01D9002364E0012362E0BB681B7863
S315080043D0C12B01D000235CE0BB685B889BB2002B35
S315080043E004D1BB689B889BB2002B01D0002350E008
S315080043F0BB68DB889BB2B3F5A07F01D9002348E0F0
S31508004400BB68DB889AB23B681A80012341E0254BDA
S3150800441001229A6001233CE0224B00229A60012384
S3150800442037E0BB685B889BB21A461F491C4800F0F8
S31508004430F7FBBB685B889BB2B3F5A07F0BD9BB685B
S315080044405B889BB21A464FF4A0731849144800F0CB
S31508004450E7FB00231DE0BB685B889AB2BB68DB8874
S315080044609BB29A4209D912490D4800F0D9FBBB689C
S31508004470DB889AB23B681A8004E0BB685B889AB20C
S315080044803B681A80012304E00A49054800F0C8FB86
S31508004490002318461437BD4690BD00BF8C6200083D
S315080044A071180008FC0E0020C8620008E0620008C7
S315080044B014630008346300080000000000000000D0
S315080044C080B584B002AF78600B467B807B881A463D
S315080044D029492A4800F0A4FB7B88022B02D0032B2B
S315080044E01ED03EE0264B00229A60264B00934023BE
S315080044F0022201217868FDF763FF234B00934023CE
S31508004500022281217868FDF75BFF204B7F2241213B
S315080045107868FEF77DFD81217868FFF749FE27E078
S315080045201B4B00934023022201217868FDF748FFC0
S31508004530174B00934023022202217868FDF740FFBB
S31508004540144B00934023022281217868FDF738FF37
S31508004550104B00934023022282217868FDF730FF32
S3150800456006E07B881A460C49044800F059FB00BF50
S3150800457000BF0837BD4680BD4863000871180008AB
S31508004580FC0E002061410008B14100080143000803
S31508004590A1420008714200085463000800000000A8
S315080045A080B586B004AF786039603B68002B02D0CE
S315080045B00F4A3B6893604FF4A07302930D4B019327
S315080045C0052300930A4B0C4A0C497868FDF770FEE0
S315080045D003460B4A13600A4B1B680A491846FEF73E
S315080045E097FF074B1B6818460837BD4680BD00BFB6
S315080045F038080020B80D00204065000880640008CF
S31508004600F80E0020C1440008000000000000000069
S3150800461080B582B000AF78607868FDF7C1FE00BF4C
S315080046200837BD4680BD00000000000000000000FD
S3150800463080B582B000AF78607B681A687B689B8813
S3150800464019461046FDF704FE00BF0837BD4680BD73
S3150800465080B582B000AF78607B681A687B689B88F3
S3150800466019461046FDF7BCFD00BF0837BD4680BD9C
S3150800467080B582B000AF78607B681A687B689B88D3
S3150800468019461046FDF7BCFD00BF0837BD4680BD7C
S3150800469080B582B000AF78607B681A687B689B88B3
S315080046A019461046FDF7BCFD0346002B14BF01232F
S315080046B00023DBB218460837BD4680BD000000005F
S315080046C080B582B000AF0346FB7197F907300A2B15
S315080046D002D10D20FFF7F4FF0B4B1B68002B07D008
S315080046E0094B1B685A1C08490A60FA791A7008E0CF
S315080046F0064B1B68002B04D0044B1B68FA7910463E
S3150800470098470837BD4680BD0C0F0020080F0020CB
S3150800471080B582B000AF786007E07B685A1C7A6083
S3150800472093F900301846FFF7CBFF7B6893F9003002
S31508004730002BF2D100BF00BF0837BD4680BD000080
S315080047402DE9B04FA6B000AF786139617B695A1C74
S315080047507A611B7887F87F3097F97F30002B00F055
S31508004760578297F97F30252B05D097F97F30184661
S31508004770FFF7A6FF4BE20023C7F88830D7F8883042
S31508004780C7F884307B695A1C7A611B7887F87F30B2
S3150800479097F97F30302B09D10123C7F884307B691C
S315080047A05A1C7A611B7887F87F300CE097F97F30BE
S315080047B02D2B08D10223C7F884307B695A1C7A61ED
S315080047C01B7887F87F3097F97F302A2B2FD13B69E2
S315080047D01A1D3A611B68C7F88030D7F88030002B5D
S315080047E007DAD7F880305B42C7F880300223C7F86B
S315080047F08430D7F88030C7F888307B695A1C7A61CC
S315080048001B7887F87F301AE0D7F8882013469B0074
S3150800481013445B001A4697F97F301344303BC7F8B8
S3150800482088307B695A1C7A611B7887F87F3097F93C
S315080048307F302F2B03DD97F97F30392BE4DD97F98D
S315080048407F306C2B03D097F97F304C2B1FD1D7F8CC
S31508004850843043F00403C7F884307B695A1C7A61B4
S315080048601B7887F87F3097F97F306C2B03D097F940
S315080048707F304C2B0BD1D7F8843043F00803C7F8A8
S3150800488084307B695A1C7A611B7887F87F3097F9E0
S315080048907F30002B00F0BE8197F87F3087F87E3096
S315080048A097F97E30602B05DD97F87E30203BDBB22A
S315080048B087F87E3097F97E30423B162B00F2AA80A5
S315080048C001A252F823F000BFF5490008E3490008A1
S315080048D0054A0008154A000899490008154A0008BB
S315080048E0154A0008154A0008154A0008154A00081E
S315080048F0154A0008154A0008154A0008FD49000827
S31508004900154A0008154A0008154A000825490008EE
S31508004910154A0008054A0008154A0008154A0008FD
S315080049200D4A00083B691A1D3A611B68BB670023DC
S31508004930C7F88C3004E0D7F88C300133C7F88C30D0
S31508004940BA6FD7F88C30134493F90030002BF2D1A4
S3150800495002E02020FFF7B4FED7F8843003F0020304
S31508004960002B08D1D7F88C305A1CC7F88C20D7F8FA
S3150800497088209A42EDD8B86FFFF7CAFE02E02020D9
S31508004980FFF79EFED7F88C305A1CC7F88C20D7F84C
S3150800499088209A42F3D83AE13B69073323F00703A4
S315080049A003F108023A61D3E9002310461946FBF7DA
S315080049B017FE07F118010323302200F051F907F119
S315080049C01803BB6707E0BB6F5A1CBA6793F9003038
S315080049D01846FFF775FEBB6F93F90030002BF2D12E
S315080049E0B4E63B691A1D3A611B685BB21846FFF7C5
S315080049F067FE0CE10223C7F8943011E00823C7F8D4
S31508004A0094300DE00A23C7F8943009E01023C7F85C
S31508004A10943005E097F97F301846FFF751FEF6E027
S31508004A20D7F8843003F00803002B0BD03B69073313
S31508004A3023F0070303F108023A61D3E90023C7E923
S31508004A401C232DE0D7F8843003F00403002B12D082
S31508004A5097F97E30442B04D13B691A1D3A611B68CD
S31508004A6003E03B691A1D3A611B68DA179A469346B2
S31508004A70C7E91CAB14E097F97E30442B07D13B6994
S31508004A801A1D3A611B68DA179846914606E03B6993
S31508004A901A1D3A611B68DA1798469146C7E91C89B8
S31508004AA097F97E30442B11D1D7E91C23002B0DDA58
S31508004AB0D7E91C230021544261EB0305C7E91C45CD
S31508004AC0D7F8843043F01003C7F884300023C7F8BA
S31508004AD09030D7E91C23C7E91A23D7F89430002267
S31508004AE0BB60FA60D7E91A01D7E90223FCF7C8F8D0
S31508004AF0134687F87E30D7F8943000223B607A60F8
S31508004B00D7E90023D7E91A01FCF7BAF802460B469B
S31508004B10C7E91A2397F97E30092B0CDD97F97F3000
S31508004B20782B01D1272200E0072297F87E3013441C
S31508004B30DBB287F87E3097F87E303033D9B2D7F8B3
S31508004B4090305A1CC7F890204AB207F198010B44D6
S31508004B5003F8502CD7E91A23134303D0D7F890301B
S31508004B601F2BBAD9D7F8843003F01003002B0AD0CC
S31508004B70D7F890305A1CC7F8902007F198021344CA
S31508004B802D2203F8502CD7F89030C7F88C30D7F878
S31508004B90843003F00103002B01D0302300E02023EA
S31508004BA087F87E3004E097F97E301846FFF788FDCF
S31508004BB0D7F8843003F00203002B08D1D7F88C30DD
S31508004BC05A1CC7F88C20D7F888209A42EBD8D7F811
S31508004BD09030013BC7F8903007F14802D7F890307B
S31508004BE0134493F900301846FFF76AFDD7F890305A
S31508004BF0002BECD102E02020FFF762FDD7F88C30BD
S31508004C005A1CC7F88C20D7F888209A42F3D89DE515
S31508004C1000BF00E000BF00BF9837BD46BDE8B08FB3
S31508004C200EB480B585B000AF78600B4B1B68FB608F
S31508004C30094A7B68136007F12003BB60B968F86905
S31508004C40FFF77EFD044AFB68136000BF1437BD46B4
S31508004C50BDE8804003B07047080F00200000000040
S31508004C6080B58CB000AFF860B9607A60FB7001233C
S31508004C7087F82E30F868FBF7DBFF03467B627A6815
S31508004C800021B86800F08CFB07F114030A22002102
S31508004C90184600F085FB4FF00001F868FBF79EFF09
S31508004CA00346002B0FD0BB682D221A70F868FBF755
S31508004CB0BFFF0346184601F02BF903461846FBF7D3
S31508004CC099FD0346FB60F868FBF706FC02460B46AF
S31508004CD01046194600F044FE02460B461046194691
S31508004CE000F0BEFD02460B4610461946FBF750FC7F
S31508004CF0034687F8233097F92330002B7BDD97F995
S31508004D002320FB789A4216D14FF07C51F868FBF7BE
S31508004D10BDFC0346FB60F868FBF78AFF07F114033E
S31508004D200A22194601F004F907F114031946B8686E
S31508004D3000F096FB67E097F92320FB78D31A002B3F
S31508004D404BDD97F82320FB78D31A87F822300A23FD
S31508004D5087F82E30002387F82F300CE097F82E308E
S31508004D601A46920013445B0087F82E3097F82F30C6
S31508004D70013387F82F3097F82F2097F822309A4278
S31508004D80ECD397F82E301846FBF734FD0346194640
S31508004D90F868FBF739FE0346FB604FF07C51F8686C
S31508004DA0FBF774FC0346FB60F868FBF741FF034614
S31508004DB07B6297F82E207B6A02FB03F37B6207F17E
S31508004DC014030A221946786A01F0B2F807F11403A7
S31508004DD01946B86800F044FB15E007F114030A22E7
S31508004DE01946786A01F0A4F807F114031946B86859
S31508004DF000F036FB07E030233B7507F1140319462C
S31508004E00B86800F02DFB97F92320FB789A4257DA09
S31508004E10F868FBF70DFF03461846FBF7EBFC03465D
S31508004E201946F868FBF730FC0346BB622649B868A2
S31508004E3000F016FB97F82330FA78D31A87F8223051
S31508004E40002387F82F3035E02049B86AFBF728FD9C
S31508004E500346BB6297F82F2097F82230013B9A4207
S31508004E6006D14FF07C51B86AFBF710FC0346BB62CB
S31508004E70B86AFBF7DDFE07F114030A22194601F0AA
S31508004E8057F807F114031946B86800F0E9FAB86A42
S31508004E90FBF7CEFE03461846FBF7ACFC034619465D
S31508004EA0B86AFBF7F1FB0346BB6297F82F3001336C
S31508004EB087F82F3097F82F2097F822309A42C3D3D5
S31508004EC000BF3037BD4680BD806300080000204122
S31508004ED080B582B000AF1E4B5B785BB2002B0BDC53
S31508004EE01B4B9B785BB2DBB2013BDBB25BB2184A69
S31508004EF019469170002B08DD154B1B78DBB2144A56
S31508004F001B01134420331B681EE000237B6017E057
S31508004F1000F03EF80346DBB2184600F021F8386088
S31508004F203B685B7A5BB2002B07DD3B685B7A5AB25B
S31508004F30074B9A703B68DB6806E07B6801337B6049
S31508004F407B68072BE4DD002318460837BD4680BD7D
S31508004F50100F002000000000000000000000000004
S31508004F6080B483B000AF0346FB71FB79072B06D8E4
S31508004F70FB7901331B01054A1344043300E000237F
S31508004F8018460C37BD4680BC704700BF100F00207E
S31508004F9080B400AF0B4B1B78DBB2062B04D9094B48
S31508004FA000221A70002308E0064B1B78DBB2013397
S31508004FB0DAB2044B1146197013461846BD4680BC32
S31508004FC0704700BF100F002000000000000000001E
S31508004FD000BF00B5EFF3098020E9F00F80F30988D8
S31508004FE0144B1B78DBB21C46FCF79AFC02461149A7
S31508004FF023010B4420331A600E4B5B6801330D4ABC
S315080050005360FCF795FC0B4B9B68002B02D0094BB1
S315080050109B689847FFF75CFF0446002C01D084F391
S315080050200988EFF30980B0E8F00F80F3098800BD1E
S3150800503000BF00BF100F00200000000000000000A5
S3150800504000BF00B5EFF3098020E9F00F80F3098867
S31508005050134B1B78DBB21C46FCF762FC0246104970
S3150800506023010B4420331A60FCF772FC0C4B002218
S315080050709A700B4BDB68002B02D0094BDB6898470C
S31508005080FFF726FF0446002C01D084F30988EFF3C6
S315080050900980B0E8F00F80F3098800BD00BF00BFA3
S315080050A0100F0020000000000000000000000000B3
S315080050B080B586B002AF7860942200210F4800F0D0
S315080050C06FF90023FB6009E00C4AFB681B011344D7
S315080050D01D33FF221A70FB680133FB60FB68072B40
S315080050E0F2DD00230093002300220021786800F0F7
S315080050F067F8034618461037BD4680BD100F0020D6
S3150800510080B400AF024B5B681846BD4680BC70474A
S31508005110100F002000000000000000000000000042
S3150800512080B582B000AF78600121786800F098F801
S3150800513000BF0837BD4680BD000000000000000023
S3150800514080B400AF064B5B785BB2DBB20133DBB2EF
S315080051505AB2034B5A7000BFBD4680BC704700BFA9
S31508005160100F0020000000000000000000000000F2
S3150800517080B400AF064B5B785BB2DBB2013BDBB2B7
S315080051805AB2034B5A7000BFBD4680BC704700BF79
S31508005190100F0020000000000000000000000000C2
S315080051A080B500AFFCF7E4FB00BF80BD000000003F
S315080051B080B400AFFEE70000000000000000000019
S315080051C080B588B000AFF860B9607A603B6000F0DF
S315080051D067F8F861FB69002B36DBFB69DBB218461A
S315080051E0FFF7BEFEB861BB68002B06D13B68002BF3
S315080051F003D1BB6901225A7220E03B687B61BB6A16
S3150800520003F18043103B9B007A6913443B614022BB
S315080052100021386900F0C4F87A683B691A620D4AB9
S315080052203B695A63BA683B699A633869FCF7B0FB0D
S31508005230BB693A69DA60BB6900225A72BB690822FF
S31508005240F968184600F0CCF8FB6918462037BD46C1
S3150800525080BD00BFB151000800000000000000003A
S3150800526080B584B000AF78600B46FB707B68DBB214
S315080052701846FFF775FEF860FB68002B04D0FB683C
S31508005280FA785A727B6801E04FF0FF3318461037F8
S31508005290BD4680BD000000000000000000000000C0
S315080052A080B483B000AF00237B6015E00F4A7B68AB
S315080052B01B0113441D331B785BB2B3F1FF3F08D1C2
S315080052C00A4A7B681B0113441D3300221A707B6847
S315080052D007E07B6801337B607B68072BE6DD4FF0D0
S315080052E0FF3318460C37BD4680BC7047100F0020A8
S315080052F0B0B485B000AFF860B9607A607B68082BF7
S3150800530035D9FC68BD6809E02A46551C23465C1C4D
S3150800531092F900201A707B68013B7B607B68002B42
S3150800532013D0234603F00303002BEDD12B4603F0DD
S315080053300303002BE8D108E02A46151D23461C1D49
S3150800534012681A607B68043B7B607B68032BF3D882
S3150800535009E02A46551C23465C1C92F900201A705F
S315080053607B68013B7B607B68002BF2D10FE0FC6811
S31508005370BD6809E02A46551C23465C1C92F90020A4
S315080053801A707B68013B7B607B68002BF2D1FB6857
S3150800539018461437BD46B0BC704700000000000030
S315080053A080B487B000AFF860B9607A60FB687B614B
S315080053B005E07B695A1C7A61BA68D2B21A707B68B2
S315080053C05A1E7A60002BF4D1FB6818461C37BD4676
S315080053D080BC7047000000000000000000000000CC
S315080053E080B487B000AFF860B9607A60FB687B610B
S315080053F000BF7B685A1E7A60002B0CD0BA68531C13
S31508005400BB60FB68591CF96092F900201A7093F981
S315080054100030002BEDD17B6918461C37BD4680BC91
S3150800542070470000000000000000000000000000B7
S31508005430B0B483B000AF786000247B68002B08D036
S315080054407D6800E001342B465D1C93F90030002B83
S31508005450F8D1234618460C37BD46B0BC7047000045
S3150800546080B485B000AF786039607B68FB6002E085
S31508005470FB680133FB60FB6893F90030002BF7D11A
S31508005480FB685A1CFA603A6892F900201A703B6861
S315080054905A1C3A6093F90030002BF1D17B68184604
S315080054A01437BD4680BC70470000000000000000AD
S315080054B080B586B000AF78603960FFF741FE544B7F
S315080054C01B680133524A1360514B1B68013B514A12
S315080054D0136000BF4E4B1B68012BFBDC4D4B1A6853
S315080054E01346DB009B1A9B004B4A13441C220021DF
S315080054F01846FFF755FF3A687B68D31A7B617B69C4
S315080055009B0A3B613B69DB007A69D31AFB60FB683F
S315080055105909404B1A6808463F491346DB009B1A4F
S315080055209B000B44103318603A4B1A683A491346E5
S31508005530DB009B1A9B000B4410331B685B09990020
S31508005540344B1A68084634491346DB009B1A9B00FD
S315080055500B44083318602F4B1A682F491346DB0093
S315080055609B1A9B000B447A681A603B699A007B6811
S31508005570D118284B1A68084627491346DB009B1A98
S315080055809B000B44043318603B69DA007B68D1182A
S31508005590204B1A68084620491346DB009B1A9B00D5
S315080055A00B440C3318601B4B1A681B491346DB0067
S315080055B09B1A9B000B441868164B1A681649134623
S315080055C0DB009B1A9B000B4408331B681A46002114
S315080055D0FFF7E6FE0F4B1A680F491346DB009B1AC6
S315080055E09B000B44043318680A4B1A680A49134689
S315080055F0DB009B1A9B000B4408331B681A460021E4
S31508005600FFF7CEFEFFF7B4FD00BF1837BD4680BDD5
S31508005610C00F0020C40F0020A40F002000000000C7
S3150800562080B582B002AF1348FFF742FD0346124A1F
S315080056301360114B1B68002B17DB4FF48053009344
S315080056400E4B00220E490F48FFF7BAFD03460E4AD5
S3150800565013600D4B1B68002B07DB0B4B1B681846AA
S31508005660FFF75EFD00F014F8FCE700231846BD4678
S3150800567080BD00BF9063000850080020C80F0020B6
S3150800568021580008986300084C0800200000000014
S3150800569080B500AFFFF784FD00BF80BD00000000A5
S315080056A080B584B000AFF860B9601346FB710C2270
S315080056B00021F868FFF774FEFB68BA681A60FB6891
S315080056C0FA791A7100BF1037BD4680BD0000000088
S315080056D080B582B000AF78607B685B79002B24D0F8
S315080056E0FFF70EFD02467B689B68D31A7A68D28854
S315080056F093421AD9786800F03BF87B685B79FF2BF0
S315080057000ED0786800F044F8034683F00103DBB254
S31508005710002B05D07B685B79013BDAB27B685A714E
S31508005720FFF7EEFC02467B689A6000BF0837BD4665
S3150800573080BD00000000000000000000000000001E
S3150800574080B582B000AF78607B681B79002B05D0E6
S315080057507B681B681846FEF78BFF04E07B681B68AE
S315080057601846FEF775FF00BF0837BD4680BD000026
S3150800577080B582B000AF78607B681B681846FEF774
S3150800578057FF00BF0837BD4680BD00000000000077
S3150800579080B582B000AF78607B681B79002B11D08A
S315080057A07B681B681846FEF773FF0346002B14BF79
S315080057B001230023DBB283F00103DBB203F001030C
S315080057C0DBB205E07B681B681846FEF761FF0346F7
S315080057D018460837BD4680BD0000000000000000DE
S315080057E080B582B000AF78600B46FB7013463B80ED
S315080057F07B685B79002B0DD17B68FA785A717B68D8
S315080058003A88DA807868FFF79BFFFFF779FC02464B
S315080058107B689A6000BF0837BD4680BD000000005F
S3150800582080B582B000AF7860012208490848FFF7C2
S3150800583037FF4022FF210648FFF7D2FFFBF7C8FFD4
S315080058400348FFF745FFFCF703F8F9E700080020CF
S31508005850C81F002000000000000000000000000033
S31508005860C1F30A52F8B5A2F2FF35132D0B4684464A
S315080058700C46064632DC002D1EDB354F2F4101EA69
S315080058800702024315D030A3D3E90023FAF7C6FC72
S3150800589000220023FBF76AFE48B1002C04DD4FF412
S315080058A0801343FA05F52C44002624EA0704234608
S315080058B0B44660461946F8BD23A3D3E90023FAF790
S315080058C0ADFC00220023FBF751FE0028EFD0002C88
S315080058D034DB26432ED000261E4CE8E7332D08DDA0
S315080058E0B5F5806FE5D10246FAF798FC84460B4673
S315080058F0DFE74FF0FF37A2F21342D7400742D8D06E
S3150800590011A3D3E90023FAF789FC00220023FBF749
S315080059102DFE0028CBD0002C09DD142D0CD0012338
S31508005920C5F1340503FA05F5AE1928BFE41826EAC9
S315080059300706BCE73446BAE70134F8E700264FF015
S315080059400044B4E7AFF300809C7500883CE4377EDA
S31508005950FFFF0F000000F03F0000000000000000FD
S31508005960F8B504460D4600F03BF8174B064693F982
S3150800597000300F4601331AD022462B4620462946C8
S31508005980FBF706FE98B90022002320462946FBF7B6
S31508005990D5FD60B10022002320462946FBF7B6FD57
S315080059A040B100F0BDFA22230026084F03603046B6
S315080059B03946F8BD00F0B4FA2122034604481A60B5
S315080059C0BDE8F84000F09CB8540800200000F0FF3D
S315080059D094650008000000000000000000000000B8
S315080059E0B1F5801F2DE9F84304460D460B461ADA31
S315080059F0024621F00046324358D000295EDB0022D9
S31508005A00394BFBF7CDFA0D462B46384A04469342E6
S31508005A106FF035010BDD22462B4620462946FAF75C
S31508005A20FDFBBDE8F883314A00219342F3DC1815E3
S31508005A30A0F2FF300844C70F00EBD070C3F313067B
S31508005A40FAF738FDC7F57F73033346EA03550F4661
S31508005A5006462946204600F05BF81DA3D3E9002335
S31508005A608046894630463946FBF79AFA1AA3D3E99F
S31508005A70002304460D4640464946FBF791FA02467E
S31508005A800B4620462946FAF7C9FB15A3D3E9002396
S31508005A9004460D4630463946FBF782FA02460B465F
S31508005AA020462946FAF7BAFBBDE8F8830022002308
S31508005AB000200F49FBF7BCFBBDE8F8830246FAF75E
S31508005AC0ABFB00220023FBF7B3FBAAE7AFF300808A
S31508005AD0362BF111F3FE593D0EE526157BCBDB3F40
S31508005AE000609F501344D33F00005043FFFFEF7FF1
S31508005AF0000050C300000000000000000000000085
S31508005B0000200149704700BF0000F87F0000000030
S31508005B102DE9F04FB1F5801F02460B460F4687B0B8
S31508005B2059DA044621F000452C4300F0F880002994
S31508005B30C0F232810022D64BFBF732FA0F460B46EB
S31508005B40D4496FF035048F42024648DC3E15C7F348
S31508005B50130707F51521A6F2FF3601F6647101F45D
S31508005B608011264406EB115681F07F5181F44011CD
S31508005B7041EA0703104619460022C74BFAF74CFBC1
S31508005B80BB1CC3F31303022B82468B462EDC002272
S31508005B900023FBF7BBFC002800F0CA80002E00F0AB
S31508005BA04B813046FAF786FCA5A3D3E900230646BF
S31508005BB00F46FBF7F5F9A4A3D3E9002304460D46DF
S31508005BC030463946FBF7ECF902460B46204629468D
S31508005BD0FAF724FB07E0AF4900248F42B6DD1046EA
S31508005BE01946FAF71BFB07B0BDE8F08FA7F5C223E5
S31508005BF0A3F27A43002201934FF08043FAF70EFB93
S31508005C000B46024659465046FBF712FB02463046FB
S31508005C1014460D46FAF74EFC22462B46CDE90401FA
S31508005C2020462946CDE90245FBF7BAF902460B4656
S31508005C3080468946FBF7B4F985A3D3E900230446D1
S31508005C400D46FBF7ADF984A3D3E90023FAF7E6FA84
S31508005C5022462B46FBF7A4F981A3D3E90023FAF7DA
S31508005C60DDFA22462B46FBF79BF97FA3D3E90023EF
S31508005C70FAF7D4FA42464B46FBF792F97CA3D3E9E6
S31508005C8000238046894620462946FBF789F97AA3E8
S31508005C90D3E90023FAF7C2FA22462B46FBF780F926
S31508005CA077A3D3E90023FAF7B9FA22462B46FBF77E
S31508005CB077F90B46024649464046FAF7AFFAC7F562
S31508005CC0D727019B51371F43002F8046894655DD4C
S31508005CD00022724B50465946FBF762F952465B461C
S31508005CE0FBF75EF904460D46002E5CD122462B468C
S31508005CF040464946FAF792FADDE90223FBF750F9DE
S31508005D0002460B4620462946FAF786FA02460B460D
S31508005D1050465946FAF780FA07B0BDE8F08F0022D8
S31508005D20002300205E49FBF783FA07B0BDE8F08F31
S31508005D3055A3D3E9002350465946FBF731F90246E5
S31508005D400B4600205549FAF767FA524604460D46AF
S31508005D505B4650465946FBF723F902460B46204652
S31508005D602946FBF71DF904460D46002E50D102467A
S31508005D700B4650465946FAF74FFA34E7002E40F0DC
S31508005D80918002460B4650465946FAF745FADDE930
S31508005D900223FBF705F9B9E7FAF73EFA00220023D2
S31508005DA0FBF746FA1FE726A3D3E90023DDE904013A
S31508005DB0FBF7F6F822462B4606460F464046494666
S31508005DC0FAF72CFADDE90223FBF7EAF81EA3D3E972
S31508005DD0002380468946DDE90401FBF7E1F802461F
S31508005DE00B4640464946FAF719FA02460B4620463C
S31508005DF02946FAF711FA52465B46FAF70DFA0246B1
S31508005E000B4630463946FAF707FA07B0BDE8F08F71
S31508005E103046FAF74FFB0AA3D3E9002380468946A2
S31508005E20FBF7BEF808A3D3E9002306460F4640460B
S31508005E304946FBF7B5F8D8E700200021D3E600BFAE
S31508005E400000E0FE422EE63F763C7935EF39EA3D22
S31508005E5044523EDF12F1C23FDE03CB966446C73F8B
S31508005E60599322942449D23F935555555555E53FA4
S31508005E709FC678D0099AC33FAF788E1DC571CC3FAF
S31508005E8004FA97999999D93F555555555555D53F7A
S31508005E9000005043FFFFEF7F0000F03F0000E03FA7
S31508005EA0000050C316A3D3E90023DDE90401FBF77C
S31508005EB077F842464B4604460D4650465946FAF789
S31508005EC0ABF9DDE90223FBF76BF80FA3D3E900234F
S31508005ED006460F46DDE90401FBF762F802460B4663
S31508005EE030463946FAF798F952465B46FAF794F976
S31508005EF002460B4620462946FAF78EF973E600BF96
S31508005F000000E0FE422EE63F763C7935EF39EA3D61
S31508005F10000050E3000060B21EFF2FE10000000001
S31508005F2004309FE5000093E51EFF2FE15808002086
S31508005F30023042E2220053E30030A08310402DE9EC
S31508005F400300A0810140A0E10030C1850A00008A53
S31508005F50A03FA0E10A0052E30030A013013003027B
S31508005F60000053E32D30A0130410A0010130C11422
S31508005F7000006012050000EB0400A0E11040BDE837
S31508005F801EFF2FE1000000000000000000000000D6
S31508005F90F0432DE92CD04DE20DC0A0E1D0E09FE5FD
S31508005FA0023042E2220053E30140A0E10280A0E170
S31508005FB00070A0E10F00BEE80F00ACE80F00BEE8D5
S31508005FC00F00ACE80030A08303009EE804008CE4D0
S31508005FD00030C4850300A0810010CCE52100008AAA
S31508005FE0016044E20690A0E10050A0E30700A0E1AA
S31508005FF00810A0E1B2EDFFEB0720A0E128308DE202
S31508006000011083E0283051E5020058E105C0A0E1FF
S315080060100070A0E10130E9E5015085E2F2FFFF9A40
S315080060200030A0E303005CE10530C4E70C00000A79
S31508006030050084E00620A0E10110F6E50630E0E15F
S31508006040022082E2043083E001E070E5042042E0A9
S315080060500C3083E0030052E100E0C6E50010C0E51D
S31508006060F3FFFFBA0400A0E12CD08DE2F043BDE8AF
S315080060701EFF2FE170650008000000000000000008
S315080060800030A0E310402DE90010A0E10320A0E1B4
S315080060900300A0E11D0000EB1040BDE81EFF2FE144
S315080060A070402DE930509FE530409FE5044045E0BB
S315080060B04441B0E10500000A043035E5014044E2F8
S315080060C00FE0A0E113FF2FE1000054E3F9FFFF1AE8
S315080060D0300100EB7040BDE81EFF2FE1F800000814
S315080060E0F4000008000000000000000000000000A6
S315080060F01EFF2FE100000000000000000000000065
S315080061001EFF2FE100000000000000000000000054
S31508006110F0412DE9A8809FE50040A0E1000098E540
S315080061200360A0E10150A0E10270A0E1EFFFFFEBE0
S3150800613090309FE5003093E548C193E500005CE3A5
S3150800614053CF830204E09CE548C183051F005EE344
S31508006150170000CA000054E30800001A01308EE256
S3150800616002E08EE204308CE5000098E50E518CE7DB
S31508006170E2FFFFEB0000A0E3F041BDE81EFF2FE1C0
S315080061800130A0E30E118CE0887081E588219CE53A
S31508006190133EA0E1032082E188218CE5086181E5B0
S315080061A0020054E38C219C05033082018C318C0556
S315080061B0E9FFFFEA000098E5D0FFFFEB0000E0E307
S315080061C0ECFFFFEA880C002060650008000000006C
S315080061D004F01FE5910F0008000000000000000011
S315080061E03031323334353637383900000000000094
S315080061F00002000400000006000000000000000085
S31508006200386269746765656B2E6E657400000000F8
S315080062104275672D4F2D4D6174696300736F7572F2
S31508006220636520616E642073696E6B2064617461B6
S31508006230000000006C6F6F7020696E7075742074B2
S315080062406F206F7574707574000000006661696C64
S31508006250656420746F2077726974653F3A202564F7
S315080062600A0000006C6F6F7020494E2025780A00DE
S315080062706C6F6F70204F555420257820676F7420F7
S315080062802564203D3E2025640A0000006374726C74
S3150800629020627265713A2025782C20626D52543A34
S315080062A02025782C2077696E646578203A25782C25
S315080062B020776C656E3A2025782C207776616C20DD
S315080062C03A25780A0000000066616B65206C6F6FDE
S315080062D0706261636B206F662025640A0000000007
S315080062E043616E2774207772697465206D6F7265D5
S315080062F0207468616E206F757420636F6E74726F98
S315080063006C2062756666657221202564203E20250C
S31508006310640A00005472756E636174696E67207250
S3150800632065706C7920746F206D6174636820774C92
S31508006330656E0A00556E68616E646C6564207265E8
S315080063407175657374210A00736574206366672026
S3150800635025640A0073657420636F6E6669677572D3
S315080063606174696F6E20756E6B6E6F776E3A202555
S31508006370640A0000000000000000000000000000A1
S315080063802E000000000000000000000000000000D1
S315080063906D61696E00000000666561747572655FFF
S315080063A06D61696E0000000000000000000000003A
S315080063B004010004000202000000000000000000C2
S315080063C000A24A040051250200A24A04070100045B
S315080063D000020201000000000000000000A24A04BA
S315080063E00051250200A24A04070100040002020423
S315080063F0010406000000000000A24A04005125021C
S3150800640000A24A040101000000000000000000008C
S315080064100000000000366E0100366E0100366E017F
S31508006420070100040003020000000000000000004D
S3150800643000A24A040051250200A24A0400000000F6
S31508006440F1240008F1250008A1260008C128000843
S3150800645061290008212B0008C12A0008D12B000851
S31508006460A12C0008E12D0008000000000000000033
S31508006470000000000000000000000000000000000E
S3150800648012010002FF000040FECAFECA0100010216
S3150800649003020000000000000000000000000000E9
S315080064A00705010240000100000000000000000787
S315080064B005810240000100000000000000000705F9
S315080064C002024000010000000000000000070582EB
S315080064D0024000010000000000000000000000006B
S315080064E00904000002FF000000A064000800000084
S315080064F0000000000000000000000000000000008E
S315080065000904000004FF000000A064000800000061
S31508006510000000000000000000000000000000006D
S31508006520000000000100000000000000E064000810
S3150800653000000000010000000000000000650008DF
S3150800654009020000010204803220650008090200E1
S3150800655000010305803230650008000000000000D5
S315080065606008002000000000000000000000000095
S3150800657030313233343536373839616263646566AB
S315080065806768696A6B6C6D6E6F7071727374757615
S30A080065907778797A0016
S311080065980DC0A0E1F8DF2DE904B04CE2CC
S30D080065A40CA7FF7F01000000AF
S315080065B0001001400020000000127A0000127A0044
S315080065C000127A00303132333435363738392E30C6
S315080065D03132333435363738392E30313233343573
S315080065E036373839000000000062000810620008DB
S315080065F0140800201C62000834620008FFFFFFFF31
S31508006600FFFFFFFFFF0000006008002000000000F9
S31508006610000000004C0B0020B40B00201C0C0020CE
S31508006620000000000000000000000000000000005C
S31508006630000000000000000000000000000000004C
S31508006640000000000000000000000000000000003C
S31508006650000000000000000000000000000000002C
S31508006660000000000000000000000000000000001C
S31508006670000000000000000000000000000000000C
S3150800668000000000000000000000000000000000FC
S3150800669000000000000000000000000000000000EC
S315080066A000000000000000000000000000000000DC
S315080066B000000000000000000100000000000000CB
S315080066C00E33CDAB34126DE6ECDE05000B00000090
S315080066D000000000000000000000000000000000AC
S315080066E0000000000000000000000000000000009C
S315080066F0000000000000000000000000000000008C
S31508006700000000000000000000000000000000007B
S31108006A300000000000000000D41F002039
S70508000141B0
