S01300006C6F6E67616E2D6E616E6F2E73726563B9
S31508000000EF20501A000000000000000078190008D0
S315080000100000000000000000000000007018000842
S3150800002000000000000000000000000000000000C2
S3150800003000000000000000000000000000000000B2
S3150800004000000000A0290008A0290008A02900082F
S31508000050A0290008A0290008A0290008A02900084E
S31508000060A0290008A0290008A0290008A02900083E
S31508000070A0290008A0290008A0290008A02900082E
S31508000080A0290008A0290008A0290008A02900081E
S31508000090A0290008A0290008A0290008A02900080E
S315080000A0A0290008A0290008A0290008A0290008FE
S315080000B0A0290008A0290008A0290008A0290008EE
S315080000C0A0290008A0290008A0290008A0290008DE
S315080000D0A0290008A0290008A0290008A0290008CE
S315080000E0A0290008A0290008A0290008A0290008BE
S315080000F0A0290008A0290008000000000000000050
S31508000100000000000000000000000000A029000810
S3150800011000000000A0290008A0290008A02900085E
S31508000120A0290008A0290008A0290008A02900087D
S31508000130A0290008A0290008A0290008A02900086D
S315080001400000000000000000A0290008A0290008FF
S31108000150A0290008A0290008A029000822
S31508000160011106CE22CC00102326A4FE0325C4FEC8
S31508000170EF00503DF167938507200325C4FEEF0085
S31508000180F04981450325C4FEEF00B05F814503258C
S31508000190C4FEEF00706381450325C4FEEF00505A84
S315080001A081450325C4FEEF00907281450325C4FEF0
S315080001B0EF00D07691450325C4FEEF00906CA1456B
S315080001C00325C4FEEF0030670325C4FEEF00306444
S315080001D00100F240624405618280397106DE22DC44
S315080001E080002326A4FC0325C4FCEF00501D9307BA
S315080001F044FD3E85EF007024232C04FC9307401031
S31508000200232AF4FC232E04FC8D472324F4FE9307AB
S3150800021000202320F4FEC1472326F4FE232204FEF1
S31508000220930744FDBE850325C4FCEF003025010075
S31508000230F250625421618280411106C622C4000828
S3150800024013052060452B130530606D2313054060A8
S31508000250552313055060792B13050050612B1305A0
S31508000260E060492B1305E07071231305B07059231C
S31508000270B72704E091079843B72704E09107136767
S31508000280071098C399460946C145B7170140138513
S315080002900780AD269945B7170140138507800D2BB2
S315080002A089660946C14537150140892E896537157E
S315080002B00140392B930600200D46E145B71701404A
S315080002C013850780252E930600400D469145B717DE
S315080002D00140138507801D26B7470140138507800F
S315080002E0413585660D46C145B7170140138507C0D8
S315080002F03126A9660D46E145B7170140138507C0A3
S31508000300F52C91660D469145B7170140138507C030
S31508000310F524B747004013850780C1350100B24070
S31508000320224441018280797106D622D40018232EF0
S31508000330A4FC0327C4FD994763E5E702A9472313ED
S31508000340F4FEA30704FE8327C4FD13970701418320
S31508000350835764FEB307F702C207C1832316F4FE68
S3150800036025A09307C0092324F4FE9947A307F4FEA2
S315080003700327C4FD832784FE3307F7029307803ECD
S31508000380B357F7022316F4FE8357C4FE0347F4FE59
S31508000390BA853E854522AA87FD1793B7170093F7B6
S315080003A0F70F3E85B250225445618280411106C638
S315080003B022C40008B1220100B240224441018280D1
S315080003C0411106C622C40008892A0100B240224407
S315080003D041018280797106D622D44AD24ED00018BD
S315080003E0EF10600CF37704302326F4FEF377013020
S315080003F02324F4FEB70700D291079C432322F4FE78
S31508000400032744FE8967FD17F98F2322F4FE032587
S3150800041044FEEF009055EF1040001D45EF10C00355
S315080004201D45EF00F05A85451D45EF00106D8545C1
S315080004301D45EF005075B707002003A7874285675B
S31508000440938707FA3357F702B70700D1A1073A8906
S31508000450814923A0270123A23701B70700D1814686
S31508000460014794C3D8C30D45EF00107F0D45EF0033
S31508000470305689450D45EF00506889450D45EF0012
S315080004809070F36704302320F4FEF3670130232EBF
S31508000490F4FC0100B25022541259825945618280F7
S315080004A0411106C622C40008B707002013878743F0
S315080004B0B707002093870700B307F7403E86B7873C
S315080004C00008938587A3B707002013850700EF6008
S315080004D03054B717002013870754B70700209387AF
S315080004E08743B307F7403E868145B7070020138543
S315080004F08743EF60B0630100B24022444101828025
S31508000500411122C60008B737004035671307C7CC24
S3150800051098C30100324441018280411122C6000875
S31508000520B73700402D671307A7AA98C301003244BE
S3150800053041018280797122D60018AA872E87231F47
S31508000540F4FCBA87A30EF4FCB7071000FD172326A0
S31508000550F4FE232404FEB7370040156713075755E2
S3150800056098C3B7370040B1079C43858B2324F4FE14
S315080005708327C4FEFD172326F4FE8327C4FE81C7FE
S31508000580832784FEF9FF832784FE99C381479DA0AC
S31508000590B737004091070347D4FD98C3B707100043
S315080005A0FD172326F4FEB7370040B1079C43898B15
S315080005B02324F4FE8327C4FEFD172326F4FE83278F
S315080005C0C4FE81C7832784FEF9FF832784FE99C367
S315080005D081470DA08356E4FDB7370040A10705679C
S315080005E07D17758F98C3B73700402D671307A7AADD
S315080005F098C385473E85325445618280797122D6F3
S315080006000018232EA4FC232CB4FC232AC4FC23287C
S31508000610D4FC232404FE232204FE832784FDBD8BF9
S315080006202324F4FE832784FDC18B81CB032784FE14
S31508000630832744FDD98F2324F4FE231704FE4DA8EF
S315080006408357E4FE05473317F700832704FDF98F20
S31508000650D9CB8327C4FD9C432322F4FE8357E4FEAB
S315080006608A073D47B317F70093C7F7FF032744FEEA
S31508000670F98F2322F4FE8357E4FE8A07032784FEB4
S31508000680B317F700032744FED98F2322F4FE032766
S3150800069084FD930780026310F7028357E4FE05473B
S315080006A03317F7008327C4FDD107BE86832704FDC9
S315080006B0F98F9CC225A0032784FD93078004631F36
S315080006C0F7008357E4FE05473317F7008327C4FD71
S315080006D0C107BE86832704FDF98F9CC28327C4FD04
S315080006E0032744FE98C38357E4FE85072317F4FEC1
S315080006F00357E4FE9D47E3F5E7F4A1472317F4FE05
S3150800070075A88357E4FE05473317F700832704FDCA
S31508000710F98FC5C38327C4FD91079C432322F4FEA2
S315080007208357E4FEE1178A073D47B317F70093C7D7
S31508000730F7FF032744FEF98F2322F4FE8357E4FECE
S31508000740E1178A07032784FEB317F700032744FE39
S31508000750D98F2322F4FE032784FD930780026310B2
S31508000760F7028357E4FE05473317F7008327C4FDCE
S31508000770D107BE86832704FDF98F9CC225A00327CF
S3150800078084FD93078004631FF7008357E4FE05473B
S315080007903317F7008327C4FDC107BE86832704FDE8
S315080007A0F98F9CC28327C4FD91073E87832744FEA1
S315080007B01CC38357E4FE85072317F4FE0357E4FE9C
S315080007C0BD47E3F0E7F40100010032544561828039
S315080007D0011122CE00102326A4FE2324B4FE83276B
S315080007E0C4FEC1073E87832784FE1CC301007244EA
S315080007F005618280011122CE0010AA872317F4FE14
S315080008008357E4FE9983C207C1833E87B717024020
S31508000810BA9798438357E4FEFD8B8546B397F6004F
S315080008208356E4FE9982C206C1823686B71602400E
S31508000830B296D98F9CC2010072440561828001116B
S3150800084022CE0010AA872317F4FE8357E4FE998365
S31508000850C207C1833E87B7170240BA9798438357A2
S31508000860E4FEFD8B8546B397F6008356E4FE99822F
S31508000870C206C1823686B7160240B296D98F9CC286
S315080008800100724405618280011122CE0010AA87F8
S315080008902317F4FE8357E4FE9983C207C1833E8774
S315080008A0B7170240BA9798438357E4FEFD8B8546EF
S315080008B0B397F60093C7F7FF8356E4FE9982C206FC
S315080008C0C1823686B7160240B296F98F9CC20100DD
S315080008D07244056182801971A2DE0001AA87A30706
S315080008E0F4F8232604FEB77700089387876D9043AC
S315080008F0D4439847DC472322C4FA2324D4FA232670
S31508000900E4FA2328F4FA232E04F8B7070304938796
S3150800091017202320F4FA232A04F8B7070304938739
S315080009201720232CF4F8B717024091079C438983B4
S315080009308D8B232CF4FC032784FD8947630EF7026D
S31508000940032784FD894763EBE716832784FD99C748
S31508000950032784FD8547630AF7008DA2B7177A0037
S31508000960938707202324F4FE95A2B7177A00938766
S3150800097007202324F4FE99AAB71702409107984343
S31508000980C167F98F232AF4FC032744FDC167631066
S31508000990F70AB7177A00938707202320F4FEB717BC
S315080009A002409387C7029843C167F98F2328F4FC4E
S315080009B0032704FDC167631AF704B7170240938734
S315080009C0C7029C439183BD8B85072326F4FCB71782
S315080009D002409387C7029C43A183BD8B8907232EB8
S315080009E0F4FC0327C4FDC5476315F700D147232E3A
S315080009F0F4FC032704FE8327C4FCB357F702032736
S31508000A00C4FDB307F7022320F4FEB7170240938705
S31508000A10C7029C43BD8B85072324F4FC032704FEE9
S31508000A20832784FCB357F7022320F4FE39A0B717AF
S31508000A303D00938707902320F4FEB71702409107DD
S31508000A409C43C983BD8B2322F4FEB7170240910746
S31508000A509843B7070020F98F99C7832744FE93E781
S31508000A6007012322F4FE032744FEB94763E8E7009B
S31508000A70832744FE89072322F4FE31A0832744FEF8
S31508000A8085072322F4FE032704FE832744FEB307C3
S31508000A90F7022324F4FE032744FEBD476317F70233
S31508000AA0032704FEBA878607BA9786073E878327F1
S31508000AB004FE8583BA972324F4FE01A8B7177A00A3
S31508000AC0938707202324F4FE11A00100B7170240DC
S31508000AD091079C439183BD8B2322F4FC832744FC16
S31508000AE0130704FFBA9783C747FB2320F4FC832721
S31508000AF004FC032784FEB357F700232EF4FAB7172E
S31508000B00024091079C43A1839D8B2322F4FC8327F3
S31508000B1044FC130704FFBA9783C7C7FA2320F4FCDB
S31508000B20832704FC0327C4FBB357F700232CF4FAE6
S31508000B30B717024091079C43AD839D8B2322F4FC93
S31508000B40832744FC130704FFBA9783C747FA232071
S31508000B50F4FC832704FC0327C4FBB357F700232AB6
S31508000B60F4FA8347F4F80D47638FE7020D476341AC
S31508000B70F70409476384E7020947634BF70289C705
S31508000B8005476388E7002DA0832784FE2326F4FE05
S31508000B900DA08327C4FB2326F4FE21A8832784FB04
S31508000BA02326F4FE39A0832744FB2326F4FE11A04E
S31508000BB001008327C4FE3E857654096182800111AF
S31508000BC006CE22CC00102326A4FE0327C4FEB73780
S31508000BD001406309F7020327C4FEB737014063E8FB
S31508000BE0E7040327C4FEB7470040938707806302DC
S31508000BF0F7020327C4FEB7470040938707C063017F
S31508000C00F70235A01305C0301D391305C030AD39BC
S31508000C1005A01305E04025311305E040B53109A8C4
S31508000C201305F04029391305F040B93911A0010020
S31508000C300100F240624405618280011122CE001053
S31508000C402326A4FE8327C4FE23A007008327C4FE09
S31508000C5023A207008327C4FE23A407008327C4FE14
S31508000C6023A607008327C4FE23AA07008327C4FEFA
S31508000C7023AC07000100724405618280797122D68F
S31508000C800018232EA4FC232CB4FC232604FE832759
S31508000C90C4FD9C432326F4FE0327C4FE8D67938771
S31508000CA00704F98F2326F4FE832784FD9C43032734
S31508000CB0C4FED98F2326F4FE832784FDDC4303274D
S31508000CC0C4FED98F2326F4FE832784FD9C47032779
S31508000CD0C4FED98F2326F4FE832784FDDC47032729
S31508000CE0C4FED98F2326F4FE832784FD9C4B032755
S31508000CF0C4FED98F2326F4FE832784FDDC4B032705
S31508000D00C4FED98F2326F4FE832784FD9C4F032730
S31508000D10C4FED98F2326F4FE8327C4FD0327C4FE09
S31508000D2098C38327C4FDF10798438327C4FDF107B9
S31508000D30BE86FD779387F77FF98F9CC201003254F0
S31508000D4045618280011106CE22CC00102326A4FE1E
S31508000D500327C4FEB7470140938707806307F70652
S31508000D600327C4FEB74701409387078063E2E70A73
S31508000D700327C4FEB75700406305F7080327C4FED8
S31508000D80B757004063E6E7080327C4FEB757004095
S31508000D90938707C06300F7060327C4FEB7570040CA
S31508000DA0938707C063E6E7060327C4FEB7470040F4
S31508000DB0938707406302F7020327C4FEB75700402C
S31508000DC0938707806301F702A1A01305E030853CED
S31508000DD01305E030553C35A8130510418D3413052D
S31508000DE010415D343DA013052041913C1305204177
S31508000DF0613C05A013053041993413053041693427
S31508000E0009A813054041253C13054041B53C11A0EE
S31508000E1001000100F240624405618280797106D6BC
S31508000E2022D40018232EA4FC232CB4FC232604FE6B
S31508000E30232404FE232204FE232004FE0327C4FDE4
S31508000E40B7470140938707806307F7060327C4FD62
S31508000E50B74701409387078063E8E7080327C4FD7F
S31508000E60B7570040630DF7060327C4FDB757004080
S31508000E7063ECE7060327C4FDB7570040938707C00E
S31508000E80630AF7040327C4FDB7570040938707C0D2
S31508000E9063ECE7040327C4FDB74700409387074080
S31508000EA06300F7020327C4FDB757004093870780FE
S31508000EB0630DF70015A80D45393C2326A4FE35A079
S31508000EC00945113C2326A4FE0DA0094529342326ED
S31508000ED0A4FE21A8094501342326A4FE39A0094504
S31508000EE0DD3A2326A4FE11A00100832784FD13D72B
S31508000EF017008327C4FE3E97832784FDB357F7025E
S31508000F002320F4FE032704FEC167C117F98F2324A3
S31508000F10F4FE832704FEBD8B2322F4FE032784FEFA
S31508000F20832744FE5D8F8327C4FDA107BE86C1675C
S31508000F30FD17F98F9CC20100B25022544561828088
S31508000F40011122CE00102326A4FE2324B4FE8327F3
S31508000F50C4FEB1079C430327C4FE310793F7F79FE6
S31508000F601CC38327C4FEB10798438327C4FEB10771
S31508000F70BE86832784FED98F9CC201007244056110
S31508000F808280011122CE00102326A4FE2324B4FE5B
S31508000F908327C4FEB10798438327C4FEB107BE86DC
S31508000FA0FD77FD17F98F9CC28327C4FEB1079843C6
S31508000FB08327C4FEB107BE86832784FED98F9CC2C9
S31508000FC00100724405618280011122CE0010232699
S31508000FD0A4FE2324B4FE8327C4FEC10798438327AF
S31508000FE0C4FEC107BE86F577FD17F98F9CC2832715
S31508000FF0C4FEC10798438327C4FEC107BE8683275C
S3150800100084FED98F9CC20100724405618280011159
S3150800101022CE00102326A4FE8327C4FEB1079843D8
S315080010208327C4FEB107BE868967D98F9CC2010093
S31508001030724405618280797122D60018232EA4FC99
S31508001040232CB4FC232604FE8327C4FDB1079C4346
S315080010502326F4FE8327C4FEDD9B2326F4FE0327FE
S31508001060C4FE832784FDD98F2326F4FE8327C4FD77
S31508001070B1073E878327C4FE1CC30100325445616D
S315080010808280797122D60018232EA4FC232CB4FC66
S31508001090232604FE8327C4FDB1079C432326F4FEBA
S315080010A08327C4FEED9B2326F4FE0327C4FE83276D
S315080010B084FDD98F2326F4FE8327C4FDB1073E8716
S315080010C08327C4FE1CC301003254456182807971AE
S315080010D022D60018232EA4FC232CB4FC232604FEB7
S315080010E08327C4FDD1079C432326F4FE8327C4FE29
S315080010F093F7F7EF2326F4FE0327C4FE832784FD20
S31508001100D98F2326F4FE8327C4FDD1073E8783277C
S31508001110C4FE1CC30100325445618280797122D60F
S315080011200018232EA4FC232CB4FC232604FE8327B4
S31508001130C4FDD1079C432326F4FE8327C4FE93F7F8
S31508001140F7DF2326F4FE0327C4FE832784FDD98F01
S315080011502326F4FE8327C4FDD1073E878327C4FED2
S315080011601CC30100325445618280797122D6001869
S31508001170232EA4FCB70700D223800700B70700D2A6
S31508001180AD0723800700B71700D22324F4FE832770
S31508001190C4FD9207032784FEBA972322F4FE832709
S315080011A084FE2326F4FE11A88327C4FE23A0070085
S315080011B08327C4FEC1072326F4FE0327C4FE83271C
S315080011C044FEE363F7FE0100010032544561828064
S315080011D0011122CE00102326A4FE8327C4FE1397EE
S315080011E02700B71700D28507BA973E878547230099
S315080011F0F7000100724405618280011122CE0010B9
S315080012002326A4FEAE87A305F4FE8327C4FE139700
S315080012102700B71700D28D07BA973E878347B4FED3
S315080012202300F7000100724405618280011122CE75
S3150800123000102326A4FE8327C4FE13972700B7179A
S3150800124000D28D07BA9783C7070093F7F70F3E8535
S31508001250724405618280011122CE00102326A4FE65
S31508001260AE87A305F4FE8327C4FE13972700B71796
S3150800127000D28907BA973E878347B4FE2300F70052
S315080012800100724405618280011122CE00102326D6
S31508001290A4FE8327C4FE13972700B71700D2890731
S315080012A0BA9783C7070093F7F70F3E85724405611F
S315080012B08280411122C60008B70700D283C70700FB
S315080012C093F7F70F3E85324441018280011106CE1D
S315080012D022CC0010F93FAA87A307F4FE8347F4FE41
S315080012E0858393F7F70FBD8BA307F4FE8347F4FEB8
S315080012F03E85F240624405618280797106D622D421
S315080013000018232EA4FCAE87A30DF4FCC137AA87C8
S31508001310A307F4FE0347F4FE914763F5E7009147F8
S31508001320A307F4FE0347B4FD8347F4FEA146B3873B
S31508001330F640B317F7002307F4FE0325C4FDFD3571
S31508001340AA87A306F4FE0347D4FE8347F4FEB31721
S31508001350F700A306F4FE0347D4FE8347F4FEB3570B
S31508001360F740A306F4FE0347D4FE8347E4FED98F6D
S3150800137093F7F70FBE850325C4FD41350100B2502A
S31508001380225445618280797106D622D40018232E0C
S31508001390A4FCAE87A30DF4FC153FAA87A307F4FEA9
S315080013A00347F4FE8D4763F7E7009147A307F4FE6A
S315080013B08147B9A88347B4FD9207A30DF4FC03251A
S315080013C0C4FDAD35AA872307F4FE0347E4FE834729
S315080013D0F4FEA146B387F640B357F7402307F4FE59
S315080013E00347E4FE8347F4FEA146B387F640B317E6
S315080013F0F7002307F4FE0347E4FE8347B4FDD98FBD
S3150800140093F7F70FBE850325C4FDC53B8347B4FD97
S315080014103E85B250225445618280011122CE0010C9
S31508001420F32750302326F4FE8327C4FE2324F4FE34
S31508001430832784FE93F707FC2324F4FE832784FE80
S3150800144093E737002324F4FE832784FE73905730EE
S315080014500100724405618280797106D622D400188B
S31508001460232EA4FC0325C4FD0535AA87A307F4FE8D
S315080014708347F4FE93E717002307F4FE8347E4FE49
S31508001480BE850325C4FDC13B0100B2502254456107
S315080014908280411106C622C4000855280100B240C0
S315080014A0224441018280411106C622C40008B717AA
S315080014B002409843B71702401367170098C3B71737
S315080014C0024091079443B717024091073707FFE098
S315080014D03107758F98C3B71702409443B717024070
S315080014E03707F7FE7D17758F98C3B71702409443E1
S315080014F0B71702403707FCFF7D17758F98C3B717D4
S31508001500024091079443B71702409107370701DF56
S315080015107D17758F98C3B71702409387C70223A014
S315080015200700B71702409443B71702403707F7EA90
S315080015307D17758F98C3B7170240A1073707FF00B5
S3150800154098C3813F0100B2402244410182800111C3
S3150800155022CE0010232604FE232404FEB7170240D9
S315080015609443B71702404167558F98C38327C4FE33
S3150800157085072326F4FEB71702409843B7070200EB
S31508001580F98F2324F4FE832784FE99E70327C4FEF4
S31508001590C167FD17E31CF7FCB71702409843B70766
S315080015A00200F98F91E301A0B7170240138747009D
S315080015B0B71702409107184398C3B7170240138715
S315080015C04700B71702409107184398C3B717024058
S315080015D091079843B717024091071367074098C3C6
S315080015E0B717024091079443B71702409107370788
S315080015F0C4DF7D17758F98C3B717024091079443C8
S31508001600B7170240910737072920558F98C3B71790
S3150800161002409387C7029443B71702409387C702CD
S315080016203D77758F98C3B71702409387C7029443CF
S31508001630B71702409387C7024167130717F1558FFB
S3150800164098C3B71702409443B717024037070004F8
S31508001650558F98C30100B71702409843B70700088B
S31508001660F98FF5DBB71702409443B71702403707DF
S315080016700010558F98C30100B71702409843B70763
S315080016800020F98FF5DBB71702409443B7170240DD
S3150800169037070001558F98C30100B71702409843D2
S315080016A0B7070002F98FF5DBB71702409107984391
S315080016B0B71702409107719B98C3B7170240910765
S315080016C09843B717024091071367270098C301008C
S315080016D0B717024091079C43A18BFDDB010001006F
S315080016E07244056182800A85828081473E850111A0
S315080016F022CE00102326A4FE0327C4FE8327C4FE99
S31508001700F8DB0100724405618280011106CE22CC05
S315080017100010B70700209387474483C71700E207DE
S31508001720E1876349F002B70700209387474483C7D8
S315080017302700E207E18793F7F70FFD1793F7F70FEF
S31508001740E207E18737070020130747442301F7001C
S315080017506355F002B70700209387474483C70700FD
S3150800176093F7F70FBE86B70700201387474493877A
S3150800177016009207BA979C4B85A0232604FEB9A0AB
S315080017806928AA8793F7F70F3E85A1282324A4FE84
S31508001790832784FE83C79700E207E1876353F00235
S315080017A0832784FE83C79700139787016187B70746
S315080017B00020938747442381E700832784FEDC477C
S315080017C021A88327C4FE85072326F4FE0327C4FE23
S315080017D09D47E3D7E7FA81473E85F24062440561B3
S315080017E08280011122CE0010AA87A307F4FE0347C0
S315080017F0F4FE9D4763EEE7008347F4FE85071397DB
S315080018004700B707002093874744BA97910711A066
S3150800181081473E85724405618280411122C60008CF
S31508001820B70700209387474483C7070013F7F70FC6
S31508001830994763FAE700B707002093874744238050
S315080018400700814715A0B70700209387474483C739
S31508001850070093F7F70F850793F7F70F3707002069
S31508001860130747442300F7003E853244410182802E
S315080018700100197173900234F322103496DEF322B4
S31508001880003486DC8ADA8ED892D696D49AD29ED03E
S31508001890A2CEA6CCAACAAEC8B2C6B6C4BAC2BEC082
S315080018A042DE46DC4ADA4ED852D656D45AD25ED0F2
S315080018B062CE66CC6ACA6EC872C676C47AC27EC062
S315080018C0B70700209387474483C7070093F7F70FA6
S315080018D0BE84113DAA86B70700201387474493871D
S315080018E014009207BA9794CBB7070020938747440A
S315080018F0DC4313871700B707002093874744D8C3EC
S31508001900B70700D18146014794C3D8C3B70700205B
S31508001910938747449C4799C7B7070020938747444E
S315080019209C478297DD33AA8491C02681F65273902C
S315080019301234E6505651C6513652A652165386539D
S315080019407644E6445645C6453646A646164786476D
S315080019507258E2585259C259325AA25A125B825BDD
S31508001960724CE24C524DC24D324EA24E124F824F2D
S315080019700961730020300100010019717390023467
S31508001980F322103496DEF322003486DC8ADA8ED807
S3150800199092D696D49AD29ED0A2CEA6CCAACAAEC8C1
S315080019A0B2C6B6C4BAC2BEC042DE46DC4ADA4ED8B1
S315080019B052D656D45AD25ED062CE66CC6ACA6EC8A1
S315080019C072C676C47AC27EC0B7070020938747449A
S315080019D083C7070093F7F70FBE843133AA86B70784
S315080019E0002013874744938714009207BA9794CB2D
S315080019F0B71700D1F11723800700B7070020938790
S31508001A00474423810700B707002093874744DC47EC
S31508001A1099C7B707002093874744DC478297F53173
S31508001A20AA8491C02681F65273901234E650565114
S31508001A30C6513652A652165386537644E644564540
S31508001A40C6453646A646164786477258E25852593C
S31508001A50C259325AA25A125B825B724CE24C524D00
S31508001A60C24D324EA24E124F824F0961730020308A
S31508001A700100797106D622D40018232EA4FC130679
S31508001A8040098145B707002013854744EF50100ADF
S31508001A90232604FE15A0B70700201387474483278B
S31508001AA0C4FE85079207BA977D57A386E700832762
S31508001AB0C4FE85072326F4FE0327C4FE9D47E3DC00
S31508001AC0E7FC01478146014681450325C4FD792087
S31508001AD0AA873E85B250225445618280011122CEE2
S31508001AE000102326A4FEB707002093874744032740
S31508001AF0C4FE98C70100724405618280011122CE96
S31508001B0000102326A4FEB70700209387474403271F
S31508001B10C4FE98CB0100724405618280011106CE8D
S31508001B2022CC00102326A4FE85450325C4FE1922CF
S31508001B300100F240624405618280411122C6000814
S31508001B40B71700D1F11705472380E7000100324493
S31508001B5041018280411122C6000801A0397106DEC2
S31508001B6022DC8000232EA4FC232CB4FC232AC4FCEC
S31508001B702328D4FC2326E4FC09222326A4FE832753
S31508001B80C4FE63C2070A8327C4FE93F7F70F3E8590
S31508001B9089392324A4FE832784FD91EB832704FD3A
S31508001BA099E7832784FE0547A384E700ADA083272A
S31508001BB004FD2322F4FE0327C4FCB707004081175F
S31508001BC0BA978A07032744FEBA972320F4FE13061A
S31508001BD000088145032504FEEF504075032744FDA0
S31508001BE0832704FEF8CBB7270008138747B5832752
S31508001BF004FEB8DF032784FD832704FEF8DF0325E8
S31508001C0004FEF534832784FE032704FED8C78327FA
S31508001C1084FEA3840700832784FE21468325C4FD0A
S31508001C203E85EF50F0118327C4FE3E85F25062547C
S31508001C3021618280797106D622D40018232EA4FC4D
S31508001C40AE87A30DF4FC8327C4FD93F7F70F3E85F3
S31508001C50493E2326A4FE8327C4FE91CB8327C4FED0
S31508001C600347B4FDA384E7008327C4FD11A0FD57ED
S31508001C703E85B250225445618280011122CE001061
S31508001C80232604FEA9A0B707002013874744832705
S31508001C90C4FE85079207BA9783C7D70013978701AB
S31508001CA06187FD576310F702B7070020138747447B
S31508001CB08327C4FE85079207BA97A386070083275A
S31508001CC0C4FE21A88327C4FE85072326F4FE03271E
S31508001CD0C4FE9D47E3D9E7FAFD573E857244056180
S31508001CE08280411122C60008B7070020938747441F
S31508001CF083C7070093F7F70F3E8532444101828078
S31508001D00011106CE22CC00102326A4FE1306800657
S31508001D108145B70700201385874DEF502061B72707
S31508001D200008138567D85D3B0325C4FEEFE0AFDFE7
S31508001D300100F240624405618280411106C622C450
S31508001D400008EFE0AFE60100B2402244410182807C
S31508001D50411106C622C40008EFE08FE60100B24032
S31508001D60224441018280011122CE00102326A4FEBE
S31508001D70B70700209387874D0327C4FEB8D3010011
S31508001D80724405618280011106CE22CC0010B70785
S31508001D9000209387874D83C7470693C7170093F795
S31508001DA0F70FD9C7232604FEB5A80327C4FEBA87AA
S31508001DB08607BA978A07370700201307874DBA9709
S31508001DC02324F4FE832784FE83C78700B9C78327A5
S31508001DD084FEDC4389CB832784FEDC431387F7FF25
S31508001DE0832784FED8C3832784FEDC439DE7B70791
S31508001DF000209387874DBC5389CBB707002093876C
S31508001E00874DBC530325C4FE8297B70700209387E6
S31508001E10874D05472382E70601A08327C4FE850769
S31508001E202326F4FE0327C4FE9D47E3D0E7F80D37C3
S31508001E300100F240624405618280797122D6001859
S31508001E40232EA4FC232CB4FC0327C4FDBA878607DB
S31508001E50BA978A07370700201307874DBA972326AC
S31508001E60F4FE8327C4FE032784FD98C38327C4FE94
S31508001E7098438327C4FED8C3010032544561828043
S31508001E80797122D60018232EA4FC0327C4FDBA872D
S31508001E908607BA978A07370700201307874DBA9728
S31508001EA02326F4FE8327C4FE05472384E7000100A2
S31508001EB0325445618280797122D60018232EA4FCFB
S31508001EC00327C4FDBA878607BA978A07370700200B
S31508001ED01307874DBA972326F4FE8327C4FE984333
S31508001EE08327C4FED8C3010032544561828041115C
S31508001EF006C622C40008B77700081385876E953E84
S31508001F002A87B707002023A8E742B707002083A738
S31508001F10074363CD070813054006DD33393DB72768
S31508001F2000081385C7FDD93EB7270008138587FB28
S31508001F301D3DB707002083A70743930520033E8569
S31508001F40ED3DB707002083A707433E85153F056784
S31508001F50B7070020938607540146B73700089385CC
S31508001F60E798B77700081385076FCD3E2A87B70726
S31508001F70002023A6E742B707002083A7C74263C706
S31508001F800702B707002083A7C742930520033E85AB
S31508001F906D35B707002083A7C7423E85D535B707F5
S31508001FA0002083A7C7423E85953EB12881473E85D6
S31508001FB0B240224441018280011106CE22CC001093
S31508001FC02326A4FE8325C4FEB77700081385077069
S31508001FD0BD2D0100F240624405618280011106CEE2
S31508001FE022CC0010FD392326A4FE8327C4FE81E7F0
S31508001FF00145D13521A00325C4FE753D0100F240F7
S31508002000624405618280411106C622C4000835363D
S31508002010FDBF011106CE22CC0010AA87A307F4FE45
S315080020200307F4FEA9476314F7003545DD37B707FC
S31508002030002083A7C74385C3B707002083A7C743E4
S315080020409386170037070020232ED7420347F4FE4E
S315080020502380E70031A8B707002083A7874389CBE9
S31508002060B707002003A787438347F4FE3E850297F8
S31508002070F240624405618280011106CE22CC00102E
S315080020802326A4FE19A88327C4FE13871700232630
S31508002090E4FE838707003E85AD3F8327C4FE83871A
S315080020A00700F5F301000100F240624405618280F1
S315080020B0717106D722D54AD34ED152CF56CD5ACBB7
S315080020C05EC90019232EA4F4232CB4F48327C4F57F
S315080020D013871700232EE4F483C70700A303F4FC31
S315080020E0830774FC63870754030774FC930750023D
S315080020F06307F700830774FC3E85213F15AB232849
S3150800210004FC832704FD2326F4FC8327C4F51387E0
S315080021101700232EE4F483C70700A303F4FC030780
S3150800212074FC930700036310F70285472326F4FC23
S315080021308327C4F513871700232EE4F483C7070003
S31508002140A303F4FC25A0030774FC9307D002631FBE
S31508002150F70089472326F4FC8327C4F5138717005D
S31508002160232EE4F483C70700A303F4FC030774FCD7
S315080021709307A002631FF706832784F51387470092
S31508002180232CE4F49C432324F4FC832784FC63DB9C
S315080021900700832784FCB307F0402324F4FC89470F
S315080021A02326F4FC832784FC2328F4FC8327C4F520
S315080021B013871700232EE4F483C70700A303F4FC50
S315080021C0A9A0032704FDBA878A07BA9786073E8718
S315080021D0830774FCBA97938707FD2328F4FC8327A3
S315080021E0C4F513871700232EE4F483C70700A30357
S315080021F0F4FC030774FC9307F00263D8E7000307AF
S3150800220074FC93079003E3DEE7FA030774FC93076D
S31508002210C0066308F700030774FC9307C004631E2F
S31508002220F7048327C4FC93E747002326F4FC832797
S31508002230C4F513871700232EE4F483C70700A30306
S31508002240F4FC030774FC9307C0066308F70003074A
S3150800225074FC9307C0046312F7028327C4FC93E750
S3150800226087002326F4FC8327C4F513871700232E3B
S31508002270E4F483C70700A303F4FC830774FC638CA8
S31508002280073A834774FC2303F4FC030764FC9307AB
S31508002290000663D9E700834764FC811793F7F70FB5
S315080022A02303F4FC830764FC9387E7FB59476360C1
S315080022B0F71213972700B77700089387C770BA975E
S315080022C09C438287832784F513874700232CE4F4ED
S315080022D09C432320F4FC232A04FC31A0832744FDD5
S315080022E08507232AF4FC032704FC832744FDBA97B1
S315080022F083870700E5F721A013050002193B83270A
S31508002300C4FC898B99EB832744FD13871700232A7E
S31508002310E4FC032704FDE3E1E7FE032504FCA93BEF
S3150800232021A013050002F531832744FD1387170002
S31508002330232AE4FC032704FDE3E5E7FED5AC83275F
S3150800234084F59D07E19B13878700232CE4F49843C3
S31508002350DC433A85BE85EF20A0162A87930704F644
S315080023608D4613060003BE853A853526930704F67F
S315080023702320F4FC19A8832704FC138717002320BD
S31508002380E4FC838707003E856931832704FC83873D
S315080023900700F5F325BB832784F513874700232C0D
S315080023A0E4F49C43E207E1873E85A53151A48947B9
S315080023B0232EF4FC15A0A147232EF4FC31A8A94727
S315080023C0232EF4FC11A8C147232EF4FC31A0830761
S315080023D074FC3E853D39A9AC8327C4FCA18B85C313
S315080023E0832784F59D07E19B13878700232CE4F454
S315080023F09843DC43232CE4FA232EF4FABDA883275A
S31508002400C4FC918B85CF030764FC93074004631AC9
S31508002410F700832784F513874700232CE4F49C43AD
S3150800242001A8832784F513874700232CE4F49C43EB
S31508002430232CF4FAFD87232EF4FA81A0030764FC03
S3150800244093074004631DF700832784F51387470025
S31508002450232CE4F49C433E89FD87BE8919A883276B
S3150800246084F513874700232CE4F49C433E89FD87B3
S31508002470BE89232C24FB232E34FB030764FC930715
S3150800248040046310F7048327C4FB63DC0702014694
S315080024908146032584FB8325C4FB3307A6403A8877
S315080024A033380601B387B640B3860741B687232C6F
S315080024B0E4FA232EF4FA8327C4FC93E707012326BC
S315080024C0F4FC232C04FC032784FB8327C4FB232862
S315080024D0E4FA232AF4FA8327C4FD3E8A814A0327AD
S315080024E004FB832744FB5286D6863A85BE85EF00D1
S315080024F070142A87AE872303E4FC8327C4FD3E8B2A
S31508002500814B5A86DE86032504FB832544FBCD29A9
S315080025102A87AE872328E4FA232AF4FA030764FCF9
S31508002520A54763D3E702030774FC9307800763157F
S31508002530F7009307700211A09D47034764FCBA97FA
S3150800254093F7F70F2303F4FC834764FC9387070389
S3150800255093F6F70F832784FD13871700232CE4FCD3
S31508002560139786016187930604FEB6972388E7FAD0
S31508002570832704FB032744FBD98F91C7032784FDD0
S31508002580FD47E3FAE7F48327C4FCC18B91CF832781
S3150800259084FD13871700232CE4FC130704FEBA975F
S315080025A01307D0022388E7FA832784FD232AF4FC3D
S315080025B08327C4FC858B81C79307000319A093075B
S315080025C000022303F4FC31A0830764FC3E85EFF088
S315080025D05FA48327C4FC898B99EB832744FD138763
S315080025E01700232AE4FC032704FDE3EFE7FC83270F
S315080025F084FDFD17232CF4FC832784FD130704FEB2
S31508002600BA97838707FB3E85EFF0BFA0832784FD33
S31508002610F9FF29A013050002EFF0BF9F832744FDA9
S3150800262013871700232AE4FC032704FDE3E4E7FEE7
S3150800263071BC010011A001000100BA502A541A59B0
S315080026408A597A4AEA4A5A4BCA4B4D6182805D7169
S3150800265006D622D40018232EA4FC4CC010C454C499
S3150800266018C85CC8232C0401232E140193070402FE
S31508002670232CF4FC832784FD91172326F4FE832755
S31508002680C4FEBE850325C4FDEFF09FA20100B2502B
S31508002690225461618280397106DE22DC800023269D
S315080026A0A4FC2324B4FC2322C4FCB687A301F4FCAF
S315080026B085472307F4FE0325C4FCEF10303BAA87A1
S315080026C02322F4FE032644FC8145032584FCEF40BF
S315080026D0F045930744FD294681453E85EF40104560
S315080026E0930500000325C4FCEF100036AA8763D7BC
S315080026F00702832784FC1307D0022380E7000325FB
S31508002700C4FCEF10B036AA873E85EF40B020AA87F2
S315080027103E85EF10B03CAA872326F4FC0325C4FCAB
S31508002720EF10504C2A87AE873A85BE85EF20C01336
S315080027302A87AE873A85BE85EF1090752A87AE87B9
S315080027403A85BE85EF00502FAA87A301F4FE8307BA
S3150800275034FE6358F012030734FE834734FC6311D2
S31508002760F704B777000883A5C7760325C4FCEF00EE
S31508002770B034AA872326F4FC0325C4FCEF10102FD7
S315080027802A87930744FD2946BE853A85EF4050219E
S31508002790930744FDBE85032584FCEF40F046EDA86B
S315080027A0030734FE834734FCB307F740635BF00A3C
S315080027B0034734FE834734FCB307F7402301F4FE8E
S315080027C0A9472307F4FEA30704FE31A80347E4FE3E
S315080027D0BA878A07BA9786072307F4FE8347F4FE63
S315080027E08507A307F4FE0347F4FE834724FEE36F39
S315080027F0F7FC8347E4FE3E85EF10502EAA87BE8578
S315080028000325C4FCEF001071AA872326F4FCB777CA
S31508002810000883A5C7760325C4FCEF00F029AA871C
S315080028202326F4FC0325C4FCEF105024AA87232290
S31508002830F4FE8347E4FE032744FEB307F702232288
S31508002840F4FE930744FD2946BE85032544FEEF4062
S315080028503015930744FDBE85032584FCEF40D03A26
S3150800286025A8930744FD2946BE85032544FEEF4067
S315080028703013930744FDBE85032584FCEF40D0380A
S3150800288021A893070003230AF4FC930744FDBE8599
S31508002890032584FCEF405037030734FE834734FC96
S315080028A06352F70E0325C4FCEF10501CAA873E8519
S315080028B0EF10D022AA87BE850325C4FCEF1040542A
S315080028C0AA872324F4FEB77700089385877603251D
S315080028D084FCEF407033834734FE034734FCB30768
S315080028E0F7402301F4FEA30704FE79A0B777000892
S315080028F083A50777032584FEEF104020AA872324A3
S31508002900F4FE0347F4FE834724FEFD17631DF70014
S31508002910B777000883A5C776032584FEEF00D0198C
S31508002920AA872324F4FE032584FEEF1030142A8791
S31508002930930744FD2946BE853A85EF4070069307FE
S3150800294044FDBE85032584FCEF40102C032584FE38
S31508002950EF10D011AA873E85EF105018AA87BE85BA
S31508002960032584FEEF10C049AA872324F4FE834773
S31508002970F4FE8507A307F4FE0347F4FE834724FE07
S31508002980E366F7F60100F250625421618280011174
S3150800299006CE22CC00102326A4FEEFF00F9AF5BF30
S315080029A06F00000073700430170500001305C50199
S315080029B0930510009395B5016376B5003305B50008
S315080029C067000500175100181301C16317D5FFFFEB
S315080029D0130545637310753017050000130585FC4C
S315080029E073105530EFD0DFABEFD0DF9EEFD0DF842A
S315080029F01305000093050000EFF06FCF6FF09FFA04
S31508002A00930805009387050013080600138506003A
S31508002A101383080063940628B77600089386C67E53
S31508002A2063F6C50E370701006378E60C1307F00F47
S31508002A303337C700131737003355E600B386A600A9
S31508002A4083C60600130500023387E600B306E54091
S31508002A50630CE500B395D70033D7E8003318D600E2
S31508002A60B365B7003393D80093580801B3D6150356
S31508002A7013160801135606019357030133F7150376
S31508002A8013850600B305D60213170701B367F700C7
S31508002A9063FEB700B38707011385F6FF63E80701EE
S31508002AA063F6B7001385E6FFB3870701B387B74018
S31508002AB033F717031313030113530301B3D717038C
S31508002AC01317070133636700B306F6021386070078
S31508002AD0637CD300330368001386F7FF636603013C
S31508002AE06374D3001386E7FF131505013365C50024
S31508002AF0930500006F00400E37050001130700011B
S31508002B00E36CA6F2130780016FF01FF36316060045
S31508002B10130710003358C702370701006370E80C23
S31508002B201307F00F63740701130580003357A800D5
S31508002B30B386E60003C70600130600023307A7009C
S31508002B40B306E6406316E60AB38707419305100005
S31508002B509358080113160801135606011357030163
S31508002B60B3F61703B3D717039396060133E7E600C0
S31508002B70330EF60213850700637EC7013307070184
S31508002B801385F7FF636807016376C7011385E7FFB7
S31508002B90330707013307C741B37717031313030135
S31508002BA013530301335717039397070133E367005A
S31508002BB0B306E60213060700637CD30033036800F6
S31508002BC01306F7FF636603016374D3001306E7FF72
S31508002BD0131505013365C500678000003707000136
S31508002BE013050001E364E8F4130580016FF01FF490
S31508002BF03318D80033D5E7003393D800B397D700F6
S31508002C0033D7E800935808013366F700337715037E
S31508002C109317080193D707019355060133551503F2
S31508002C20131707013367B700B386A7029305050094
S31508002C30637ED700330707019305F5FF636807012D
S31508002C406376D7009305E5FF33070701B306D74038
S31508002C5033F716031316060113560601B3D61603E1
S31508002C60131707013385D702B367C7001387060012
S31508002C7063FEA700B38707011387F6FF63E807011A
S31508002C8063F6A7001387E6FFB38707019395050147
S31508002C90B387A740B3E5E5006FF09FEB63E6D51869
S31508002CA03707010063F4E6041307F00FB335D700BE
S31508002CB0939535003777000833D5B6001307C77ED6
S31508002CC03307A70003470700130500023307B700B9
S31508002CD0B305E5406316E50213051000E3EEF6EECC
S31508002CE033B5C800134515006FF01FEF370700010D
S31508002CF093050001E3E0E6FC930580016FF09FFB76
S31508002D003358E600B396B6003368D80033DEE700DA
S31508002D10935E0801B376DE03B397B70033D7E800AE
S31508002D203313B6003366F7009317080193D70701E4
S31508002D3013570601335EDE039396060133E7E60072
S31508002D40338FC70313050E00637EE70133070701B8
S31508002D501305FEFF636807016376E7011305EEFFB7
S31508002D60330707013307E741B376D7033357D7034A
S31508002D7093960601338EE7029317060193D7070148
S31508002D80B3E7F6001306070063FEC701B38707011A
S31508002D901306F7FF63E8070163F6C7011306E7FFA3
S31508002DA0B387070113150501B70E01003365C50082
S31508002DB09386FEFF3378D50013560501B376D30004
S31508002DC013530301B387C741330ED802B306D6029D
S31508002DD013570E01330868023308D8003307070172
S31508002DE0330666026374D7003306D6019356070185
S31508002DF03386C60063E6C702E39CC7CEB707010061
S31508002E009387F7FF3377F70013170701337EFE0022
S31508002E10B398B8003307C70193050000E3FEE8DA64
S31508002E201305F5FF6FF0DFCC9305000013050000CE
S31508002E306FF09FDA930E050013830500130806004A
S31508002E4093870600639A0622377700081307C77E1A
S31508002E5063FCC50CB7060100637ED60A9306F00F1D
S31508002E6063F4C60093078000B356F6003307D7000D
S31508002E7003470700B307F70013070002B308F74034
S31508002E80630CF700B3151301B3D7FE003318160108
S31508002E90B3E5B70033951E0193560801B3F7D5027B
S31508002EA0131608011356060113570501B3D5D502A3
S31508002EB09397070133E7E700B305B602637AB700CD
S31508002EC033070701636607016374B7003307070111
S31508002ED03307B740B377D702131505011355050114
S31508002EE03357D7029397070133E5A7003307E6025E
S31508002EF0637AE50033050501636605016374E50039
S31508002F00330505013305E5403355150193050000E2
S31508002F1067800000B706000193070001E366D6F450
S31508002F20930780016FF05FF463160600930610009E
S31508002F3033D8C602B70601006376D8129306F00F97
S31508002F4063F4060193078000B356F8003307D700E9
S31508002F5003460700B30503413306F600930700024C
S31508002F60B388C7406386C70833181801B357C30028
S31508002F70B31513011353080133D6CE003366B600D2
S31508002F809315080193D5050133951E01B3D667023B
S31508002F9033F7670293570601B386D502131707015D
S31508002FA03367F700637AD7003307070163660701BB
S31508002FB06374D70033070701B306D74033F76602B1
S31508002FC01316060113560601B3D666021317070130
S31508002FD0B386D502B365C70063FAD500B385050184
S31508002FE063E6050163F4D500B3850501B385D540CD
S31508002FF09356080133F7D5029317080193D70701AB
S3150800300013560501B3D5D502131707013367C70051
S31508003010B385B702637AB70033070701636607010A
S315080030206374B70033070701B305B74033F7D50212
S315080030301315050113550501B3D5D502B385B70296
S315080030409317070133E5A700637AB5003305050131
S31508003050636605016374B500330505013305B5409C
S315080030606FF09FEAB706000193070001E36ED8ECFC
S31508003070930780016FF05FEDE3ECD5E8B707010031
S3150800308063F8F6049308F00FB3B7D80093973700A0
S315080030903777000833D8F6001307C77E33070701CA
S315080030A083480700B388F80093070002338817415E
S315080030B0639A170363E46600E3ECCEE43385CE40F7
S315080030C0B305D340B3BEAE00B385D5416FF05FE418
S315080030D03707000193070001E3ECE6FA930780013E
S315080030E06FF01FFBB3571601B396060133EED700F0
S315080030F0335F1301B3D71E0133950E01935E0E019C
S31508003100B31503013353DF03B3E7B70093150E0175
S3150800311093D5050113D7070133160601B376DF03E6
S31508003120338F65029396060133E7E600930603009C
S31508003130637EE7013307C7019306F3FF6368C70198
S315080031406376E7019306E3FF3307C7013307E741D1
S315080031503373D7039397070193D707013357D703D9
S31508003160131303013363F300B385E50293070700DE
S31508003170637EB3003303C3019307F7FF6368C30194
S315080031806376B3009307E7FF3303C30193960601FB
S31508003190370F0100B3E6F600B305B3401303FFFF8C
S315080031A0B3FE66001357060193D60601337366000D
S315080031B0B3876E0233836602B38EEE02B386E602E7
S315080031C0B38E6E0013D707013307D7016374670000
S315080031D0B386E60113530701B306D300370301008C
S315080031E01303F3FF3377670013170701B3F7670075
S315080031F0B307F70063E6D500639ED500637CF50048
S315080032003386C740B3B7C700B387C701B386F6404E
S3150800321093070600B307F5403335F500B385D54067
S31508003220B385A540B398150133D5070133E5A80042
S31508003230B3D505016FF0DFCD13D74501B7061000EA
S315080032409387F6FF1377F77F1306E03FB3F7B700C8
S3150800325093D5F501635EE6041306D041635AE6008A
S31508003260370500801345F5FF3385A5006780000004
S31508003270B3E7D70093063043B386E6401306F0015A
S315080032806340D6021307D7BEB397E7003355D50078
S3150800329033E5A700638005023305A0406780000078
S315080032A0130530413305E54033D5A7006FF09FFE7F
S315080032B0130500006780000037078000130101FF2F
S315080032C01307F7FFB377A700232481002322910071
S315080032D0135475019354F50113D575013377B70067
S315080032E01374F40F1375F50F2326110023202101FB
S315080032F093D5F5019397370013173700B306A44003
S31508003300639AB4186350D00A631605026300071857
S315080033101386F6FF63180600B387E7001304100048
S315080033206F0000059305F00F6390B6021304F00FC3
S315080033306F0080111306F00F6308C41037060004E7
S315080033403367C700138606009305B001930610007D
S3150800335063CEC50093060002B386C640B355C700C0
S315080033603317D7003337E000B3E6E500B387D70055
S315080033703707000433F7E7006308070C1304140043
S315080033801307F00F6302E4303707007E93F6170041
S315080033901307F7FF93D71700B3F7E700B3E7D7008C
S315080033A06F00800A63860606B3068540631004022A
S315080033B06382072C1386F6FFE30006F69305F00FE3
S315080033C06390B602930707006FF05FF61306F00FD7
S315080033D0E30AC5FE37060004B3E7C70013860600EE
S315080033E09305B0019306100063CEC500930600024C
S315080033F0B386C640B3D5C700B397D700B337F00036
S31508003400B3E6F500B387E600130405006FF05FF630
S315080034109306140013F6E60F6312060663140404F3
S31508003420638E072463020702B387E70037070004A1
S3150800343033F7E700630A0700370700FC1307F7FFAF
S31508003440B3F7E7001304100013F7770063000724A7
S3150800345013F7F70093064000630AD72293874700BD
S315080034606F00C022E38007F6E30207EC930400002E
S31508003470B70700021304F00F6F0040211306F00F80
S315080034806382C620B387E70093D717001384060024
S315080034906FF09FFB6350D00863120506E30807FE2A
S315080034A01386F6FF63180600B387E7401304100077
S315080034B06F0040039305F00FE38AB6E69305B00163
S315080034C09306100063CEC50093060002B386C64075
S315080034D0B355C7003317D7003337E000B3E6E50026
S315080034E0B387D7403709000433F72701E30E07F4FB
S315080034F01309F9FF33F927016F0080111306F00F3E
S31508003500E304C4F4370600043367C70013860600CD
S315080035106FF0DFFA63800608B30685406318040275
S315080035206380071E1386F6FF63180600B307F74085
S31508003530938405006FF09FF71308F00F6392060354
S31508003540930707001304F00F6F00C0061306F00F69
S31508003550E308C5FE37060004B3E7C700138606006E
S315080035601308B00193061000634EC80093060002C4
S31508003570B386C64033D8C700B397D700B337F00031
S31508003580B366F800B307D740130405009384050013
S315080035906FF05FF59306140093F6E60F639E060434
S315080035A063120404639C0700930400006300070E7B
S315080035B093070700938405006FF01FE9E30607E801
S315080035C0B386E7403706000433F6C600B307F7406C
S315080035D0E31206FE93070000638006089387060039
S315080035E06FF09FE6E39207E8E30207E89307070010
S315080035F0938405006FF09FD33389E740B70600042C
S31508003600B376D900638406043309F740938405002A
S3150800361013050900EF1000031305B5FF3319A900B8
S31508003620634085043305854013051500130400021D
S31508003630B357A9003305A4403319A900333920012B
S31508003640B3E72701130400006FF01FE0E31209FC3B
S315080036509307000013040000930400006F000003A2
S31508003660B70700FC9387F7FF3304A440B377F90044
S315080036706FF09FDD930707006FF05FE19307070080
S315080036806FF09FDC1304F00F930700003707000460
S3150800369033F7E700630E0700130414001307F00F4F
S315080036A06306E406370700FC1307F7FFB3F7E700DE
S315080036B01307F00F93D737006318E40063860700F3
S315080036C0B7074000930400003705807F1314740180
S315080036D0939797003374A40093D797008320C1006B
S315080036E0B367F400032481001395F401032901004C
S315080036F08324410033E5A700130101016780000018
S3150800370093070700138406006FF0DFEA93070000AB
S315080037106FF01FFA130101FE232A910093547501D5
S3150800372023282101232631012324410193199500D9
S31508003730232E1100232C81002322510193F4F40F28
S31508003740138A050093D999001359F501638404086F
S315080037509307F00F6380F40A93993900B7070004BA
S31508003760B3E9F900938414F8930A000013557A0113
S3150800377013149A001375F50F13549400135AFA018B
S31508003780630A05089307F00F6306F50A1314340055
S31508003790B70700043364F400130515F8930700000F
S315080037A093962A00B3E6F6009386F6FF1307E00021
S315080037B0334649013385A440636ED7083777000836
S315080037C01307477793962600B386E60003A70600F5
S315080037D067000700638A090213850900EF009066EF
S315080037E09307B5FF9304A0F8B399F900B384A440EE
S315080037F06FF09FF79304F00F930A2000E38809F609
S31508003800930A30006FF09FF693040000930A1000A5
S315080038106FF0DFF5630A040213050400EF009062F7
S315080038209307B5FF3314F4009307A0F83385A74030
S315080038306FF0DFF61305F00F93072000E30204F696
S31508003840930730006FF0DFF51305000093071000AB
S315080038506FF01FF51318540063F489121305F5FF6A
S31508003860930600001354080133D38902B7070100F1
S315080038709387F7FFB377F80093D6060133F78902E3
S3150800388093050300B38867021317070133E7E600B9
S31508003890637E1701330707019305F3FF6368070182
S315080038A0637617019305E3FF3307070133071741CB
S315080038B0B358870233778702B3861703931707012E
S315080038C01387080063FED700B38707011387F8FF3D
S315080038D063E8070163F6D7001387E8FFB387070194
S315080038E013940501B387D7403364E400B337F00077
S315080038F03364F4001307F507635EE00C93777400EE
S31508003900638A07009377F400930640006384D70020
S3150800391013044400B7070008B377F400638A070066
S31508003920B70700F89387F7FF3374F4001307050801
S315080039309307E00F1354340063CCE7069317770117
S31508003940131494003707807FB3F7E70013549400E5
S3150800395033E487001315F6018320C1013365A400FB
S315080039600324810183244101032901018329C1001C
S31508003970032A8100832A410013010102678000009F
S315080039809396F90193D919006FF0DFED1306090034
S315080039901384090093870A00130730006388E70831
S315080039A013071000638CE70813072000E394E7F475
S315080039B0130400001307F00F6FF05FF813060A00F0
S315080039C06FF09FFD37044000130600009307300090
S315080039D06FF09FFC93071000B387E7401307B00109
S315080039E0634EF7041305E509B357F4003314A4002E
S315080039F03334800033E4870093777400638A0700C2
S31508003A009377F400130740006384E7001304440027
S31508003A10B7070004B377F40013543400638207022F
S31508003A2013040000130710006FF05FF1370440001D
S31508003A301307F00F130600006FF05FF01304000081
S31508003A40130700006FF09FEF93567501B7078000C4
S31508003A509387F7FF13D7750193F6F60F1308F00F40
S31508003A6033F6A7001377F70FB3F7B7001355F50129
S31508003A7093D5F50163980601630A06061305200027
S31508003A806780000063140701E39A07FE639206063F
S31508003A906314070063880704630C06006314B50003
S31508003AA06350D702630C05021305F0FF6780000018
S31508003AB01305F0FF638A050013850500678000007B
S31508003AC063D6E600E30205FE67800000E3ECC7FC68
S31508003AD0E36AF6FE13050000678000001305100070
S31508003AE067800000E30806FE6FF0DFFBE30ED7F8F9
S31508003AF0E31607FAE38807FA6FF05FFA130101FE87
S31508003B002328210113597501232A910023263101FF
S31508003B102324410193149500232E1100232C8100A0
S31508003B20232251011379F90F138A050093D49400BF
S31508003B309359F501630609089307F00F6302F90A1A
S31508003B4093943400B7070004B3E4F400130919F892
S31508003B50930A000013557A0113149A001375F50F8A
S31508003B6013549400135AFA01630C05089307F00FCF
S31508003B706308F50A13143400B70700043364F40025
S31508003B80130515F89307000013972A003367F70003
S31508003B903305A9001307F7FF9305E000B3C64901EB
S31508003BA01306150063EEE508B77500081317270016
S31508003BB09385057B3307B7000327070067000700CF
S31508003BC0638A040213850400EF00D0279307B5FF24
S31508003BD01309A0F8B394F4003309A9406FF05FF70E
S31508003BE01309F00F930A2000E38604F6930A3000BF
S31508003BF06FF05FF613090000930A10006FF09FF547
S31508003C00630A040213050400EF00D0239307B5FFE7
S31508003C103314F4009307A0F83385A7406FF09FF696
S31508003C201305F00F93072000E30004F6930730000E
S31508003C306FF09FF513050000930710006FF0DFF48F
S31508003C40B70701001383F7FF13D70401935504013F
S31508003C50B3F4640033746400B3089402330887022B
S31508003C603304B702B385950293D40801B3850501D9
S31508003C70B384B40063F404013304F400B3F76400B6
S31508003C8093970701B3F86800B3871701139767007E
S31508003C9093D404013337E00093D7A7013384840013
S31508003CA0B367F700131464003364F400B707000819
S31508003CB0B377F400638E070893571400137414003F
S31508003CC033E487001307F6076358E0089377740010
S31508003CD0638A07009377F400930540006384B7006E
S31508003CE013044400B7070008B377F400638A070093
S31508003CF0B70700F89387F7FF3374F400130706082D
S31508003D009307E00F1354340063DAE70A130400003C
S31508003D101307F00F6F00800A9386090013840400C6
S31508003D2093870A0013072000E382E7FE1307300093
S31508003D306380E70813071000E396E7F8130400000A
S31508003D40130700006F00800793060A006FF09FFDB7
S31508003D50130605006FF01FF793071000B387E740B7
S31508003D601307B001E34CF7FC1306E609B357F40052
S31508003D703314C4003334800033E487009377740027
S31508003D80638A07009377F400130740006384E7000B
S31508003D9013044400B7070004B377F400135434003F
S31508003DA0E38007FA13040000130710006F000001F0
S31508003DB0370440001307F00F9306000093177701A6
S31508003DC0131494003707807FB3F7E7001354940061
S31508003DD033E487001395F6018320C1013365A400F7
S31508003DE00324810183244101032901018329C10098
S31508003DF0032A8100832A410013010102678000001B
S31508003E0037078000130101FF1307F7FF13D6750163
S31508003E10B377A700232481003377B70023229100C4
S31508003E201354750123261100232021011376F60F5A
S31508003E309306F00F1374F40F9354F5019397370014
S31508003E4093D5F501131737006314D60063140700DA
S31508003E5093C51500B306C440639A95186350D00AF3
S31508003E6063160602630007181386F6FF6318060032
S31508003E70B387E700130410006F0000059305F00FE1
S31508003E806390B6021304F00F6F0080111306F00F4B
S31508003E906308C410370600043367C7001386060094
S31508003EA09305B0019306100063CEC5009306000281
S31508003EB0B386C640B355C7003317D7003337E0007B
S31508003EC0B3E6E500B387D7003707000433F7E70002
S31508003ED06308070C130414001307F00F6302E43099
S31508003EE03707007E93F617001307F7FF93D71700D7
S31508003EF0B3F7E700B3E7D7006F00800A63860606C4
S31508003F00B3068640631004026382072C9385F6FF86
S31508003F10E38005F61305F00F6390A60293070700E2
S31508003F206FF05FF69305F00FE30AB6FEB7050004D7
S31508003F30B3E7B700938506001305B0019306100092
S31508003F40634EB50093060002B386B64033D5B70074
S31508003F50B397D700B337F000B366F500B387E6002A
S31508003F60130406006FF05FF69306140013F6E60FC7
S31508003F706312060663140404638E072463020702A9
S31508003F80B387E7003707000433F7E700630A07003B
S31508003F90370700FC1307F7FFB3F7E7001304100011
S31508003FA013F777006300072413F7F700930640001A
S31508003FB0630AD722938747006F00C022E38007F67B
S31508003FC0E30207EC93040000B70700021304F00F9E
S31508003FD06F0040211306F00F6382C620B387E700FF
S31508003FE093D71700138406006FF09FFB6350D00821
S31508003FF063120606E30807FE1386F6FF6318060033
S31508004000B387E740130410006F0040039305F00FD1
S31508004010E38AB6E69305B0019306100063CEC500A1
S3150800402093060002B386C640B355C7003317D700B8
S315080040303337E000B3E6E500B387D7403709000415
S3150800404033F72701E30E07F41309F9FF33F92701BC
S315080040506F0080111306F00FE304C4F4370600045A
S315080040603367C700138606006FF0DFFA6380060819
S31508004070B3068640631804026380071E1385F6FF9D
S3150800408063180500B307F740938405006FF09FF7A0
S315080040901308F00F63920603930707001304F00F43
S315080040A06F00C0061305F00FE308A6FE37050004E7
S315080040B0B3E7A700138506001308B001930610009E
S315080040C0634EA80093060002B386A64033D8A7001D
S315080040D0B397D700B337F000B366F800B307D740F5
S315080040E013040600938405006FF05FF59306140029
S315080040F093F6E60F639E060463120404639C0700A6
S31508004100930400006300070E9307070093840500D5
S315080041106FF01FE9E30607E8B386E74037060004B1
S3150800412033F6C600B307F740E31206FE930700000E
S3150800413063800608938706006FF09FE6E39207E818
S31508004140E30207E893070700938405006FF09FD3FF
S315080041503389E740B7060004B376D90063840604BA
S315080041603309F7409384050013050900EF00804DD5
S315080041701305B5FF3319A900634085043305854047
S315080041801305150013040002B357A9003305A4400C
S315080041903319A90033392001B3E7270113040000B6
S315080041A06FF01FE0E31209FC9307000013040000F8
S315080041B0930400006F000003B70700FC9387F7FF1E
S315080041C03304A440B377F9006FF09FDD9307070027
S315080041D06FF05FE1930707006FF09FDC1304F00FA1
S315080041E0930700003707000433F7E700630E07005C
S315080041F0130414001307F00F6306E406370700FCE0
S315080042001307F7FFB3F7E7001307F00F93D7370045
S315080042106318E40063860700B707400093040000AC
S315080042203705807F13147401939797003374A4009D
S3150800423093D797008320C100B367F4000324810055
S315080042401395F401032901008324410033E5A700EF
S315080042501301010167800000930707001384060015
S315080042606FF0DFEA930700006FF01FFA3706800049
S31508004270135775019307F6FF1377F70F9305E007B2
S31508004280B3F7A7009356F50163D6E5049305D0095D
S3150800429063DAE500370500801345F5FF3385A60088
S315080042A06780000033E5C7009307500963DCE70021
S315080042B01307A7F63315E500638006023305A04009
S315080042C067800000930760093387E7403355E500A8
S315080042D06FF09FFE1305000067800000130101FFC1
S315080042E02326110023248100232291006306050E4C
S315080042F09357F54133C4A7003304F4409354F501AA
S3150800430013050400EF0000349307E00913070500BE
S315080043103385A7409307600963C0A7049307800005
S3150800432063D6E700130787FF3314E40013149400D9
S315080043301315750113549400336485001395F4011D
S315080043408320C1003365A40003248100832441002F
S3150800435013010101678000009307900963D0A70243
S3150800436093075000B387E7409306B701B357F400A5
S315080043703314D4003334800033E4870093075000A5
S3150800438063D6E7009307B7FF3314F400B70600FCBB
S315080043909386F6FF93777400B376D400638A070092
S315080043A01374F400930740006304F40093864600F0
S315080043B0B7070004B3F7F600638C0700B70700FCDD
S315080043C09387F7FFB3F6F6009307F0093385E740BE
S315080043D013D436006FF09FF5930400001304000011
S315080043E06FF0DFF4135775011377F70F130101FF09
S315080043F093071700232481002322910013149500A4
S315080044002326110093F7E70F135494009354F501EC
S315080044106382070493573400130707381314D4012B
S315080044209397C7001317470193D7C7001395F4014D
S31508004430B367F7008320C10033E7A700130504001C
S315080044400324810083244100930507001301010119
S31508004450678000006316070493070000E30204FC64
S3150800446013050400EF00001E9307A00063C2A7020D
S315080044709307B000B387A74013075501B357F40055
S315080044803314E400130790383307A7406FF05FF939
S31508004490930755FFB317F400130400006FF09FFE4F
S315080044A093070000630A040093573400370708008F
S315080044B01314D401B3E7E7001307F07F6FF05FF634
S315080044C013D645011376F67F9396C5001307160093
S315080044D093D796001377E77F9356D501B3E6F60090
S315080044E093D5F501931735006306070A130706C81F
S315080044F01308E00F6342E80C6340E008130590FEDA
S315080045006340A71237058000B3E6A6001305E0014D
S315080045103305E5401308F0016348A802130626C8C8
S3150800452033D5A700B397C700B337F000B396C600D4
S31508004530B3E7D700B367F5001307000093F67700D3
S31508004540638006086F00400E1308E0FF3307E84053
S315080045509308000233D7E600130800006306150126
S31508004560130626CA3398C600B367F800B337F000B7
S31508004570B367F7006FF05FFC131565003335A000CD
S315080045809396360093D7D701B366D500B3E7F600FE
S315080045906FF0DFFAB3E7F60063160600B337F000EC
S315080045A06FF09FF91307F00F638C07009396360098
S315080045B0B70700026FF09FFD930700001307F00F7F
S315080045C0B7060004B3F6D700638E06001307170074
S315080045D09306F00F6304D706B70600FC9386F6FF2A
S315080045E0B3F7D7009306F00F93D737006318D700B1
S315080045F063860700B7074000930500003705807FEC
S3150800460013177701939797003377A70093D79700E7
S31508004610B367F7001395F50133E5A7006780000037
S31508004620930710001307000093F6F70013064000DF
S31508004630E388C6F8938747006FF09FF89307000052
S315080046406FF05FFAB7070100637AF5029307F00F78
S31508004650B3B7A70093973700377700089306000289
S31508004660B386F6403355F5009307C77E3385A70012
S31508004670034505003385A64067800000370700011B
S3150800468093070001E36AE5FC930780016FF0DFFCFE
S3150800469093D74541130101FE93F7F77F232C810039
S315080046A0232A9100232821012326310123244101AD
S315080046B0232E11002322510123206101138917C0DB
S315080046C01307300113840500930405009389050038
S315080046D0130A0500634A270D634A0908370B1000B9
S315080046E0930AFBFFB3DA2A41B3F7BA00B3E7A70088
S315080046F0930605001387050063820704B787000839
S3150800470003A6079983A64799EF009025130600008C
S3150800471093060000EF101019635EA0006356800030
S31508004720B3552B41B389850093CAFAFFB3F95901EA
S31508004730130A000093060A00138709008320C101A3
S315080047400324810183244101032901018329C1002E
S31508004750032A8100832A4100032B010013850600E2
S31508004760930507001301010267800000B787000858
S3150800477003A6079983A64799EF00901E1306000023
S3150800478093060000EF101012E356A0FA6344040CD7
S3150800479033E48400130A0000B709F03FE31C04F869
S315080047A0930900006FF01FF91307300363562703B8
S315080047B0930700409306050013870500E310F9F8F0
S315080047C09386050013060500EF0090199306050069
S315080047D0138705006FF09FF69387D7BE930AF0FFFD
S315080047E0B3DAFA00B3F7AA009306050013870500A3
S315080047F0E38607F4B787000803A6079983A64799AF
S31508004800EF0010161306000093060000EF1090093B
S31508004810E352A0F263568002930740016308F90247
S3150800482093074003B3872741130910003319F9008A
S31508004830B304990063F6440393091400138A040029
S3150800484093C7FAFF337AFA006FF0DFEE9309140084
S315080048506FF01FFF130A0000B70900806FF09FED85
S31508004860138A04006FF0DFFD130101FE232C81007B
S31508004870232A91002328210123263101232E110002
S315080048809304050013840500EF00000DB707002008
S3150800489003A707449307F0FF93090500138905004A
S315080048A06302F706138604001385040093060400C2
S315080048B093050400EF20C0766316050413850400EB
S315080048C0930504001306000093060000EF10D00BB2
S315080048D0634AA0021385040093050400130600002A
S315080048E093060000EF10407363100504EF20900351
S315080048F0B787000883A9879903A9C7999307200250
S315080049002320F5008320C10103248101832441016A
S3150800491013850900930509008329C10003290101AC
S315080049201301010267800000EF20C07F0324810184
S315080049308320C10183244101032901018329C10080
S31508004940930710022320F50037850008130585987C
S31508004950130101026F00C07F130101FE232C8100A1
S31508004960232E1100232A9100232821012326310111
S31508004970232441012322510137061000938705009D
S315080049801304050063D6C5081397150013571700B7
S315080049903367A700630A07169386050063C80518D8
S315080049A0B787000803A6879A83A6C79AEF10100C44
S315080049B013870500B706F07F9387050013040500E3
S315080049C01306A0FC634ED704938607009385070059
S315080049D01306040013050400EF008078130705008A
S315080049E0938705008320C1010324810183244101A3
S315080049F0032901018329C100032A8100832A410072
S31508004A00130507009385070013010102678000005C
S31508004A1013870500B706F07F13060000E356D7FA9A
S31508004A2013554741130515C03305C5001359F5013C
S31508004A301317C700330525019354C700EF200063F9
S31508004A401307F03F3307274113174701B36497004D
S31508004A509306050093870500130504009385040053
S31508004A601384070093840600EF00000DB78700083B
S31508004A7003A6079B83A6479B930A0500138A05008E
S31508004A801385040093050400EF10407EB7870008DD
S31508004A9003A6879B83A6C79B930905001389050070
S31508004AA013850A0093050A00EF10407C13060500DB
S31508004AB0938605001385090093050900EF00406AEF
S31508004AC0B786000803A6069C83A6469C130705001E
S31508004AD093870500138504009305040093040700D3
S31508004AE013840700EF1080781306050093860500E7
S31508004AF01385040093050400EF008066130705007C
S31508004B00938705006FF01FEEB787000803A5079A7D
S31508004B1083A5479A1306000093060000EF00D061AC
S31508004B2013070500938705006FF0DFEB13060500F2
S31508004B30EF1050506FF01FFE130101FB23261104DE
S31508004B40232481042322910423202105232E3103C3
S31508004B50232C4103232A51032328610323267103A7
S31508004B6023248103232291032320A103232EB101A9
S31508004B7037081000938705001307050063D6051B41
S31508004B809396150093D61600B3E6A60063840640EE
S31508004B9063C0054EB787000803A6879A83A6C79AF7
S31508004BA0EF10C06C938605003706F07F13070500E3
S31508004BB0938705001305A0FC63D0C61837061000B6
S31508004BC0130AF6FFB7650900B3F94601938545F65A
S31508004BD0B385B900B3F5C50093D746413708F03F0A
S31508004BE0B786000803A6869C33C8050183A6C69C1B
S31508004BF033683801938717C0B387A70013D4454194
S31508004C0013050700930508003304F400EF109042DB
S31508004C1093872900B3F747011307200013090500F6
S31508004C2093840500634AF7161306000093060000EE
S31508004C30EF10803E63020538B787000803A6079E73
S31508004C4083A6479E1305090093850400EF100062AA
S31508004C50B7870008130605009386050003A5879EF7
S31508004C6083A5C79EEF10103D93890500130A05001A
S31508004C7013060900938604001305090093850400AA
S31508004C80EF10C05E130605009386050013050A009B
S31508004C9093850900EF10805D930B05009389050045
S31508004CA0130605006308043A13050400EF20003CC8
S31508004CB0B787000803A6079D83A6479D130B050023
S31508004CC0938A0500EF10805AB787000803A6879DC8
S31508004CD083A6C79D130A05001384050013050B0058
S31508004CE093850A00EF108058130605009386050081
S31508004CF013850B0093850900EF10D03313060900BE
S31508004D0093860400EF1010331306050093860500FA
S31508004D1013050A0093050400EF10D03113070500A8
S31508004D20938705006F000003938605003706F07F1A
S31508004D3013050000E3C4C6E81306070013050700B9
S31508004D409386070093850700EF0080411307050047
S31508004D50938705008320C104032481048324410426
S31508004D60032901048329C103032A8103832A4103F2
S31508004D70032B0103832BC102032C8102832C4102DE
S31508004D80032D0102832DC101130507009385070032
S31508004D901301010567800000B787000803A6079F6F
S31508004DA083A6479F37FDF9FF130D6DB8EF00403B0B
S31508004DB0130605009386050013050900938504006C
S31508004DC0EF009037930A050013050400138A0500BF
S31508004DD0EF20C02913860A0093060A00930B0500E4
S31508004DE0138B050013850A0093050A00EF10004887
S31508004DF01306050093860500938D05002326A1005A
S31508004E00EF10C046378700080326879F8326C79F6B
S31508004E10930C0500138C0500EF10404537870008F2
S31508004E20032607A0832647A0338DA901EF00403348
S31508004E3013860C0093060C00EF10404337870008D2
S31508004E40032687A08326C7A0EF00803113860C00AF
S31508004E5093060C00EF10804137870008032607A148
S31508004E60832647A1EF00C02F8327C10093860D0034
S31508004E7013860700EF10803F37870008032687A1AF
S31508004E808326C7A193070500938D050013850C009B
S31508004E9093050C002326F100EF10403D37870008E4
S31508004EA0032607A2832647A2EF00802B13860C0051
S31508004EB093060C00EF10803B37870008032687A26D
S31508004EC08326C7A2EF00C02913860C0093060C00A0
S31508004ED0EF10C0398327C100130605009386050025
S31508004EE01385070093850D00EF008027B7C70600D6
S31508004EF093871785B3893741B3E9A901938C0500D0
S31508004F00130D050063503013B787000803A6879E64
S31508004F1083A6C79E1305090093850400EF10003584
S31508004F201306090093860400EF10403413060500A3
S31508004F3093860500130C05009389050013050D00DB
S31508004F4093850C00EF00C02113860A0093060A0019
S31508004F50EF10C031930A0500138A05006312041284
S31508004F60130605009386050013050C0093850900B2
S31508004F70EF10500C1306050093860500130509006B
S31508004F8093850400EF10100B13070500938705009F
S31508004F906FF05FDCB787000803A5079A83A5479AD1
S31508004FA01306000093060000EF001019130705000A
S31508004FB0938705006FF01FDA1307000093070000B8
S31508004FC0E30A04D813050400EF20400AB78700084F
S31508004FD003A6079D83A6479D930905001389050027
S31508004FE0EF10C028B787000803A6879D83A6C79D2C
S31508004FF09304050013840500138509009305090029
S31508005000EF10C026130605009386050013850400D5
S3150800501093050400EF00C0141307050093870500E5
S315080050206FF05FD313060500938605001305090084
S3150800503093850400EF10100013860A0093060A00F1
S31508005040EF10C022930A050093890500631E040A1F
S3150800505013060500130509009386090093850400C5
S31508005060EF10407D13070500938705006FF09FCE6C
S315080050701306050093860500EF10C07B6FF05FF2FC
S31508005080B787000803A6079D83A6479D93050B00CF
S3150800509013850B00EF10801D378700080326879DB0
S315080050A08326C79D930705001384050013850B0007
S315080050B093050B00138B0700EF10401B13860A009D
S315080050C093060A00EF00C00913060500938605003B
S315080050D013050C0093850900EF10C0751306090027
S315080050E093860400EF1000751306050093860500E5
S315080050F013050B0093050400EF10C0731307050092
S31508005100938705006FF01FC5B787000803A6079D9C
S3150800511083A6479D13850B0093050B00EF1000151A
S31508005120B787000803A6879D83A6C79D130A0500AF
S315080051301384050013850B0093050B00EF1000136D
S31508005140130605009386050013850A006FF09FBABB
S31508005150B787000803A507A383A547A367800000B0
S31508005160370810001308F8FF130101FEB377B800DB
S3150800517013D745013378D80013D34601232C810071
S31508005180939737001374F77F1357D5011318380010
S31508005190232A9100B367F70093D4F5011357D60174
S315080051A01373F37F232E11002328210123263101AF
S315080051B093D6F601336707019315350013163600A3
S315080051C0330864406398D42C6350001363100304B7
S315080051D0B366C700638C06701305F8FF63100502F3
S315080051E03386C5003335B600B387E700B387A70013
S315080051F093050600130410006F0000079306F07F5E
S315080052006310D8021304F07F6F0040219306F07FE5
S315080052106306D420B70680003367D7001305080055
S315080052209306800363CCA60A9306F00163CEA6060E
S31508005230130800023308A840B3160701B358A6009E
S3150800524033160601B3E616013336C00033E6C60048
S315080052503357A7003306B6003335B6003307F700D1
S31508005260B307A700930506003707800033F7E70062
S315080052706306071A130414001307F07F630AE45C35
S31508005280370780FF1307F7FFB3F7E70013F5150095
S3150800529013D715003365A7009395F701B3E5A50065
S315080052A093D717006F008017930605FE9308000230
S315080052B0B356D70013080000630815011308000445
S315080052C03305A8403318A7003366C8003336C00034
S315080052D033E6C600130700006FF0DFF73366C70032
S315080052E03336C0006FF01FFF6302080E3305834094
S315080052F0631E0402B3E6B700638C06529306F5FFF5
S31508005300639C0600B385C500B387E70033B6C500BE
S31508005310B387C7006FF01FEE1308F07F631205030B
S3150800532093070700930506006FF0DFED9306F07FFD
S31508005330E308D3FEB7068000B3E7D7009306050057
S3150800534013058003634ED5061305F0016340D504A3
S31508005350130800023308D84033950701B3D8D5009F
S31508005360B395050133651501B335B0003365B5004E
S31508005370B3D7D700B305C500B387E70033B6C50072
S31508005380B387C700130403006FF01FEE138506FEEC
S315080053909308000233D8A700130500006388160196
S315080053A0130500043305D5403395A7003365B500CA
S315080053B03335A0003365A800930700006FF09FFB04
S315080053C033E5B7003335A0006FF01FFF93061400CE
S315080053D013F5E67F63180508B3E6B70063140406F9
S315080053E063800646B366C700638A06023386C5002D
S315080053F0B387E7003335B600B387A70037078000C1
S3150800540033F7E70093050600630A0700370780FFAE
S315080054101307F7FFB3F7E7001304100013F7750037
S31508005420630C074213F7F500930640006306D7425C
S31508005430138745003335B700B387A70093050700E0
S315080054406F008041E38E06EC3366C700E30C06DA8C
S3150800545093040000B7074000930500001304F07F8B
S315080054606F00803F1305F07F6382A63E3386C50032
S315080054703335B600B387E700B387A7001395F7015E
S3150800548013561600B365C50093D717001384060094
S315080054906FF0DFF8635C000F631E0308B366C7008E
S315080054A0638606441305F8FF631005023386C54074
S315080054B033B5C500B387E740B387A7409305060011
S315080054C0130410006F0040059306F07FE30CD8D252
S315080054D09306800363C6A60A9306F00163C8A60668
S315080054E0130800023308A840B3160701B358A600EC
S315080054F033160601B3E616013336C00033E6C60096
