S01300006C6F6E67616E2D6E616E6F2E73726563B9
S31508000000EF10F0380000000000000000CA170008D2
S31508000010000000000000000000000000C2160008F2
S3150800002000000000000000000000000000000000C2
S3150800003000000000000000000000000000000000B2
S31508000040000000008A1B00088A1B00088A1B00089B
S315080000508A1B00088A1B00088A1B00088A1B0008DE
S315080000608A1B00088A1B00088A1B00088A1B0008CE
S315080000708A1B00088A1B00088A1B00088A1B0008BE
S315080000808A1B00088A1B00088A1B00088A1B0008AE
S315080000908A1B00088A1B00088A1B00088A1B00089E
S315080000A08A1B00088A1B00088A1B00088A1B00088E
S315080000B08A1B00088A1B00088A1B00088A1B00087E
S315080000C08A1B00088A1B00088A1B00088A1B00086E
S315080000D08A1B00088A1B00088A1B00088A1B00085E
S315080000E08A1B00088A1B00088A1B00088A1B00084E
S315080000F08A1B00088A1B0008000000000000000098
S315080001000000000000000000000000008A1B000834
S31508000110000000008A1B00088A1B00088A1B0008CA
S315080001208A1B00088A1B00088A1B00088A1B00080D
S315080001308A1B00088A1B00088A1B00088A1B0008FD
S3150800014000000000000000008A1B00088A1B000847
S311080001508A1B00088A1B00088A1B00088E
S3150800015C011106CE22CC00102326A4FE0325C4FECC
S3150800016CEF00B022F167938507200325C4FEEF0044
S3150800017C502F81450325C4FEEF0010458145032504
S3150800018CC4FEEF00D04881450325C4FEEF00B03FFE
S3150800019C81450325C4FEEF00F05781450325C4FEAF
S315080001ACEF00305C91450325C4FEEF00F051A145E4
S315080001BC0325C4FEEF00904C0325C4FEEF009049BE
S315080001CC0100F240624405618280397106DE22DC48
S315080001DC80002326A4FC0325C4FCEF00B002930779
S315080001EC44FD3E85EF00D009232C04FC93074010F0
S315080001FC232AF4FC232E04FC8D472324F4FE9307B0
S3150800020C00202320F4FEC1472326F4FE232204FEF5
S3150800021C930744FDBE850325C4FCEF00900A010034
S3150800022CF250625421618280411106C622C400082C
S3150800023C1305206019211305306001211305406050
S3150800024CED2E13055060D52E13050050FD2613050B
S3150800025CE060E5261305E070CD261305B070F12E87
S3150800026CB72704E091079843B72704E0910713676B
S3150800027C071098C399460946C145B7170140138517
S3150800028C0780C1229945B717014013850780612657
S3150800029C89660946C14537150140652289653715B2
S315080002AC0140952E930600200D46E145B7170140EF
S315080002BC138507807922930600400D469145B7179A
S315080002CC014013850780B52AB74701401385078077
S315080002DC413585660D46C145B7170140138507C0DC
S315080002EC8D22A9660D46E145B7170140138507C04F
S315080002FC892A91660D469145B7170140138507C0A3
S3150800030C8922B747004013850780C1350100B240E2
S3150800031C224441018280797106D622D44AD24ED023
S3150800032C0018EF00B07CF37704302326F4FEF3773D
S3150800033C01302324F4FEB70700D291079C432322ED
S3150800034CF4FE032744FE8967FD17F98F2322F4FE72
S3150800035C032544FEEF00D045EF0090701D45EF00D5
S3150800036C10741D45EF00304B85451D45EF00505D5B
S3150800037C85451D45EF009065B707002003A70700C4
S3150800038C8567938707FA3357F702B70700D1A10792
S3150800039C3A89814923A0270123A23701B70700D13F
S315080003AC8146014794C3D8C30D45EF00506F0D45E0
S315080003BCEF00704689450D45EF00905889450D4567
S315080003CCEF00D060F36704302320F4FEF3670130A6
S315080003DC232EF4FC0100B25022541259825945615D
S315080003EC8280411106C622C40008B707002013876D
S315080003FCC700B707002093870700B307F7403E8668
S3150800040CB7270008938547EBB70700201385070025
S3150800041CEF10007DB71700201387070AB7070020CF
S3150800042C9387C700B307F7403E868145B707002078
S3150800043C1385C700EF10900C0100B240224441010D
S3150800044C8280797122D60018232EA4FC232CB4FCA6
S3150800045C232AC4FC2328D4FC232404FE232204FECA
S3150800046C832784FDBD8B2324F4FE832784FDC18B4F
S3150800047C81CB032784FE832744FDD98F2324F4FEDE
S3150800048C231704FE4DA88357E4FE05473317F700D8
S3150800049C832704FDF98FD9CB8327C4FD9C432322DC
S315080004ACF4FE8357E4FE8A073D47B317F70093C754
S315080004BCF7FF032744FEF98F2322F4FE8357E4FE45
S315080004CC8A07032784FEB317F700032744FED98F40
S315080004DC2322F4FE032784FD930780026310F70298
S315080004EC8357E4FE05473317F7008327C4FDD10766
S315080004FCBE86832704FDF98F9CC225A0032784FD9D
S3150800050C93078004631FF7008357E4FE05473317E8
S3150800051CF7008327C4FDC107BE86832704FDF98F20
S3150800052C9CC28327C4FD032744FE98C38357E4FE65
S3150800053C85072317F4FE0357E4FE9D47E3F5E7F416
S3150800054CA1472317F4FE75A88357E4FE054733170E
S3150800055CF700832704FDF98FC5C38327C4FD9107CC
S3150800056C9C432322F4FE8357E4FEE1178A073D4792
S3150800057CB317F70093C7F7FF032744FEF98F232217
S3150800058CF4FE8357E4FEE1178A07032784FEB317A4
S3150800059CF700032744FED98F2322F4FE032784FD94
S315080005AC930780026310F7028357E4FE0547331757
S315080005BCF7008327C4FDD107BE86832704FDF98F70
S315080005CC9CC225A0032784FD93078004631FF700AC
S315080005DC8357E4FE05473317F7008327C4FDC10785
S315080005ECBE86832704FDF98F9CC28327C4FD910719
S315080005FC3E87832744FE1CC38357E4FE85072317CF
S3150800060CF4FE0357E4FEBD47E3F0E7F401000100EE
S3150800061C325445618280011122CE00102326A4FE95
S3150800062C2324B4FE8327C4FEC1073E87832784FE92
S3150800063C1CC30100724405618280011122CE001090
S3150800064CAA872317F4FE8357E4FE9983C207C1834E
S3150800065C3E87B7170240BA9798438357E4FEFD8B3B
S3150800066C8546B397F6008356E4FE9982C206C18284
S3150800067C3686B7160240B296D98F9CC201007244D0
S3150800068C05618280011122CE0010AA872317F4FE79
S3150800069C8357E4FE9983C207C1833E87B717024086
S315080006ACBA9798438357E4FEFD8B8546B397F600B5
S315080006BC8356E4FE9982C206C1823686B716024074
S315080006CCB296D98F9CC201007244056182800111D1
S315080006DC22CE0010AA872317F4FE8357E4FE9983CB
S315080006ECC207C1833E87B7170240BA979843835708
S315080006FCE4FEFD8B8546B397F60093C7F7FF835642
S3150800070CE4FE9982C206C1823686B7160240B296B4
S3150800071CF98F9CC201007244056182801971A2DEB0
S3150800072C0001AA87A307F4F8232604FEB7270008B6
S3150800073C9387C7E89043D4439847DC472322C4FAE7
S3150800074C2324D4FA2326E4FA2328F4FA232E04F8CD
S3150800075CB7070304938717202320F4FA232A04F8EF
S3150800076CB707030493871720232CF4F8B71702400E
S3150800077C91079C4389838D8B232CF4FC032784FDDA
S3150800078C8947630EF702032784FD894763EBE7164F
S3150800079C832784FD99C7032784FD8547630AF700D9
S315080007AC8DA2B7177A00938707202324F4FE95A207
S315080007BCB7177A00938707202324F4FE99AAB7174C
S315080007CC024091079843C167F98F232AF4FC032743
S315080007DC44FDC1676310F70AB7177A009387072099
S315080007EC2320F4FEB71702409387C7029843C167C4
S315080007FCF98F2328F4FC032704FDC167631AF70451
S3150800080CB71702409387C7029C439183BD8B850714
S3150800081C2326F4FCB71702409387C7029C43A1838F
S3150800082CBD8B8907232EF4FC0327C4FDC547631526
S3150800083CF700D147232EF4FC032704FE8327C4FCB8
S3150800084CB357F7020327C4FDB307F7022320F4FEB8
S3150800085CB71702409387C7029C43BD8B8507232491
S3150800086CF4FC032704FE832784FCB357F7022320E2
S3150800087CF4FE39A0B7173D00938707902320F4FEA2
S3150800088CB717024091079C43C983BD8B2322F4FEFC
S3150800089CB717024091079843B7070020F98F99C7F5
S315080008AC832744FE93E707012322F4FE032744FE1D
S315080008BCB94763E8E700832744FE89072322F4FE39
S315080008CC31A0832744FE85072322F4FE032704FE62
S315080008DC832744FEB307F7022324F4FE032744FEBA
S315080008ECBD476317F702032704FEBA878607BA972C
S315080008FC86073E87832704FE8583BA972324F4FE4E
S3150800090C01A8B7177A00938707202324F4FE11A0B1
S3150800091C0100B717024091079C439183BD8B232294
S3150800092CF4FC832744FC130704FFBA9783C747FBD9
S3150800093C2320F4FC832704FC032784FEB357F70013
S3150800094C232EF4FAB717024091079C43A1839D8B7B
S3150800095C2322F4FC832744FC130704FFBA9783C7A6
S3150800096CC7FA2320F4FC832704FC0327C4FBB357DC
S3150800097CF700232CF4FAB717024091079C43AD8372
S3150800098C9D8B2322F4FC832744FC130704FFBA9798
S3150800099C83C747FA2320F4FC832704FC0327C4FBEC
S315080009ACB357F700232AF4FA8347F4F80D47638FF5
S315080009BCE7020D476341F70409476384E7020947D1
S315080009CC634BF70289C705476388E7002DA0832781
S315080009DC84FE2326F4FE0DA08327C4FB2326F4FEEF
S315080009EC21A8832784FB2326F4FE39A0832744FBFE
S315080009FC2326F4FE11A001008327C4FE3E857654F7
S31508000A0C09618280011106CE22CC00102326A4FE91
S31508000A1C0327C4FEB73701406309F7020327C4FE50
S31508000A2CB737014063E8E7040327C4FEB74700401D
S31508000A3C938707806302F7020327C4FEB747004073
S31508000A4C938707C06301F70235A01305C0301D391B
S31508000A5C1305C030AD3905A01305E0402531130543
S31508000A6CE040B53109A81305F04029391305F040C3
S31508000A7CB93911A001000100F24062440561828077
S31508000A8C011122CE00102326A4FE8327C4FE23A020
S31508000A9C07008327C4FE23A207008327C4FE23A4CA
S31508000AAC07008327C4FE23A607008327C4FE23AAB0
S31508000ABC07008327C4FE23AC0700010072440561B6
S31508000ACC8280797122D60018232EA4FC232CB4FC20
S31508000ADC232604FE8327C4FD9C432326F4FE032702
S31508000AECC4FE8D6793870704F98F2326F4FE8327A4
S31508000AFC84FD9C430327C4FED98F2326F4FE832743
S31508000B0C84FDDC430327C4FED98F2326F4FE8327F2
S31508000B1C84FD9C470327C4FED98F2326F4FE83271E
S31508000B2C84FDDC470327C4FED98F2326F4FE8327CE
S31508000B3C84FD9C4B0327C4FED98F2326F4FE8327FA
S31508000B4C84FDDC4B0327C4FED98F2326F4FE8327AA
S31508000B5C84FD9C4F0327C4FED98F2326F4FE8327D6
S31508000B6CC4FD0327C4FE98C38327C4FDF107984325
S31508000B7C8327C4FDF107BE86FD779387F77FF98F28
S31508000B8C9CC20100325445618280011106CE22CCEA
S31508000B9C00102326A4FE0327C4FEB74701409387FB
S31508000BAC07806307F7060327C4FEB74701409387F8
S31508000BBC078063E2E70A0327C4FEB75700406305BC
S31508000BCCF7080327C4FEB757004063E6E708032770
S31508000BDCC4FEB7570040938707C06300F706032780
S31508000BECC4FEB7570040938707C063E6E70603279A
S31508000BFCC4FEB7470040938707406302F7020327F2
S31508000C0CC4FEB7570040938707806301F702A1A07B
S31508000C1C1305E030853C1305E030553C35A8130523
S31508000C2C10418D34130510415D343DA01305204148
S31508000C3C913C13052041613C05A0130530419934BC
S31508000C4C13053041693409A813054041253C1305A1
S31508000C5C4041B53C11A001000100F2406244056117
S31508000C6C8280797106D622D40018232EA4FC232C54
S31508000C7CB4FC232604FE232404FE232204FE23208C
S31508000C8C04FE0327C4FDB747014093870780630713
S31508000C9CF7060327C4FDB74701409387078063E827
S31508000CACE7080327C4FDB7570040630DF70603276B
S31508000CBCC4FDB757004063ECE7060327C4FDB757D6
S31508000CCC0040938707C0630AF7040327C4FDB75788
S31508000CDC0040938707C063ECE7040327C4FDB747B6
S31508000CEC0040938707406300F7020327C4FDB757F4
S31508000CFC004093870780630DF70015A80D45393C0E
S31508000D0C2326A4FE35A00945113C2326A4FE0DA0D6
S31508000D1C094529342326A4FE21A80945013423268E
S31508000D2CA4FE39A00945DD3A2326A4FE11A001002C
S31508000D3C832784FD13D717008327C4FE3E97832782
S31508000D4C84FDB357F7022320F4FE032704FEC1677C
S31508000D5CC117F98F2324F4FE832704FEBD8B2322A7
S31508000D6CF4FE032784FE832744FE5D8F8327C4FD88
S31508000D7CA107BE86C167FD17F98F9CC20100B25048
S31508000D8C225445618280011122CE00102326A4FE2E
S31508000D9C2324B4FE8327C4FEB1079C430327C4FE51
S31508000DAC310793F7F79F1CC38327C4FEB1079843F3
S31508000DBC8327C4FEB107BE86832784FED98F9CC2BF
S31508000DCC0100724405618280011122CE001023268F
S31508000DDCA4FE2324B4FE8327C4FEB10798438327B5
S31508000DECC4FEB107BE86FD77FD17F98F9CC2832713
S31508000DFCC4FEB10798438327C4FEB107BE86832772
S31508000E0C84FED98F9CC2010072440561828001114F
S31508000E1C22CE00102326A4FE2324B4FE8327C4FE68
S31508000E2CC10798438327C4FEC107BE86F577FD170D
S31508000E3CF98F9CC28327C4FEC10798438327C4FE37
S31508000E4CC107BE86832784FED98F9CC201007244D3
S31508000E5C05618280011122CE00102326A4FE832769
S31508000E6CC4FEB10798438327C4FEB107BE868967BB
S31508000E7CD98F9CC20100724405618280797122D691
S31508000E8C0018232EA4FC232CB4FC232604FE83274B
S31508000E9CC4FDB1079C432326F4FE8327C4FEDD9BC1
S31508000EAC2326F4FE0327C4FE832784FDD98F232625
S31508000EBCF4FE8327C4FDB1073E878327C4FE1CC3F3
S31508000ECC0100325445618280797122D60018232E8E
S31508000EDCA4FC232CB4FC232604FE8327C4FDB107EB
S31508000EEC9C432326F4FE8327C4FEED9B2326F4FE9F
S31508000EFC0327C4FE832784FDD98F2326F4FE832774
S31508000F0CC4FDB1073E878327C4FE1CC301003254B7
S31508000F1C45618280797122D60018232EA4FC232CD5
S31508000F2CB4FC232604FE8327C4FDD1079C43232641
S31508000F3CF4FE8327C4FE93F7F7EF2326F4FE032764
S31508000F4CC4FE832784FDD98F2326F4FE8327C4FD8C
S31508000F5CD1073E878327C4FE1CC301003254456162
S31508000F6C8280797122D60018232EA4FC232CB4FC7B
S31508000F7C232604FE8327C4FDD1079C432326F4FEAF
S31508000F8C8327C4FE93F7F7DF2326F4FE0327C4FE54
S31508000F9C832784FDD98F2326F4FE8327C4FDD10726
S31508000FAC3E878327C4FE1CC30100325445618280E8
S31508000FBC797122D60018232EA4FCB70700D22380F9
S31508000FCC0700B70700D2AD0723800700B71700D272
S31508000FDC2324F4FE8327C4FD9207032784FEBA97BD
S31508000FEC2322F4FE832784FE2326F4FE11A88327E6
S31508000FFCC4FE23A007008327C4FEC1072326F4FEDC
S3150800100C0327C4FE832744FEE363F7FE01000100B1
S3150800101C325445618280011122CE00102326A4FE8B
S3150800102C8327C4FE13972700B71700D28507BA97EC
S3150800103C3E8785472300F7000100724405618280CC
S3150800104C011122CE00102326A4FEAE87A305F4FEBA
S3150800105C8327C4FE13972700B71700D28D07BA97B4
S3150800106C3E878347B4FE2300F700010072440561EE
S3150800107C8280011122CE00102326A4FE8327C4FEEB
S3150800108C13972700B71700D28D07BA9783C707009F
S3150800109C93F7F70F3E85724405618280011122CEC3
S315080010AC00102326A4FEAE87A305F4FE8327C4FEF0
S315080010BC13972700B71700D28907BA973E87834735
S315080010CCB4FE2300F7000100724405618280011109
S315080010DC22CE00102326A4FE8327C4FE13972700CE
S315080010ECB71700D28907BA9783C7070093F7F70F84
S315080010FC3E85724405618280411122C60008B707F5
S3150800110C00D283C7070093F7F70F3E853244410197
S3150800111C8280011106CE22CC0010F93FAA87A307BC
S3150800112CF4FE8347F4FE858393F7F70FBD8BA3076D
S3150800113CF4FE8347F4FE3E85F240624405618280E4
S3150800114C797106D622D40018232EA4FCAE87A30DDB
S3150800115CF4FCC137AA87A307F4FE0347F4FE9147AC
S3150800116C63F5E7009147A307F4FE0347B4FD8347ED
S3150800117CF4FEA146B387F640B317F7002307F4FE2F
S3150800118C0325C4FDFD35AA87A306F4FE0347D4FE42
S3150800119C8347F4FEB317F700A306F4FE0347D4FE01
S315080011AC8347F4FEB357F740A306F4FE0347D4FE71
S315080011BC8347E4FED98F93F7F70FBE850325C4FD45
S315080011CC41350100B250225445618280797106D6A8
S315080011DC22D40018232EA4FCAE87A30DF4FC153FCD
S315080011ECAA87A307F4FE0347F4FE8D4763F7E700C7
S315080011FC9147A307F4FE8147B9A88347B4FD920724
S3150800120CA30DF4FC0325C4FDAD35AA872307F4FE0C
S3150800121C0347E4FE8347F4FEA146B387F640B3576B
S3150800122CF7402307F4FE0347E4FE8347F4FEA14682
S3150800123CB387F640B317F7002307F4FE0347E4FE1B
S3150800124C8347B4FDD98F93F7F70FBE850325C4FDE5
S3150800125CC53B8347B4FD3E85B25022544561828016
S3150800126C011122CE0010F32750302326F4FE8327D3
S3150800127CC4FE2324F4FE832784FE93F707FC232459
S3150800128CF4FE832784FE93E737002324F4FE832792
S3150800129C84FE73905730010072440561828079711F
S315080012AC06D622D40018232EA4FC0325C4FD053526
S315080012BCAA87A307F4FE8347F4FE93E717002307D0
S315080012CCF4FE8347E4FEBE850325C4FDC13B01003D
S315080012DCB250225445618280411106C622C40008C8
S315080012EC55280100B240224441018280411106C6AC
S315080012FC22C40008B71702409843B7170240136771
S3150800130C170098C3B717024091079443B7170240C2
S3150800131C91073707FFE03107758F98C3B717024057
S3150800132C9443B71702403707F7FE7D17758F98C396
S3150800133CB71702409443B71702403707FCFF7D17CF
S3150800134C758F98C3B717024091079443B717024095
S3150800135C9107370701DF7D17758F98C3B7170240BA
S3150800136C9387C70223A00700B71702409443B71701
S3150800137C02403707F7EA7D17758F98C3B7170240EF
S3150800138CA1073707FF0098C3813F0100B2402244EA
S3150800139C41018280011122CE0010232604FE23244B
S315080013AC04FEB71702409443B71702404167558F9E
S315080013BC98C38327C4FE85072326F4FEB717024075
S315080013CC9843B7070200F98F2324F4FE832784FE7B
S315080013DC99E70327C4FEC167FD17E31CF7FCB7178B
S315080013EC02409843B7070200F98F91E301A0B7179B
S315080013FC024013874700B71702409107184398C352
S3150800140CB717024013874700B717024091071843CE
S3150800141C98C3B717024091079843B717024091072C
S3150800142C1367074098C3B717024091079443B71739
S3150800143C024091073707C4DF7D17758F98C3B71716
S3150800144C024091079443B7170240910737072920A2
S3150800145C558F98C3B71702409387C7029443B7179B
S3150800146C02409387C7023D77758F98C3B71702401A
S3150800147C9387C7029443B71702409387C7024167FD
S3150800148C130717F1558F98C3B71702409443B7172C
S3150800149C024037070004558F98C30100B71702405E
S315080014AC9843B7070008F98FF5DBB7170240944342
S315080014BCB717024037070010558F98C30100B717A6
S315080014CC02409843B7070020F98FF5DBB71702409F
S315080014DC9443B717024037070001558F98C301008C
S315080014ECB71702409843B7070002F98FF5DBB71711
S315080014FC024091079843B71702409107719B98C30E
S3150800150CB717024091079843B7170240910713671C
S3150800151C270098C30100B717024091079C43A18B7B
S3150800152CFDDB010001007244056182800A85828018
S3150800153C81473E85011122CE00102326A4FE0327DF
S3150800154CC4FE8327C4FEF8DB010072440561828061
S3150800155C011106CE22CC0010B70700209387C700CE
S3150800156C83C71700E207E1876349F002B707002033
S3150800157C9387C70083C72700E207E18793F7F70F1E
S3150800158CFD1793F7F70FE207E187370700201307D4
S3150800159CC7002301F7006355F002B70700209387AD
S315080015ACC70083C7070093F7F70FBE86B707002057
S315080015BC1387C700938716009207BA979C4B85A08A
S315080015CC232604FEB9A06928AA8793F7F70F3E8548
S315080015DCA1282324A4FE832784FE83C79700E20749
S315080015ECE1876353F002832784FE83C7970013971A
S315080015FC87016187B70700209387C7002381E70017
S3150800160C832784FEDC4721A88327C4FE8507232667
S3150800161CF4FE0327C4FE9D47E3D7E7FA81473E85C8
S3150800162CF240624405618280011122CE0010AA871D
S3150800163CA307F4FE0347F4FE9D4763EEE7008347D2
S3150800164CF4FE850713974700B70700209387C70052
S3150800165CBA97910711A081473E857244056182802D
S3150800166C411122C60008B70700209387C70083C715
S3150800167C070013F7F70F994763FAE700B707002037
S3150800168C9387C70023800700814715A0B70700205A
S3150800169C9387C70083C7070093F7F70F850793F758
S315080016ACF70F370700201307C7002300F7003E85FE
S315080016BC3244410182800100197173900234F3227D
S315080016CC103496DEF322003486DC8ADA8ED892D66B
S315080016DC96D49AD29ED0A2CEA6CCAACAAEC8B2C668
S315080016ECB6C4BAC2BEC042DE46DC4ADA4ED852D6B8
S315080016FC56D45AD25ED062CE66CC6ACA6EC872C648
S3150800170C76C47AC27EC0B70700209387C70083C702
S3150800171C070093F7F70FBE84113DAA86B70700207A
S3150800172C1387C700938714009207BA9794CBB70709
S3150800173C00209387C700DC4313871700B7070020E0
S3150800174C9387C700D8C3B70700D18146014794C30E
S3150800175CD8C3B70700209387C7009C4799C7B70714
S3150800176C00209387C7009C478297DD33AA8491C0D3
S3150800177C2681F65273901234E6505651C65136529B
S3150800178CA652165386537644E6445645C6453646FF
S3150800179CA646164786477258E2585259C259325AC3
S315080017ACA25A125B825B724CE24C524DC24D324EBF
S315080017BCA24E124F824F09617300203001000100BE
S315080017CC197173900234F322103496DEF322003426
S315080017DC86DC8ADA8ED892D696D49AD29ED0A2CEA7
S315080017ECA6CCAACAAEC8B2C6B6C4BAC2BEC042DE77
S315080017FC46DC4ADA4ED852D656D45AD25ED062CE87
S3150800180C66CC6ACA6EC872C676C47AC27EC0B70778
S3150800181C00209387C70083C7070093F7F70FBE848A
S3150800182C3133AA86B70700201387C700938714009D
S3150800183C9207BA9794CBB71700D1F11723800700F4
S3150800184CB70700209387C70023810700B707002036
S3150800185C9387C700DC4799C7B70700209387C7004B
S3150800186CDC478297F531AA8491C02681F65273908B
S3150800187C1234E6505651C6513652A6521653865352
S3150800188C7644E6445645C6453646A6461647864722
S3150800189C7258E2585259C259325AA25A125B825B92
S315080018AC724CE24C524DC24D324EA24E124F824FE2
S315080018BC0961730020300100797106D622D400180C
S315080018CC232EA4FC130640098145B707002013856F
S315080018DCC7002D21232604FE15A0B7070020138761
S315080018ECC7008327C4FE85079207BA977D57A38638
S315080018FCE7008327C4FE85072326F4FE0327C4FEC8
S3150800190C9D47E3DCE7FC01478146014681450325F3
S3150800191CC4FDB920AA873E85B250225445618280FF
S3150800192C011106CE22CC00102326A4FE85450325DC
S3150800193CC4FE09220100F24062440561828041110D
S3150800194C22C60008B71700D1F11705472380E70010
S3150800195C0100324441018280411122C6000801A0CF
S3150800196C397106DE22DC8000232EA4FC232CB4FC61
S3150800197C232AC4FC2328D4FC2326E4FCFD2823268E
S3150800198CA4FE8327C4FE63C0070A8327C4FE93F705
S3150800199CF70F3E8551392324A4FE832784FD91EB4A
S315080019AC832704FD99E7832784FE0547A384E7006C
S315080019BCA5A0832704FD2322F4FE0327C4FCB7073E
S315080019CC00408117BA978A07032744FEBA97232043
S315080019DCF4FE130600088145032504FE0526032795
S315080019EC44FD832704FEF8CBB727000813874796D0
S315080019FC832704FEB8DF032784FD832704FEF8DF5C
S31508001A0C032504FE053E832784FE032704FED8C758
S31508001A1C832784FEA3840700832784FE2146832517
S31508001A2CC4FD3E85552E8327C4FE3E85F25062546E
S31508001A3C21618280797106D622D40018232EA4FC43
S31508001A4CAE87A30DF4FC8327C4FD93F7F70F3E85E9
S31508001A5CE13E2326A4FE8327C4FE91CB8327C4FE2E
S31508001A6C0347B4FDA384E7008327C4FD11A0FD57E3
S31508001A7C3E85B250225445618280011122CE001057
S31508001A8C232604FEA9A0B70700201387C7008327BF
S31508001A9CC4FE85079207BA9783C7D70013978701A1
S31508001AAC6187FD576310F702B70700201387C70035
S31508001ABC8327C4FE85079207BA97A3860700832750
S31508001ACCC4FE21A88327C4FE85072326F4FE032714
S31508001ADCC4FE9D47E3D9E7FAFD573E857244056176
S31508001AEC8280411106C622C40008B7270008138550
S31508001AFCC7E9D9332A87B707002023A4E700B70715
S31508001B0C002083A7870063C407040567B70700206E
S31508001B1C9386070A0146B72700089385A7B7B72700
S31508001B2C0008138547EA2D3D2A87B707002023A20C
S31508001B3CE700B707002083A7470063CA0700B70763
S31508001B4C002083A747003E85E13B0128FDBF81475E
S31508001B5C3E85B240224441018280411106C622C408
S31508001B6C0008F13B0100B240224441018280011178
S31508001B7C06CE22CC00102326A4FED133FDBF6F005F
S31508001B8C000073700430170500001305C501930592
S31508001B9C10009395B5016376B5003305B50067005B
S31508001BAC0500176100181301214517E5FFFF1305FA
S31508001BBCA5447310753017050000130585FC7310C2
S31508001BCC5530EFE01F82EFE00FF5EFE0EFE5130578
S31508001BDC000093050000EFF0DFF06FF09FFA0000AD
S31508001BECB3C7A50093F73700B308C5006392070679
S31508001BFC9307300063FEC704937735001307050077
S31508001C0C6398070613F6C8FF930706FE636CF70876
S31508001C1C637CC702938605009307070003A8060092
S31508001C2C938747009386460023AE07FFE3E8C7FE73
S31508001C3C9307F6FFB387E74093F7C7FF93874700E9
S31508001C4C3307F700B385F500636817016780000052
S31508001C5C13070500E37C15FF83C705001307170058
S31508001C6C93851500A30FF7FEE36817FF678000003E
S31508001C7C83C605001307170093773700A30FD7FE03
S31508001C8C93851500E38007F883C60500130717002C
S31508001C9C93773700A30FD7FE93851500E39A07FCB5
S31508001CAC6FF05FF683A6450083A2050083AF850017
S31508001CBC03AFC50083AE050103AE450103A3850139
S31508001CCC03A8C5012322D70083A6050223205700A3
S31508001CDC2324F7012326E7012328D701232AC70142
S31508001CEC232C6700232E07012320D702130747024C
S31508001CFC93854502E368F7FA6FF09FF11303F0003A
S31508001D0C13070500637EC3029377F7006390070AEF
S31508001D1C63920508937606FF1376F600B386E600FB
S31508001D2C2320B7002322B7002324B7002326B700A5
S31508001D3C13070701E366D7FE6314060067800000E5
S31508001D4CB306C3409396260097020000B386560046
S31508001D5C6780C6002307B700A306B7002306B7009B
S31508001D6CA305B7002305B700A304B7002304B700DF
S31508001D7CA303B7002303B700A302B7002302B700D7
S31508001D8CA301B7002301B700A300B7002300B700CF
S31508001D9C6780000093F5F50F93968500B3E5D5009B
S31508001DAC93960501B3E5D5006FF0DFF693962700F9
S31508001DBC97020000B386560093820000E78006FA65
S31508001DCC93800200938707FF3307F7403306F60024
S31508001DDCE378C3F66FF0DFF3B3E7A50093F73700A4
S31508001DEC13070500639807069307300063F4C706C4
S31508001DFC3703FFFEB78880801303F3EF9388080830
S31508001E0C130E300083A60500B387660013C8F6FFC9
S31508001E1CB3F70701B3F71701639E07022320D70010
S31508001E2C1306C6FF1307470093854500E36CCEFCE3
S31508001E3C93851500930717006304060283C6F5FFFE
S31508001E4C1308F6FFA38FD7FE638E060013870700C9
S31508001E5C130608009385150093071700E31006FE72
S31508001E6C678000003306C700630A080093871700CB
S31508001E7CA38F07FEE39CC7FE6780000067800000FF
S31508001E8C0000000000000000010203040607080910
S31508001E9C6D61696E00000000666561747572655F38
S30A08001EAC6D61696E007E
S31108001EB400F36F06FFFFFFFFFFFFFFFFB4
S70508001B8E49
